:1040000000800020C1400000B95A00000D77000078
:10401000B95A0000B95A0000B95A00000000000067
:10402000000000000000000000000000B95A00007D
:10403000B95A000000000000B95A0000B95A000047
:10404000B95A0000B95A0000B95A0000B95A000024
:10405000314500009B450000C745000007460000B1
:10406000B95A0000B95A0000B95A0000B95A000004
:10407000B95A0000B95A0000B95A0000B95A0000F4
:10408000B95A0000B95A0000B95A0000B95A0000E4
:10409000B95A0000B95A0000B95A0000B95A0000D4
:1040A000B95A0000B95A0000B95A0000B95A0000C4
:1040B000B95A0000B95A0000B95A0000B95A0000B4
:1040C00001F0FBFC0E480F490022814201D004C0E0
:1040D000FBE70D480D490E4A814202D008CA08C0CC
:1040E000FAE70C484FF47001026842EA01020260EC
:1040F000BFF34F8FBFF36F8F00F09CFA00DE00001C
:10410000000000202400002000000020000000200B
:10411000187B000088ED00E0002A44D0F0B503AF22
:104120002DE9000F81B00668422492468846C4F209
:104130000704E94601E001F0BDFC4846009601F0A5
:1041400058FC51B920788006F5D4207800F05B0047
:10415000A030207001F0AEFCEFE7514528BF51467A
:104160000D4641462A4603F0CFFA48462946AB465B
:1041700001F064FC2078810607D540070AD501F0DC
:1041800099FC207810F0240FF9D1207800F05B0022
:10419000A0302070D844BAEB0B0ACED101B0BDE8F4
:1041A000000FBDE8F04000207047084647F2287134
:1041B000C0F20001052202F0D8BA02F0DFBB4A6962
:1041C0000068D30648BF02F0C7BE920658BF03F08E
:1041D0005AB802F01ABF4A690068D30648BF02F015
:1041E0004FBE920658BF03F017B802F07FBE0846D4
:1041F00047F22D71C0F20001022202F0B5B94A69FE
:10420000D30648BF02F03CBE920658BF03F004B884
:1042100002F06CBE4A69D30648BF02F09DBE92060A
:1042200058BF03F030B802F0F0BE4A69D30648BF69
:1042300002F044BF920658BF03F080B802F095BF69
:10424000D0B502AF82B0044600208029019003D28D
:1042500001228DF8041035E0B1F5006F0BD2022277
:10426000084662F39F108DF80500C02040EA9110C7
:104270008DF8040026E002200A4660F39F12B1F593
:10428000803F0DD28DF806208A0960F39F12E0204E
:104290008DF8052040EA11308DF80400032211E06A
:1042A0008DF807208A0960F39F128DF806200A0B0B
:1042B00060F39F12F0208DF8052040EA91408DF8C0
:1042C00004000422206801A9FFF726FF00281CBF74
:1042D0000121217102B0D0BD0A4647F26071C0F2DF
:1042E000000101F0FCBEF0B503AF4DF8048D84B0C1
:1042F00001AC0546204602F02FFB47F2307803AEB2
:10430000C0F20008204631464246039501F056FEB1
:10431000681C039020463146424601F04FFEA81C1F
:10432000039020463146424601F048FEE81C0390C7
:1043300020463146424601F041FE281D03902046AA
:104340003146424601F03AFE681D03902046314650
:10435000424601F033FEA81D0390204631464246F6
:1043600001F02CFEE81D039020463146424601F044
:1043700025FE204601F098FE04B05DF8048BF0BDE8
:104380000A460178A1B180B56F4682B00130019034
:1043900047F2487047F25871C0F2000001AB00903C
:1043A0001046C0F20001052202F04BFA02B080BDB7
:1043B00047F240711046C0F20001082202F0D5B960
:1043C000D0B502AF04460068FFF7A6FE00281CBF68
:1043D00001212171D0BDF0B503AF4DF804BD90B0FF
:1043E00047F2FA7347F2C4740425C0F20003C0F226
:1043F00000040A46CDE90A4300F10C01CDE908505A
:1044000000F10E040DF13C0E083047F2D47C0F9100
:104410000221C0F2000CCDE90C1E47F2B47ECDE9BA
:104420000010032304A847F2EB7547F2A47647F285
:10443000E471CDF838C047F2F67CC0F2000E80E897
:10444000184047F2E973C0F2000C1046C0F20005B4
:10445000C0F20006C0F20001C0F200030522CDE95F
:104460000265CDF81CC002F094F910B05DF804BBF1
:10447000F0BDF0B503AF4DF804BD86B002AD47F610
:1044800034020446C0F200022846092302F071F902
:10449000246847F6400647F6500104ABC0F2000618
:1044A000C0F20001E00F03228DF8100028460096AC
:1044B00001F0C4FCC4F3807107F8171C47F65301E0
:1044C000A7F11703C0F200010322009601F0B6FC29
:1044D000C4F38A4127F8161C47F65801A7F11603C2
:1044E000C0F200010322009147F66801C0F200010A
:1044F00001F0A4FC47F66C0105ABC0F200010322F9
:10450000009147F67C01C0F200016FF39F440594CF
:1045100001F094FC01F02AFD06B05DF804BBF0BD8B
:10452000084647F67F01C0F20001052202F01DB9DE
:10453000D0B502AF82B040F220000121C2F20000EB
:10454000017046F21030C4F20000016821F480319D
:10455000016040F20000C2F20000019001A801F0E9
:104560007AFA4224C4F2070489B10078012160700C
:1045700001A801F08AFA40F20000C2F2000001F046
:10458000F5F940B1207800F07B00043002E020789B
:1045900000F05B00207002B0D0BD40F2200001218D
:1045A000C2F20000017046F21430C4F2000001684B
:1045B00021F4803101604220C4F20700017801F04B
:1045C0005B010170704780B56F4682B040F22000F9
:1045D0000121C2F20000017046F21830C4F200005E
:1045E000016821F4803101604520C4F207000178A0
:1045F00040F20000C2F200001030019001A801F06A
:10460000BCF902B080BD40F220000121C2F20000DE
:104610001822017046F21C30C4F20000016821F437
:10462000803101604420C4F20700017862F3DF01A9
:104630000170704780B56F4600F000F880B56F4696
:10464000ADF5207D222003ADC4F204004FF40061DB
:10465000018028464021402402F0F3FF13AE4021A0
:10466000304602F0EEFF4EF200102021CEF20000A4
:1046700040F22008046010240460C2F200080160C7
:104680008021016046F210304FF00109C4F20000B1
:10469000A32188F800908160A42140F2000A016003
:1046A000A521C2F2000A4160A621C16050462946F8
:1046B000402201F055F90AF110003146402201F084
:1046C0004FF946F6006540F2002BCFF6FF75C4F2B5
:1046D000050B5BF805000026C02220F000504BF8C7
:1046E00005004220C4F207000670017801F0FC01C9
:1046F0000170F221C671C47240F6C80400F8026C61
:10470000C4F2040401710C21467100F8011C072158
:10471000817640F60351C4F204010E700A704FF026
:10472000806144F8046C042244F8041C54F8041C0E
:1047300041F4803144F8041C052126602160216881
:1047400062F31C612160216841F4803121600178AD
:1047500041F050010170CDF88CA001F0A3F95BF895
:104760000500822120F400604BF80500CC20C4F243
:104770000900018044F24020C0F20F0001F094F9DA
:1047800047F6840123A8C0F200011322FFF7C4FCFE
:1047900020B147F68410C0F2000047E04FF080508F
:1047A00088F8009044F8806C44F87C6C44F8800CE5
:1047B00044F87C0C0020C1F2010044F8800C44F85D
:1047C0007C0C40F640045BF80500C4F2050420F0C0
:1047D00004004BF80500208820F4E06000F58070AC
:1047E00020806088C00509D46088C0055CBF6088EF
:1047F0005FEAC05002D46088C005F2D540F20010D4
:1048000047F6A401C4F20200C0F200016060102269
:10481000208820F4E06000F50070208023A8FFF7D6
:104820007BFC80B147F67410C0F2000047F66413B9
:10483000009047F6F800C0F20003C0F200007A1EB4
:104840002B2101F065F9022000269190C1F6FC763B
:104850008E908B908890859082907F907C907990BC
:104860007690739070906D906A906790649061906C
:104870005E905B905890559052904F904C9049901C
:104880004690439040903D903A90379001208DF8AB
:10489000DA000020ADF8D8003490329030902E909D
:1048A0002C902A902890269024902088BDF8901073
:1048B00020F4E06000F50070208049B12598B0F147
:1048C000005F80F0418200EA060141EAD02006E064
:1048D000BDF89200B0F5006F80F036828004BDF81C
:1048E00098204FF6E03140F62003CFF6FF71C4F276
:1048F0000503585052B127980021B1EB507F40F08A
:10490000238200EA060141EAD02007E0BDF89A00C0
:104910000021B1EBD02F40F017828004BDF8A02019
:104920004FF6E431CFF6FF71585052B1299800216B
:10493000B1EB507F40F0088200EA060141EAD02046
:1049400007E0BDF8A2000021B1EBD02F40F0FC81C0
:104950008004BDF8A8204FF6E831CFF6FF7158501B
:1049600052B12B980021B1EB507F40F0ED8100EA6D
:10497000060141EAD02007E0BDF8AA000021B1EB12
:10498000D02F40F0E1818004BDF8B0204FF6EC312B
:10499000CFF6FF71585052B12D980021B1EB507FE6
:1049A00040F0D28100EA060141EAD02007E0BDF8DC
:1049B000B2000021B1EBD02F40F0C6818004BDF8D9
:1049C000B8204FF6F031CFF6FF71585052B12F9802
:1049D0000021B1EB507F40F0B78100EA060141EAC7
:1049E000D02007E0BDF8BA000021B1EBD02F40F095
:1049F000AB818004BDF8C0204FF6F431CFF6FF71D3
:104A0000585052B131980021B1EB507F40F09C8159
:104A100000EA060141EAD02007E0BDF8C20000210B
:104A2000B1EBD02F40F090818004BDF8C8204FF644
:104A3000F831CFF6FF71585052B133980021B1EBE5
:104A4000507F40F0818100EA060141EAD02007E072
:104A5000BDF8CA000021B1EBD02F40F07581800471
:104A60004FF6FC314FF6806ACFF6FF71CFF6FF7A32
:104A7000585000200DF190084FF0800B5246002353
:104A800008EB020E012101FA03F90221BEF81462BB
:104A9000022E4FF05C0608BF56261644464496F890
:104AA000C0C1BEF8C061022E18BF08261644464495
:104AB00096F8C061002E18BF40EA0900BEF8CC513C
:104AC00001FA03F60421022D18BF082515444544B8
:104AD00095F8CC51002D18BF3043BEF8D86101FACB
:104AE00003F50821022E18BF08261644464496F8FE
:104AF000D861002E18BF2843BEF8E46101FA03F51F
:104B00001021022E4FF02C0608BF262616444644DC
:104B100096F8C061002E18BF2843BEF8086201FA5B
:104B200003F5022E4FF0500608BF4A26BEF8FC419E
:104B300016444644022C4FF0440496F8C06108BF66
:104B40003E241444BEF8F011444402294FF03801C9
:104B500094F8C04108BF32211144414491F8C0117A
:104B600000294FF0200118BF28439940002C18BF9E
:104B700008434021002E01FA03F118BF0843BCF19D
:104B8000000F0BFA03F118BF0843603203F108036A
:104B90007FF476AF4FF60C4140F62002CFF6FF715E
:104BA000C4F20502505000232020102608250424BA
:104BB0004FF0020901224FF0000C04E00CF1080C48
:104BC0001AF1600A76D008EB0A0BBBF8C0E1BEF11F
:104BD000020F1FBF9BF8CA11012902FA0CF10B4307
:104BE000BBF8CC11022918D1BBF8D81102291FD16A
:104BF000BBF8E411022926D1BBF8F01102292DD10E
:104C0000BBF8FC11022934D1BBF8081202293BD1B0
:104C1000BBF814120229D1D043E09BF8D611002929
:104C200004BF09FA0CF10B43BBF8D8110229DFD0FD
:104C30009BF8E211002904BF04FA0CF10B43BBF806
:104C4000E4110229D8D09BF8EE11002904BF05FA1F
:104C50000CF10B43BBF8F0110229D1D09BF8FA11EB
:104C6000002904BF06FA0CF10B43BBF8FC11022922
:104C7000CAD09BF80612002904BF00FA0CF10B43BE
:104C8000BBF808120229C3D09BF81212002902BFF8
:104C9000402101FA0CF10B43BBF8141202293FF436
:104CA0008DAF9BF81E12002902BF802101FA0CF182
:104CB0000B4383E74FF6084040F6200E40F2002BEE
:104CC00040F6400C40F20009C4F2050BCFF6FF702D
:104CD000C4F2050E4EF800304020002273465E46B6
:104CE000C4F2050CC1F6FC790EE0BCF8001001F02E
:104CF0000601042918BF25F0004535600C3001334A
:104D00001036B0F5E07F32D038F800101A701A7003
:104D10000229F3D058F8005008EB000419786468B1
:104D200041F040011970E90709D0B4F1005F0BD2DE
:104D300004EA090141EAD42101F10045D5E7E90E71
:104D400002D109EA8505D0E701210020979147F6B5
:104D50002C01C0F200019A9099900420969147F29C
:104D6000FC71989096A8C0F2000100F0A8FEBCF873
:104D7000000020F4E060ACF80000BCF8000040F057
:104D80002000ACF800009EF8000000F081018029AE
:104D900004D010F0400001D10020CDE11CF81F0C20
:104DA00000F08101802904D010F0400001D10120E1
:104DB000C2E11CF81E0C00F08101802904D010F023
:104DC000400001D10220B7E11CF81D0C00F0810168
:104DD000802904D010F0400001D10320ACE11CF880
:104DE0001C0C00F08101802904D010F0400001D19A
:104DF000042095E140F64000C4F2050010F81B0CB9
:104E000000F08101802904D010F0400001D105207C
:104E100086E140F64000C4F2050010F81A0C00F0DC
:104E20008101802904D010F0400001D1062077E1F3
:104E300040F64000C4F2050010F8190C00F08101A2
:104E4000802904D010F0400001D1072068E140F62D
:104E50004000C4F2050010F8180C00F08101802910
:104E600004D010F0400001D1082059E140F6400084
:104E7000C4F2050010F8170C00F08101802904D05D
:104E800010F0400001D109204AE140F64000C4F290
:104E9000050010F8160C00F08101802904D010F0F4
:104EA000400001D10A203BE140F64000C4F2050079
:104EB00010F8150C00F08101802904D010F040009A
:104EC00001D10B202CE140F64000C4F2050010F89F
:104ED000140C00F08101802904D010F0400001D1B1
:104EE0000C201DE140F64000C4F2050010F8130C40
:104EF00000F08101802904D010F0400001D10D2084
:104F00000EE140F64000C4F2050010F8120C00F06B
:104F10008101802904D010F0400001D10E20FFE073
:104F200040F64000C4F2050010F8110C00F08101B9
:104F3000802904D010F0400001D10F20F0E040F6AD
:104F40004000C4F2050010F8100C00F08101802927
:104F500004D010F0400001D11020E1E040F6400004
:104F6000C4F2050010F80F0C00F08101802904D074
:104F700010F0400001D11120D2E040F64000C4F210
:104F8000050010F80E0C00F08101802904D010F00B
:104F9000400001D11220C3E040F64000C4F20500F9
:104FA00010F80D0C00F08101802904D010F04000B1
:104FB00001D11320B4E040F64000C4F2050010F81F
:104FC0000C0C00F08101802904D010F0400001D1C8
:104FD0001420A5E040F64000C4F2050010F80B0CC8
:104FE00000F08101802904D010F0400001D115208B
:104FF00096E040F64000C4F2050010F80A0C00F0FC
:105000008101802904D010F0400001D1162087E0F2
:1050100040F64000C4F2050010F8090C00F08101D0
:10502000802904D010F0400001D1172078E040F62C
:105030004000C4F2050010F8080C00F0810180293E
:1050400004D010F0400001D1182069E040F6400083
:10505000C4F2050010F8070C00F08101802904D08B
:1050600010F0400001D119205AE040F64000C4F28F
:10507000050010F8060C00F08101802904D010F022
:10508000400001D11A204BE040F64000C4F2050078
:1050900010F8050C00F08101802904D010F04000C8
:1050A00001D11B203CE040F64000C4F2050010F89E
:1050B000040C00F08101802904D010F0400001D1DF
:1050C0001C202DE040F64000C4F2050010F8030C4F
:1050D00000F08101802904D010F0400001D11D2092
:1050E0001EE040F64000C4F2050010F8020C00F08B
:1050F0008101802904D010F0400001D11E200FE072
:1051000040F64000C4F2050010F8010C00F08101E7
:10511000802900F00F8410F0400040F00B841F2025
:1051200040F2002B40F6400C40F6200EC4F2050B76
:10513000C4F2050CC4F2050E002200210EF8001086
:10514000C0F28C4240F620080EF800100101C4F2B3
:1051500005084BF801200BEB001104224A711122C3
:105160008A712222CA7133220A7244224A728871D9
:1051700080210EF8001003E0802011700EF801006D
:105180009EF80000C00740F0DC801CF81F0CC00730
:1051900040F0D9801CF81E0CC00740F0D6801CF8E7
:1051A0001D0CC00740F0D3801CF81C0CC00740F059
:1051B000D0801CF81B0CC00740F0CD801CF81A0CE6
:1051C000C00740F0CA801CF8190CC00740F0C78027
:1051D0001CF8180CC00740F0C4801CF8170CC0075E
:1051E00040F0C1801CF8160CC00740F0BE801CF8CF
:1051F000150CC00740F0BB801CF8140CC00740F031
:10520000B8801CF8130CC00740F0B5801CF8120CD5
:10521000C00740F0B2801CF8110CC00740F0AF800E
:1052200040F64000C4F2050010F8100CC00740F032
:10523000A88040F64000C4F2050010F80F0CC0072B
:1052400040F0A18040F64000C4F2050010F80E0CBA
:10525000C00740F09A8040F64000C4F2050010F804
:105260000D0CC00740F0938040F64000C4F20500EA
:1052700010F80C0CC00740F08C8040F64000C4F2DF
:10528000050010F80B0CC00740F0858040F6400088
:10529000C4F2050010F80A0CC0077ED140F64000A9
:1052A000C4F2050010F8090CC00778D140F64000A0
:1052B000C4F2050010F8080CC00772D140F6400097
:1052C000C4F2050010F8070CC0076CD140F640008E
:1052D000C4F2050010F8060CC00766D140F6400085
:1052E000C4F2050010F8050CC00760D140F640007C
:1052F000C4F2050010F8040CC0075AD140F6400073
:10530000C4F2050010F8030CC00754D140F6400069
:10531000C4F2050010F8020CC0074ED140F6400C54
:1053200040F2002BC4F2050C40F6200E1CF8010CD4
:10533000C4F2050BC4F2050EC0073FF421AF1F20D5
:1053400040E000203EE001203CE002203AE0032063
:1053500038E0042036E0052034E0062032E0072063
:1053600030E008202EE009202CE00A202AE00B2063
:1053700028E00C2026E00D2024E00E2022E00F2063
:105380001CE010201AE0112018E0122016E0132073
:1053900014E0142012E0152010E016200EE0172073
:1053A0000CE018200AE0192008E01A2006E01B2073
:1053B00004E01C2002E01D2000E01E2040F2002B33
:1053C000C4F2050B01015BF801E00BEB00114A7917
:1053D00002907AB101F1060B012A9BF800C015D1A9
:1053E000002300254FF0000A4FF00009002100269D
:1053F00000244AE0002300254FF0000A4FF0000986
:105400000021002600244FF0000C3EE09BF80140F4
:10541000022A08D1002300254FF0000A4FF00009AE
:105420000021002631E09BF80260032A07D1002307
:1054300000254FF0000A4FF00009002125E09BF8FD
:105440000310042A06D1002300254FF0000A4FF074
:1054500000091AE09BF80490052A04D100230025D6
:105460004FF0000A11E09BF805A0062A02D10023A4
:1054700000250AE09BF80650072A01D1002304E02A
:105480009BF80730082A40F04B8202984FF0400BFF
:1054900008F800B0280440EA036040EA0A208DF8CA
:1054A000662248449790080647F2107140EA064089
:1054B00024AA40EA04200024604496900220C0F20E
:1054C0000001259047F6D800C0F20000ADF8644214
:1054D00024900120279094A8269044F2D730C0F25F
:1054E0000000CDF860E2959096A8949023A89D9036
:1054F0009DA828948DF8784200F0F1FD002840F036
:10550000FA8196AE0DF1900C40F2002BC6464ECEBD
:10551000C4F2050B98F800008CE84E0040F6400CF1
:1055200000F081018029C4F2050C04D010F0400085
:1055300001D1002197E11CF81F0C00F081018029A6
:1055400004D010F0400001D101218CE11CF81E0CA8
:1055500000F08101802904D010F0400001D1022127
:1055600081E11CF81D0C00F08101802904D010F0AD
:10557000400001D1032176E11CF81C0C00F08101F0
:10558000802904D010F0400001D104216BE11CF807
:105590001B0C00F08101802904D010F0400001D1E3
:1055A000052160E11CF81A0C00F08101802904D06B
:1055B00010F0400001D1062155E11CF8190C00F053
:1055C0008101802904D010F0400001D107214AE177
:1055D0001CF8180C00F08101802904D010F0400064
:1055E00001D108213FE11CF8170C00F0810180294E
:1055F00004D010F0400001D1092134E11CF8160C50
:1056000000F08101802904D010F0400001D10A216E
:1056100029E11CF8150C00F08101802904D010F05C
:10562000400001D10B211EE11CF8140C00F0810197
:10563000802904D010F0400001D10C2113E11CF8A6
:10564000130C00F08101802904D010F0400001D13A
:105650000D2108E11CF8120C00F08101802904D012
:1056600010F0400001D10E21FDE01CF8110C00F0FB
:105670008101802904D010F0400001D10F21EEE01B
:1056800040F64000C4F2050010F8100C00F0810153
:10569000802904D010F0400001D11021DFE040F655
:1056A0004000C4F2050010F80F0C00F081018029C1
:1056B00004D010F0400001D11121D0E040F64000AC
:1056C000C4F2050010F80E0C00F08101802904D00E
:1056D00010F0400001D11221C1E040F64000C4F2B8
:1056E000050010F80D0C00F08101802904D010F0A5
:1056F000400001D11321B2E040F64000C4F20500A1
:1057000010F80C0C00F08101802904D010F040004A
:1057100001D11421A3E040F64000C4F2050010F8C6
:105720000B0C00F08101802904D010F0400001D161
:10573000152194E040F64000C4F2050010F80A0C70
:1057400000F08101802904D010F0400001D1162121
:1057500085E040F64000C4F2050010F8090C00F0A6
:105760008101802904D010F0400001D1172176E09A
:1057700040F64000C4F2050010F8080C00F081016A
:10578000802904D010F0400001D1182167E040F6D4
:105790004000C4F2050010F8070C00F081018029D8
:1057A00004D010F0400001D1192158E040F640002B
:1057B000C4F2050010F8060C00F08101802904D025
:1057C00010F0400001D11A2149E040F64000C4F237
:1057D000050010F8050C00F08101802904D010F0BC
:1057E000400001D11B213AE040F64000C4F2050020
:1057F00010F8040C00F08101802904D010F0400062
:1058000001D11C212BE040F64000C4F2050010F845
:10581000030C00F08101802904D010F0400001D178
:105820001D211CE040F64000C4F2050010F8020CF7
:1058300000F08101802904D010F0400001D11E2128
:105840000DE040F64000C4F2050010F8010C00F035
:105850008101802973D010F0400070D11F2140F6E3
:10586000200EC4F2050E9DF89E000B01269A0EF83C
:10587000014009280EF801404BF803200BEB011200
:10588000507131D2002802F106021EBF9DF89030FF
:10589000137001283FF470AC9DF8913002285370CA
:1058A0003FF46AAC9DF89230032893703FF464ACE7
:1058B0009DF893300428D3703FF45EAC9DF894308B
:1058C000052813713FF458AC9DF8953006285371A4
:1058D0003FF452AC9DF89630072893711CBF9DF899
:1058E0009700D071FFF748BC47F284720821C0F2DC
:1058F000000201F056F89DF8780247F634138DF84F
:10590000900047F64410C0F2000024AA009047F629
:10591000F800C0F20000C0F200032B2100F0F8F8FC
:1059200047F294729BF80800C0F200020820082198
:1059300000F0D0F847F65410C0F2000003E047F63C
:105940002410C0F2000047F6E803009047F6F80084
:10595000C0F20003C0F200007A1E2B2100F0D8F83C
:105960000160002142608160C16070478168C06849
:10597000081AB0FA80F040097047F0B503AF4DF84F
:10598000048D026800244FF0000ED2F80880BFF3A7
:105990005F8FD2F800C05068D5682B1A38BF2B46ED
:1059A000C61A18BF0126B8EB000038BF4046A8EB66
:1059B0000505984288BF0124C01AB5FA85F518BFBD
:1059C000012034436D0928432040012804BF0CF80E
:1059D00003104FF0010ED16853687144B1EB430FCF
:1059E00028BFA1EB4301BFF35F8FD1605DF8048B4B
:1059F000F0BDD0B502AF0168D1F808E0BFF35F8F0A
:105A00000868D1F804C0C968BEEB0C0338BF734600
:105A1000B1EB0C0238BF0A46AEEB0101B1FA81F1DD
:105A20009C1A18BF01244909214318BF104493420E
:105A300098BF6346002918BF991AD0BD0068C26894
:105A400043681144B1EB430F28BFA1EB4301BFF3FF
:105A50005F8FC16070470368DA68BFF35F8F1868B3
:105A6000D3F804C09B68934204BF00217047B2EB97
:105A70000C0138BF1146B3EB0C0238BF1A469142F5
:105A800098BF61461044891A70470068826843686D
:105A90001144B1EB430F28BFA1EB4301BFF35F8F6C
:105AA0008160704762B67047012101EB50000138F8
:105AB000FDD1704730BF7047FEE77047FEE780B505
:105AC0006F4684B0CDE9010101A80122ADF80C2098
:105AD000FFF7F4FF80B56F468CB0CDE900010020E0
:105AE000069002200849029169460390059008A893
:105AF00004900648CDE9090111460B9001A80890D1
:105B000002A8FFF7DCFF00BFC87900003D7300006A
:105B100080B56F468EB08DE80F00002047F6DC118F
:105B2000089002200590C0F2000107900AA8069094
:105B300047F22B40C0F20000D7F808C00D9002A831
:105B40000C9047F23340C0F2000004910B9068467D
:105B50000A9004A86146FFF7B2FFF0B503AF2DE944
:105B6000000F8BB090460A4601684FF0000B089179
:105B70004FF0000A4168002680680990501C02908E
:105B8000C8F101000190C8F100000690501E079175
:105B90000A920590CDF80C8013E00598005D0A3854
:105BA000B0FA80F04009079BA4EB0B02099D0A990B
:105BB000DB6828705944089898470028CB4640F085
:105BC0001281F00740F00A815046C24500F2EE8093
:105BD000049602E0404500F2E9800A99A8EB000E25
:105BE000BEF1070F01EB000926D8804500F0DD80EB
:105BF00006990022014419F802300A2B00F0BA80FD
:105C00008B185E1C00F0D18009EB020675780A2D16
:105C100000F091809D1C00F0C880B5780A2D00F03E
:105C20009080033300F0C180F3780A2B00F090805D
:105C300004328B18DFD1B8E009F1030121F0030C25
:105C4000BCEB090122D08D1EA1F1030A4C1E0022DB
:105C500019F802300A2B00F08B8094421AD009EB1D
:105C6000020393F80180B8F10A0F78D0954211D061
:105C70009E780A2E77D092450CD0DB780A2B76D00E
:105C8000043219F802300A2BE7D171E0AEF10802B4
:105C9000824606E0DDF80C80AEF1080282469142B1
:105CA0001AD840F20010042303EB0C06C0F20110D6
:105CB00056E9015383F00A34041B234385F00A3468
:105CC000041B25432B4023F07F33B3F1803F03D1E6
:105CD000083108369142EBD9BEEB010365D0029E34
:105CE00001EB0A02069C504606EB020E019E14448C
:105CF00002EB060C03220EEB020515F8046C0A2ECB
:105D00002FD00CEB0206032E4FD015F8036C0A2E91
:105D10002BD0A618012E48D015F8026C0A2E2FD0D1
:105D2000934242D015F8015C0A2D2AD00432A518FE
:105D3000032DE0D139E001321118481C414526D32A
:105D400048E702321118481C4145BFF443AF1EE03A
:105D500003321118481C4145BFF43CAF17E0013233
:105D600006E0033A0DE0023202E0023A09E00332B3
:105D7000DDF80C801118481C4145BFF42BAF06E03C
:105D8000013A0A441118481C4145BFF423AF82462A
:105D900019F802000A2850467FF41CAF049E814681
:105DA00004460998007850B913E04046C34515D021
:105DB00082460126D94644460998007848B107989A
:105DC00047F2F271C0F200010422C36808989847B4
:105DD00048B95C457FF4E1AE0020E4E600200BB05A
:105DE000BDE8000FF0BD01200BB0BDE8000FF0BD15
:105DF000F0B503AF4DF8048D8568D0E900462878EA
:105E000078B147F2F272F368C0F200028846114698
:105E1000204604229847414618B101205DF8048BC2
:105E2000F0BDA1F10A003269B0FA80F04009287093
:105E300020465DF8048BBDE8F0401047F0B503AF95
:105E40002DE9000F8FB09846034600794FF0010905
:105E500000284FF0010077D1CDF804809A46D3F89E
:105E60000080BD685B7998F8140040072ED40C467A
:105E700047F60421934647F60722D8E90706C0F201
:105E80000001C0F20002002B18BF1146F3684FF06A
:105E9000030218BF02229847002853D1D8E907010E
:105EA0005A46CB682146984700284BD1D8E90701CC
:105EB0000222CB6847F6D811C0F2000198470028AB
:105EC00040D1EA684146019890473CE073B9D8E96F
:105ED000070347F60926DB68C0F200060C46314688
:105EE0001646032298472146324658BB01200DF141
:105EF000080C07F8410CA7F14106D8E90703AB46A7
:105F00008CE8490006A8B8E8580058C098E878001E
:105F100078C047F6EC10C0F200000E9002A80D9079
:105F2000FFF71BFE70B947F6D81102A8C0F20001B6
:105F30000222FFF712FE28B9DBF80C2006A901980F
:105F4000904748B1012053461871184683F80590D0
:105F50000FB0BDE8000FF0BDDDE90D010222CB68F6
:105F600047F60C21C0F200019847ECE701460079A2
:105F70004A7902B3C00701D001201BE0D0B502AFBF
:105F800008680C46017D490708D4D0E907010222C0
:105F9000CB6847F60F21C0F2000107E0D0E9070106
:105FA0000122CB6847F60E21C0F200019847214636
:105FB000BDE8D040087100F001007047F0B503AFB4
:105FC0002DE9000F8DB003794FF001090125002B59
:105FD00063D1D0F800B043799BF81460760714D4ED
:105FE0000646002B47D0DBE9070347F60725DB68A9
:105FF000C0F20005884629461546022298472A46DF
:106000004146C0B30125304647E09BB9DBE907367E
:1060100047F6152CD6F80CE0C0F2000C80468A46F4
:106020001646184661460122F0470346324651465D
:10603000404693BB8046012007F8410CA7F141067A
:10604000DBE907030DF1100C8DE849006046BBE861
:10605000680068C09BE8780078C047F6EC10C0F292
:106060000000D2680C9068460B9008466146904745
:1060700040B1012510E0D2680846594690470546D0
:1060800030460AE0DDE90B010222CB6847F60C211D
:10609000C0F2000198470546404680F8059005711A
:1060A0000DB0BDE8000FF0BDD0B502AF04460079D9
:1060B00010B101202071D0BD20680122D0E9070174
:1060C000CB6847F61621C0F2000198472071D0BD79
:1060D0000A4647F6EC11C0F2000100F000B8F0B536
:1060E00003AF2DE9000F8DB01669CDE90B01032038
:1060F0008DF8280000202021002E0990089106909C
:10610000049069D05069002800F09180D2F800A076
:106110004101D2F808B0013820F078404FF0000873
:106120004FF0000901300292039101900AEB09013E
:106130004A683AB1DDE90B030968DB689847002833
:1061400040F0858006EB0800036906EB8900D0E982
:106150000221057F846908938DF8285009947AB14B
:10616000012A02D15BF831203AB1002256F80830FA
:10617000CDE90421022B0AD10FE00BEBC1014968E4
:10618000012256F80830CDE90421022B05D04168E0
:10619000012B07D15BF831200AB1002203E00BEBA1
:1061A000C101496801224369079106920BEBC301C3
:1061B0005BF833004B6804A99847002847D103983F
:1061C00008F1200809F108094045AFD1DDE901A235
:1061D0005068824530D33FE0D06840B394680DF1F9
:1061E0001008D2F800B0002604EBC009013820F0F6
:1061F0006040029200F1010A0BEBC6014A682AB125
:10620000DDE90B030968DB68984700BB04EBC605B2
:106210004146D5E900029047C8B905F108000136AA
:106220004845E9D1029A5068824505D314E04FF001
:10623000000A506882450FD21268DDE90B01CB6875
:1062400052F83A1002EBCA025268984720B1012076
:106250000DB0BDE8000FF0BD00200DB0BDE8000F8F
:10626000F0BDF0B503AF2DE9000F87B0D7F80C9063
:106270001C46154600294ED0D0F814B02B221BF036
:10628000010108BF4FF4881201EB090A0692D7F802
:1062900008805FEA4B7149D5102C5AD2002C64D08B
:1062A00004F0030CA2084FF0000160D002F00302DA
:1062B000CDF8108005F10108CDE90249A1EB820E6D
:1062C0006FF00302059508EB0205043295F90330DF
:1062D00095F9064095F9056013F1410F95F90450C1
:1062E000C8BF01310EEB020315F1410FC8BF0131E8
:1062F00016F1410FC8BF013114F1410FC8BF013180
:106300000433E0D1DDE904850432DDE90249BCF162
:10631000000F30D147E02D21D0F814B009F1010A67
:106320000691D7F808805FEA4B71B5D40025016863
:10633000E9BB2146D0E9074600913146069A2B4633
:10634000204600F0EEF860B1012007B0BDE8000F74
:10635000F0BD06462846214600F027FB01463046A0
:1063600021E0F3682046414677E000211BE000224F
:10637000BCF1000F17D0AB5613F1410FC8BF01316C
:10638000BCF1010F0FD02A4492F9013013F1410FF3
:10639000C8BF0131BCF1020F05D092F9022012F101
:1063A000410FC8BF01318A4401680029C1D0CDE93D
:1063B0000485D0F80480D04512D95FEA0B711FD450
:1063C000017EA8EB0A02A346CA46032908BF0121A1
:1063D000002949D0012949D111464FF0000949E06F
:1063E0002146D0E9074600913146DDE905322046D5
:1063F00000F097F870B3012007B0BDE8000FF0BDC2
:106400003021D0F810B0224601610121057ED0E98B
:10641000074601763146039000922046DDE90532B9
:1064200000F07FF80146012000297FF48EAF069529
:10643000A8EB0A00DDF81080451C013D3AD0326916
:106440002046302190470028F7D0012007B0BDE852
:10645000000FF0BDF368204604994A4607B0BDE836
:10646000000FBDE8F0401847914603E051080132A3
:106470004FEA520906694D1CD0E90748013D0BD08F
:10648000D8F810202046314690470028F6D0012049
:1064900007B0BDE8000FF0BDCDF800B02046DDE943
:1064A0000532414600F03DF878B1012007B0BDE863
:1064B000000FF0BDF368204641464A46984780B138
:1064C000012007B0BDE8000FF0BDD8F80C30204621
:1064D00004995246984770B1012007B0BDE8000FFB
:1064E000F0BD039806990176C0F810B0002007B0FF
:1064F000BDE8000FF0BD0025A94509D0D8F810204F
:1065000020463146904701350028F5D0691E00E04D
:1065100049460020494538BF012007B0BDE8000FBB
:10652000F0BDF0B503AF4DF8048DD7F808801C46D8
:106530000E46B2F5881F0AD03369114605469847C2
:106540000146284619B101205DF8048BF0BD3CB12D
:10655000F368214642465DF8048BBDE8F0401847D9
:1065600000205DF8048BF0BDF0B503AF2DE9000FFE
:1065700081B08846D0F800C081685CEA010302D18E
:10658000D0E90701B3E0C90730D0C66808EB020EB6
:106590004FF000094146E6B9714527D091F9001046
:1065A000B1F1FF3FDCBFC9B2E029B9F1000F23D040
:1065B000914520D218F9091011F1400F1CDA002181
:1065C0001BE0F0292CBF211DE11C0B1B013E99444F
:1065D000E2D071450AD00C4611F9013BB3F1FF3FFF
:1065E000F3DCD9B2E029ECD2A11CEEE79146BCF174
:1065F000000F09D178E0E2D1414600290CBF914655
:106600008846BCF1000F6FD0D0F804B0B9F1100F7C
:1066100035D2B9F1000F3AD009F0030C5FEA9902C4
:106620004FF0000135D002F0030208F1010AA1EB9E
:10663000820E6FF003020AEB0204043294F9036045
:1066400094F9063094F9055016F1410F94F904407D
:10665000C8BF013114F1410FC8BF013115F1410F1D
:10666000C8BF013113F1410F0EEB0203C8BF013166
:106670000433E0D10432BCF1000F0ED126E006460F
:106680004046494600F091F9014630461EE000219F
:106690001CE00022BCF1000F18D018F9023013F1F1
:1066A000410FC8BF0131BCF1010F0FD0424492F934
:1066B000013013F1410FC8BF0131BCF1020F05D009
:1066C00092F9022012F1410FC8BF01318B450BD95D
:1066D000037EABEB0101DA1E18BF1A4692B1012A04
:1066E0000DD10A4600210DE0D0E907014A46CB68EA
:1066F000414601B0BDE8000FBDE8F04018474A0828
:1067000001314908D0F810A0561CD0E9074B009180
:10671000013E07D0DBF81020204651469047002864
:10672000F6D006E0DBF80C30204641464A46984752
:1067300020B1012001B0BDE8000FF0BD009E002592
:10674000AE4209D0DBF81020204651469047013573
:106750000028F5D0691E00E031460020B14238BF64
:10676000012001B0BDE8000FF0BDD0E90703DB68F0
:106770001847B0B502AF0C460546D1E907019C4663
:10678000CB681146624698470021287169712C60D8
:10679000B0BDB0B502AF84B01C460546D0E90703D2
:1067A000DB68984707F1080C00218DF80C0002A85F
:1067B0009CE80C108DF80D1021460295CDF800C014
:1067C000FFF73CFB07F114052ECD0095FFF736FBD4
:1067D00007F124052ECD0095FFF730FB07F13405B6
:1067E0002ECD0095FFF72AFB9DF80D209DF80C108B
:1067F000012A42EA010008BF5FEAC17103D000F03C
:10680000010004B0B0BD0298017D49070CD4D0E965
:1068100007010222CB6847F60F21C0F2000198471A
:1068200000F0010004B0B0BDD0E907010122CB683F
:1068300047F60E21C0F20001984700F0010004B0B5
:10684000B0BDF0B503AF2DE9000F8DB0D0E90765FD
:106850008346EC68984692463046A04720B1012016
:106860000DB0BDE8000FF0BD9BF81400D7F80890FC
:10687000400716D447F611213046C0F2000101222C
:10688000A047014601200029EAD1D9F80C20404652
:106890005946904700283ED001200DB0BDE8000FBA
:1068A000F0BD47F612213046C0F200010222A04797
:1068B000014601200029D3D1A7F1410107F8410C7D
:1068C00000965846CDE9015104A968C80A4668C235
:1068D00090E8780047F6EC10C0F2000078C2D9F8D2
:1068E0000C200C9068460B904046904720B1012048
:1068F0000DB0BDE8000FF0BDDDE90B010222CB6851
:1069000047F60C21C0F20001984720B101200DB0DC
:10691000BDE8000FF0BDBAF1000F10D19BF81400D4
:1069200040070CD4DBE907010122CB6847F61421AC
:10693000C0F20001984701460120002990D1DBE90F
:1069400007010122CB6847F69411C0F20001984775
:106950000DB0BDE8000FF0BDB0B502AF0C46054666
:10696000D1E907010122CB6847F6B511C0F2000159
:1069700098470021287169712C60B0BD00780A46E3
:1069800038B147F2EE711046C0F200010422FFF761
:10699000EBBD47F6E1211046C0F200010522FFF7EA
:1069A000E3BD80B56F4600F04AFDF0B503AF2DE9B9
:1069B000000F82B08146033020F0030AAAEB0908D9
:1069C000414535D2002946D001F0030C8A084FF02A
:1069D000000000F03182A0EB820E09F101066FF099
:1069E00003057319043593F9031093F9064093F9DD
:1069F000052011F1410F93F90430C8BF01300EEBAF
:106A0000050113F1410FC8BF013012F1410FC8BF9A
:106A1000013014F1410FC8BF01300431E1D12A1D0A
:106A2000BCF1000F40F00D8202B0BDE8000FF0BDD8
:106A3000A1EB080E5FEA9E0CC4D00EF00302CA451B
:106A400001D100204CE0A9EB0A0010F1040F07D996
:106A50000020002528E0002002B0BDE8000FF0BDB6
:106A600009F1010B00206FF003060BEB060595F909
:106A7000034095F9063095F9051014F1410F95F989
:106A80000450C8BF013015F1410FC8BF013011F1EA
:106A9000410FC8BF013013F1410FC8BF013016F1DB
:106AA000080506F10406E0D1CA4519D019F9051008
:106AB00011F1410FC8BF0130B8F1010F10D009EB3F
:106AC000050191F9013013F1410FC8BF0130B8F150
:106AD000020F05D091F9021011F1410FC8BF01302A
:106AE00009EB08040023C2B12EF00301214491F9FF
:106AF000006016F1410FC8BF0123012A0DD091F9A2
:106B0000016016F1410FC8BF0133022A05D091F987
:106B1000021011F1410FC8BF0133184412E04FF0C9
:106B200000083FFA88F23FFA98F31A44ACEB0B0CDA
:106B30000AEB8B041BF0030102EB024200EB124054
:106B400040F04981BCF1000F3FF46EAFBCF1C00FC3
:106B5000E34628BF4FF0C00BA246BCF1040FDED3C2
:106B60006FF00F01012201EB8B01302902EB1112B2
:106B7000CDE9002A03D24FF000085446ABE022F0E2
:106B800003094FF00008544694E80E04B9F10409D3
:106B9000A6696FEA010E4FEADE1545EA91116FEA28
:106BA000020521F0FE314FEAD51545EA9212414423
:106BB00022F0FE320A446FEA03014FEAD11545EA9A
:106BC000931323F0FE3325691A446FEA0A034FEA50
:106BD000D313616943EA9A13D4F8388023F0FE3363
:106BE000D4F83CE01A446FEA05034FEAD31343EAB2
:106BF0009513E56923F0FE331A446FEA01034FEA67
:106C0000D31343EA911121F0FE31236A11446FEA54
:106C100006024FEAD21242EA9612666A22F0FE3269
:106C200011446FEA05024FEAD21242EA9512A56AB0
:106C300022F0FE3211446FEA03024FEAD21242EA16
:106C40009312E36A22F0FE3211446FEA06024FEA21
:106C5000D21242EA9612266B22F0FE3211446FEAFB
:106C600005024FEAD21242EA9512656B22F0FE321B
:106C700004F1400411446FEA03024FEAD21242EADF
:106C8000931222F0FE3211446FEA06024FEAD2124A
:106C900042EA961222F0FE3211446FEA05024FEAF0
:106CA000D21242EA951222F0FE3211446FEA080233
:106CB0004FEAD21242EA981222F0FE3211446FEAF1
:106CC0000E024FEAD21242EA9E1222F0FE3202EB8C
:106CD00001087FF459AF0099DDF804A011F0030E0C
:106CE0003FF41FAF94E84C00BEF1010FE5686FEA76
:106CF00002014FEAD11141EA92116FEA03024FEA11
:106D0000D21221F0FE3142EA9312414422F0FE32C7
:106D100011446FEA06024FEAD21242EA961222F0BA
:106D2000FE3211446FEA05024FEAD21242EA95128E
:106D300022F0FE3202EB01083FF4F3AE04F110053D
:106D4000BEF1020F2ECD6FEA01064FEAD61646EAD3
:106D500091116FEA020621F0FE314FEAD61646EA9B
:106D60009212414422F0FE3211446FEA03024FEACC
:106D7000D21242EA931222F0FE3211446FEA050267
:106D80004FEAD21242EA951222F0FE3202EB0108DB
:106D90003FF4C7AE04F120064ECECD43ED0945EADF
:106DA0009111D54321F0FE31ED0945EA921241449B
:106DB00022F0FE321144DA43D20942EA931222F061
:106DC000FE321144F243D20942EA961222F0FE3218
:106DD00002EB0108A5E60BF0FC0301295AF8232079
:106DE0006FEA02064FEAD61646EA921222F0FE3207
:106DF00015D00AEB830302295E686FEA06054FEAA5
:106E0000D51545EA961626F0FE36324407D0996825
:106E1000CB43DB0943EA911121F0FE310A443FFAEA
:106E200082F13FFA92F2114401EB014100EB114073
:106E300002B0BDE8000FF0BD0022BCF1000F3FF42E
:106E4000F3AD19F9021011F1410FC8BF0130BCF1C7
:106E5000010F3FF4E9AD4A4492F9011011F1410FDD
:106E6000C8BF0130BCF1020F3FF4DEAD92F9021051
:106E700011F1410FC8BF013002B0BDE8000FF0BDF5
:106E800080B56F46A2B000788C469DF8863000F041
:106E90000F0202F157010A2A38BF02F130018DF8C2
:106EA00087105721020901EB1011A02838BF02F109
:106EB0003001102838BF19468DF886104FF00201B6
:106EC0004FF07E0238BF0121102838BF7F2202A870
:106ED000104447F61722CDE90001C0F200026046D7
:106EE00001210223FFF7BDF922B080BD80B56F46B6
:106EF000A2B000788C469DF8863000F00F0202F1B7
:106F000037010A2A38BF02F130018DF88710372186
:106F1000020901EB1011A02838BF02F1300110283E
:106F200038BF19468DF886104FF002014FF07E02EF
:106F300038BF0121102838BF7F2202A8104447F62D
:106F40001722CDE90001C0F20002604601210223B0
:106F5000FFF787F922B080BDB0B502AFA2B00288BA
:106F60008C46002302F00F0000F157010A2838BFB9
:106F700000F13001C2F303208DF8871000F15704AF
:106F8000C2F303110A2838BF00F1300401F15700A1
:106F90000A2938BF01F13000572101EB1235110BDE
:106FA0000A2938BF01F130059DF884E09DF885106D
:106FB000B3EB121F05D0B2F5807F07D27E230222E9
:106FC0000EE07F239DF88600012209E0B2F5805F84
:106FD00002D27D23032202E07C230422AE46214616
:106FE0008DF8860002A81844CDE9000247F6172262
:106FF0008DF88510C0F200026046012102238DF851
:1070000084E0FFF72EF922B0B0BDB0B502AFA2B058
:1070100002888C46002302F00F0000F137010A2895
:1070200038BF00F13001C2F303208DF8871000F162
:107030003704C2F303110A2838BF00F1300401F10C
:1070400037000A2938BF01F13000372101EB123532
:10705000110B0A2938BF01F130059DF884E09DF835
:107060008510B3EB121F05D0B2F5807F07D27E23C7
:1070700002220EE07F239DF88600012209E0B2F58E
:10708000805F02D27D23032202E07C230422AE46ED
:1070900021468DF8860002A81844CDE9000247F683
:1070A00017228DF88510C0F20002604601210223EC
:1070B0008DF884E0FFF7D5F822B0B0BDB0B502AFCF
:1070C000A2B08C4601680DF1080E8023812001F0EA
:1070D0000F0202F157040A2A38BF02F130040EEB06
:1070E000000202F8024C0C0929D004F00F0404F14C
:1070F00057050A2C38BF04F130050C0A02F8035C6E
:107100001FD004F00F04043804F157050A2C38BFCF
:1071100004F130050C0B02F8045C15D004F00F04E8
:10712000043B04F157050A2C38BF04F13005090C63
:1071300002F8055CCBD1411E0346084605E0023843
:1071400003E0013B033800E0023BC3F1810147F655
:1071500017227044C0F20002CDE90001604601210F
:107160000223FFF77EF822B0B0BDB0B502AFA2B0E7
:107170008C4601680DF1080E8023812001F00F027A
:1071800002F137040A2A38BF02F130040EEB000284
:1071900002F8024C0C0929D004F00F0404F1370561
:1071A0000A2C38BF04F130050C0A02F8035C1FD02A
:1071B00004F00F04043804F137050A2C38BF04F139
:1071C00030050C0B02F8045C15D004F00F04043BEE
:1071D00004F137050A2C38BF04F13005090C02F818
:1071E000055CCBD1411E0346084605E0023803E0AA
:1071F000013B033800E0023BC3F1810147F617224F
:107200007044C0F20002CDE9000160460121022372
:10721000FFF727F822B0B0BD80B56F4684B0027882
:10722000642A10D329205043030B642003FB102051
:1072300047F61922C0F20002C0B232F8100027F857
:10724000020C002003E00A2A06D20220134643F073
:107250003002FB1E1A5408E047F61920C0F2000065
:1072600030F8120027F8020C012080F00302FB1E08
:1072700018440023CDE90002084601210122FEF74F
:10728000F0FF04B080BD80B56F4684B0008842F244
:1072900010738C4698421ED3020940F24731514385
:1072A000CA0C02FB130041F27B4381B289085943A7
:1072B0006423490C01FB130047F61923C0F20003B5
:1072C00033F8111027F8041C80B233F810000123A2
:1072D00027F8020C20E047F619226428C0F20002C9
:1072E00016D3810841F27B4359436423490C01FBC7
:1072F0001300032380B232F8100027F8020C08466E
:107300000A2808D3023B32F81000791FC85208E05F
:1073100005230A28F6D20246013B791F42F03000CD
:10732000C854C3F10500194401220023CDE900101F
:1073300060460121FEF795FF04B080BDF0B503AFB4
:107340002DE9000F87B0046847F6192042F2107E3D
:107350000D467445C0F200003DD341F259784EF21B
:10736000FF03A7F1260B0021CDF2B71841F27B49AC
:107370004FF0640AC0F2F5530395A4FB08250BEB0C
:10738000010C04399C424FEA553202FB1E4514465B
:10739000AEB24FEA960606FB09F64FEA564606FBE2
:1073A0001A5530F81660ACF80660ADB230F81550DA
:1073B000ACF80850E1D8039D01F10A031446632C90
:1073C0000CD821460A291BD330F811009A1EA7F1C8
:1073D000260188521AE00A23632CF2D9A1B241F2A5
:1073E0007B428908023B51436422A7F12606490CDF
:1073F00001FB124292B230F81220F2520A29E3D273
:1074000041F030005A1EA7F126018854C2F10A004B
:10741000114401220023CDE9001028460121FEF786
:1074200020FF07B0BDE8000FF0BDD0E90002D26830
:1074300010470B46D0E900121846FFF795B880B503
:107440006F468CB0CDE90001002047F60831069068
:107450000220C0F200010390059008A8029101A942
:10746000049047F23D30C0F20000CDE90901114619
:107470000B906846089002A8FEF721FBF0B503AF19
:107480002DE90007102A1ED3434203F0030800EB46
:107490000803834233D9A8F1010CB8F1000F064666
:1074A0000D461AD00D46064615F801EBB8F1010F4E
:1074B00006F801EB11D04E78B8F1020F467008D1F2
:1074C0008D1C861C09E084460CEB02039C453ED3D0
:1074D0006AE08E78CD1C8670C61CBCF1030F0ED3FB
:1074E000043D043E15F8044F06F8044F6C787470A0
:1074F000AC78B470EC78F470341D9C42F2D1A2EBFD
:10750000080E41442EF0030203EB020C8C0758D105
:10751000634515D20C46256843F8045B63450FD2DA
:10752000656843F8045B63453EBFA56843F8045BA8
:10753000634505D2E568103443F8045B6345EAD33C
:1075400011440EF003020CEB02039C452CD212F006
:107550000304A2F1010E13D00E46654616F8012B66
:10756000012C05F8012B0DD04A78022C8CF8012053
:107570001DD18E1C0CF10205BEF1030F05D213E0E4
:1075800065460E46BEF1030F0ED3311F2A1F11F8B8
:10759000046F02F8046F4E7856708E789670CE782D
:1075A000D670161D9E42F2D1BDE80007F0BDCE1C7C
:1075B0000CF103058A788CF80220BEF1030FE4D2A7
:1075C000F2E76345BCD2182421F0030604EAC1089F
:1075D000CC00C4F10009346806F1080509F0180967
:1075E00055F8046C24FA08FA06FA09F444EA0A0485
:1075F00043F8044B6345A3D22C6826FA08FA04FA30
:1076000009F646EA0A0643F8046B63453FBF6E6815
:1076100024FA08FA06FA09F444EA0A043CBF43F8DB
:10762000044B6345BFF48CAFAC6826FA08FA1035FA
:1076300004FA09F646EA0A0643F8046B6345CFD319
:107640007EE780B56F46042914D3A1F1040C012212
:1076500002EB9C0212F003030ED04FF0000E024624
:1076600042F804EB012B0BD110466146BCF10C0F24
:1076700019D222E0024620E0BCF10C0F13D21CE02C
:10768000022BC0F804E006D1083908300246BCF1EC
:107690000C0F08D211E000220C3982600C30024637
:1076A000BCF10C0F09D3002302461039C2E90033A4
:1076B000C2E9023310320329F7D85018824222D28D
:1076C00011F0030CA1F101010ED04FF0000E134692
:1076D00003F801EBBCF1010F0BD0BCF1020F82F8F3
:1076E00001E003D1931C04E0134602E000239370F1
:1076F000D31C032938BF80BD191F002241F8042F75
:107700000B1D8342FAD180BDFFF7B8BEFEE7D4D48B
:10771000000000000800000004000000C143000059
:1077200041420000D94200004572726F7228290060
:10773000000000000400000004000000D741000029
:10774000466D744572726F72000000000400000004
:1077500004000000AB4100004F7468657200000037
:10776000000000000800000004000000C143000009
:1077700041420000D94200007372632F63616E2E94
:1077800072730000787700000A00000048000000D3
:1077900013000000787700000A000000500200008B
:1077A00015000000000000000400000004000000BC
:1077B0007344000000000000010000000100000010
:1077C000FF41000000000000080000000100000070
:1077D000E742000000000000040000000400000078
:1077E000BF4100004672616D656964646C637472C8
:1077F00075652020202064617461747378770000BF
:107800000A000000520000000100000076616C7563
:1078100065206F7574206F6620626F756E647320CB
:107820005B302C20323034375D0000000C780000D3
:107830001D0000004D61696C626F784964000000B2
:10784000000000000100000001000000BB4100003A
:10785000494445525452000000000000020000005C
:1078600002000000154200005349440000000000DF
:1078700004000000040000002B420000454944457C
:1078800072726F720A48656C6C6F2066726F6D2041
:107890005241344D31210A7372632F6D61696E2E2E
:1078A0007273000043414E20696E697469616C69AE
:1078B0007A65640A526563656976656420667261FB
:1078C0006D653A2072616E676520656E6420696E31
:1078D000646578200A000000B47800001000000001
:1078E000D47800000100000000000000000000004B
:1078F00001000000EF41000063616C6C6564206072
:10790000526573756C743A3A756E77726170282996
:1079100060206F6E20616E2060457272602076611B
:107920006C756500977800000B00000051000000A6
:107930002300000000000000010000000100000022
:1079400081430000977800000B0000004F0000000A
:1079500012000000977800000B0000004A000000B1
:1079600020000000000000000000000001000000F6
:1079700021450000977800000B0000003C0000004B
:1079800028000000977800000B000000370000007E
:107990003600000029696E646578206F7574206F69
:1079A0006620626F756E64733A20746865206C653A
:1079B0006E206973205B206275742074686520698D
:1079C0006E646578206973209579000020000000BE
:1079D000B6790000120000003A200000010000000B
:1079E00000000000D8790000020000000000000044
:1079F0000C000000040000005B5B0000F15D000073
:107A0000D1600000207B202C20207B0A2C0A7D20C6
:107A10007D28280A2C0A5D30783030303130323001
:107A2000333034303530363037303830393130312A
:107A3000313132313331343135313631373138311A
:107A40003932303231323232333234323532363208
:107A500037323832393330333133323333333433EE
:107A600035333633373338333934303431343234D4
:107A700033343434353436343734383439353035BA
:107A800031353235333534353535363537353835AA
:107A90003936303631363236333634363536363698
:107AA000373638363937303731373237333734377E
:107AB0003537363737373837393830383138323864
:107AC000333834383538363837383838393930394A
:107AD000313932393339343935393639373938393A
:107AE0003966616C7365206F7574206F66207261F2
:107AF0006E676520666F7220736C696365206F66C0
:107B0000206C656E67746820C47800001000000067
:087B1000E67A000022000000EB
:04000003000040C1F8
:00000001FF
