:1040000000800020C1400000FF86000095A900004C
:10401000FF860000FF860000FF8600000000000011
:10402000000000000000000000000000FF8600000B
:10403000FF86000000000000FF860000FF860000F1
:10404000F54A0000654B0000FF860000FF86000077
:10405000FF860000FF860000FF860000FF8600004C
:10406000FF860000FF860000FF860000FF8600003C
:10407000FF860000FF860000FF860000FF8600002C
:10408000FF860000FF860000FF860000FF8600001C
:10409000FF860000FF860000FF860000FF8600000C
:1040A000FF860000FF860000FF860000FF860000FC
:1040B000FF860000FF860000FF860000FF860000EC
:1040C00004F01FFB0E480F490022814201D004C0BA
:1040D000FBE70D480D490E4A814202D008CA08C0CC
:1040E000FAE70C484FF47001026842EA01020260EC
:1040F000BFF34F8FBFF36F8F03F032FD00DE000080
:104100000000002018000020000000200000002017
:10411000D8BD000088ED00E080B56F4682B0019008
:1041200038B9FFE74AF69810C0F200005D2104F0AC
:104130006AFD02B080BD80B56F4684B000910190E9
:1041400002900391FFE7009B01980122114604F0C1
:1041500055FAFFE70099019804B080BD83B0009143
:10416000014600980190029208604A600020886031
:1041700003B070478AB000910190039004910591BB
:10418000069007910890FFE701980099099008446C
:104190000290FFE7019802990AB070478AB0009137
:1041A0000190039004910591069007910890FFE714
:1041B00001980099099008440290FFE7019802993C
:1041C0000AB070478FB000900590012006900790CC
:1041D000FFE70098011D089141680391099003A928
:1041E0000A9100680399401AB0FA80F040098DF8EE
:1041F0000B00FFE79DF80B00C00720B9FFE7009810
:104200000068049002E0002001900DE00099081D74
:104210000B900C9008680D9001300860FFE704A82F
:104220000E9004980190FFE701980FB0704780B599
:104230006F4682B000900191006800F0F0FD02B07E
:1042400080BD83B000910146009801900292086001
:10425000022048604AF6F810C0F200000368406887
:104260000B6148618A600120C86003B0704782B06A
:104270000090019102B0704780B56F46ADF5727D38
:1042800014901B9000201890ADF86800BDF86800ED
:1042900000F00DFE0120ADF86A00BDF86A0000F0E4
:1042A00006FE149918981D9146F20031C4F20001DF
:1042B00000918C9103F078FB0146189803F09FFB66
:1042C000189903F086FB8D908B908BA801F0CDFBA5
:1042D000014600980968BF90C091C19004F0AFFA00
:1042E000149918981C9146F20431C4F2000101910E
:1042F000779103F059FB0146189803F080FB189959
:1043000003F067FB7890769076A801F0DFFB01461A
:1043100001980968C890C991CA9004F090FA14985D
:10432000259047F20000C4F2040003909090AF90F3
:10433000B09004F0EBF90146189802919191929196
:104340008E9103F031FB0146029803F058FB189957
:1043500003F03FFB93908F908EA88FA901F0E7FBAD
:10436000014603980968BC90BD91BE9004F067FABD
:10437000149918982E914021C4F20701099159917E
:104380005C915A91022104915B914221C4F2070190
:1043900006915D91899103F0DEFA0146189803F0C9
:1043A0001EFB189903F005FB8DF82B028DF82302F4
:1043B0000DF2232001F0FAFB014606980978D4900B
:1043C00007F8711CD69004F025FA04990698099A0A
:1043D000149B2D9354925792559256915890A790B2
:1043E000B190B29003F08AFA0146189805918DF8C1
:1043F000A1128DF8A2128DF89A1203F0ACFA0146C0
:10440000059803F0ECFA189903F0D3FA8DF8A3029B
:104410008DF89B020DF29A200DF29B2101F0D3FB47
:10442000014606980978D19007F87D1CD39004F0D6
:10443000F1F9149918982C914921C4F207010791B8
:104440007F9103F088FA0146189803F0C8FA18998A
:1044500003F0AFFA8DF802028DF8FB010DF2FB10AC
:1044600001F0F3FB014607980978DD9007F84D1C31
:10447000DF9004F0CFF9149918982B914D21C4F2D4
:10448000070108916C9103F066FA0146189803F051
:10449000A6FA102103F08DFA8DF8B7018DF8AF015F
:1044A0000DF2AF1001F00FFC014608980978E99071
:1044B00007F81D1CEB9004F0ADF90999149A1898AF
:1044C0002A925E9162915F9160906191839103F075
:1044D00042FA0146189803F082FA189903F069FA33
:1044E0008DF813028DF80B020DF20B2001F0CCFCBD
:1044F000014609980978D79007F8651CD99004F00F
:1045000089F91499189829914621C4F207010A9152
:10451000649103F020FA0146F22003F060FA189942
:1045200003F047FA8DF896018DF88F010DF28F1088
:1045300001F0F7FD01460A980978EF9007F8051C8D
:10454000F19004F067F91499189828914721C4F262
:1045500007010B917D9103F0FEF90146189803F0D5
:104560003EFA189903F025FA8DF8FA018DF8F30157
:104570000DF2F31001F0B4FE01460B980978E090BB
:1045800007F8411CE29004F045F914991898279116
:104590004121C4F207010C91819103F0DCF901463D
:1045A000FF2003F01CFA189903F003FA8DF80A02B1
:1045B0008DF803020DF2032001F09FFE01460C98D6
:1045C0000978DA9007F8591CDC9004F023F9149963
:1045D000189826915C21C4F207010D91669103F0B1
:1045E000BAF90146032003F0FAF9189903F0E1F94A
:1045F0008DF89F018DF897010DF2971001F0AEFE36
:1046000001460D980978EC9007F8111CEE9004F023
:1046100001F914991898309140F60351C4F204013D
:104620000F91729103F097F9014680200E9003F0EC
:10463000D6F9189903F0BDF98DF8CE018DF8C701B0
:104640000DF2C71001F0FCFE01460F980978E690C4
:1046500007F8291CE89004F0DDF80F99149A1898CF
:104660002F92749103F077F901460E9803F0B7F991
:10467000189903F09EF98DF8D7018DF8CF010DF24E
:10468000CF1001F01CFF01460F980978E39007F85E
:10469000351CE59004F0BEF814991898249140F662
:1046A0000001C4F2040115913B913F913C91C4215A
:1046B00010913D9140F6C401C4F2040112913E9163
:1046C0006F9103F071F90146189803F098F9189961
:1046D00003F07FF970906E906EA801F02EFF0146F6
:1046E00012980968CB90CC91CD9004F0A8F8109A5C
:1046F0001299DDF850C0159B1898CDF88CC03693F0
:104700003A93379338923991699103F04DF9014604
:10471000189803F074F9189903F05BF96A9068909F
:1047200068A801F015FF014612980968CE90CF9154
:10473000D09004F084F810991298149B159A229343
:1047400031923592329233913490A290A990AA90EE
:1047500003F0DCFF014618981191A391A491A09158
:1047600003F022F90146119803F049F9189903F072
:1047700030F9A590A190A0A8A1A901F020FF0146C1
:1047800012980968B390B491B59004F058F8149A4F
:104790001599189821924F9153915091C8211691D3
:1047A000519140F6C801C4F20401199152918691C9
:1047B00003F0FAF80146189803F021F9189903F06C
:1047C00008F98790859085A801F038FF014619986F
:1047D0000968C290C391C49004F031F8DDF850C06C
:1047E000159B169A18981999CDF880C04A934E9344
:1047F0004B934C924D917A9103F0D6F8014618985C
:1048000003F0FDF8189903F0E4F87B90799079A80B
:1048100001F01FFF014619980968C590C691C7901D
:1048200004F00DF8149B159A169919981F93459248
:1048300049924692479148909690AD90AE9003F081
:1048400065FF01461898139197919891949103F000
:10485000ABF80146139803F0D2F8189903F0B9F8B1
:104860009990959094A895A901F066FF0146199832
:104870000968B990BA91BB9003F0E1FF149B159AB7
:10488000169919981E9340924492419242914390F6
:104890009C90AB90AC9003F039FF014618981791AB
:1048A0009D919E919A9103F07FF80146179803F02D
:1048B000A6F8189903F08DF89F909B909AA89BA951
:1048C00001F06CFF014619980968B690B791B8904D
:1048D00003F0B5FF0DF5727D80BD80B56F4696B0D3
:1048E0000290059001F0BAF80299A7F145000790EF
:1048F0004020C4F2070008900B90099002200A9013
:104900004220C4F2070003900C900E900F9111907A
:10491000129002F0F3FF009007F8170C07F8160C3E
:1049200007F8220C0020019003F015F801460098CA
:1049300003F055F8019903F03CF80146029807F896
:10494000151C07F8211CA7F12201A7F1210201F093
:1049500064FF014603980978139007F8051C159029
:1049600003F058FF16B080BD80B56F46C2B00E9000
:104970000F9113901491024606920A4607921190E5
:10498000129100200890FFE7012007F8E20C01F0E7
:1049900065F8A7F1E100039018902021C4F204010A
:1049A000059128912B912991002004902A902C9117
:1049B000309102F0F3FF0146049803F018F80499CF
:1049C00002F0FFFFADF8C40027F84A0CA7F14A0037
:1049D00002F006F80146059809883C9027F8121C59
:1049E0003E9003F002FF069907980A910B9008A8E1
:1049F0000C90A7F1E2000D900AA803F08EF8039A3C
:104A00000498059917922391269124912590279136
:104A10002E9102F0C3FF0146049802F0E8FF0499CA
:104A200002F0CFFFADF8BC0027F8520CA7F15200FE
:104A300002F05DF80146059809883F9027F8061CAA
:104A4000419003F0D2FE17F8E20CC00700284FD1C6
:104A5000FFE7A7F1E100009016902021C4F20401C5
:104A600002911E9121911F9100200190209022918E
:104A7000329102F093FF0146019802F0B8FF0199CC
:104A800002F09FFFADF8CC0027F8420CA7F14200DE
:104A900002F03AF8014602980988399027F81E1C5E
:104AA0003B9003F0A2FE009A019802991592199189
:104AB0001C911A911B901D91349102F06FFF0146D9
:104AC000019802F094FF019902F07BFF27F8320C65
:104AD00027F83A0CA7F13A0002F024F801460298B0
:104AE0000988369027F82A1C389003F07EFE4BE7A1
:104AF00042B080BD80B56F4600F001F880BD80B542
:104B00006F4690B000F0AAFFA7F13100049046F282
:104B10000030C4F20000029007900B900C9003F05C
:104B2000F5FD00900890099005900020019002F09A
:104B30003BFF0146009802F062FF019902F049FF35
:104B40000A90069005A806A901F0F9FF014602980F
:104B500009680D900E910F9003F071FE02F0F0FFC6
:104B600010B080BD80B56F4600F001F880BD80B503
:104B70006F46A0B000F072FFA7F16A00069046F2FF
:104B80000430C4F2000001900F901690179003F0CB
:104B9000BDFD0090109011900D900020039002F048
:104BA00003FF0146009802F02AFF039902F011FF6B
:104BB00012900E900DA80EA902F0D3F901460198AB
:104BC00009681A901B911C9003F039FE00F046FF13
:104BD000A7F1690007904020C4F2070008900B90ED
:104BE000099002200A904220C4F2070004900C9021
:104BF00014901890199002F081FE014603980291DA
:104C000007F82B1C07F82A1C07F8321C02F0A3FE39
:104C10000146029802F0E3FE039902F0CAFE07F88B
:104C2000290C07F8310CA7F13200A7F1310102F08D
:104C3000D7F90146049809781D9007F8051C1F90C4
:104C400003F0E8FD02F059FF20B080BD80B56F464B
:104C500003F069FF80BD80B56F468AB00093019272
:104C60000291039004900591069207900892904259
:104C700001D8FFE704E0009A0199039804F0A6FE2A
:104C8000019A0398114603F08FFCFFE70298039AFC
:104C90000199891A099110440AB080BD80B56F4608
:104CA00096B0019202910390059006910792802898
:104CB00005D3FFE70398B0F5006F0BD305E001982B
:104CC00001210491002867D116E00398B0F5803FD8
:104CD0000CD305E001980221049101284DD80BE086
:104CE000019804210491032811D805E001980321BB
:104CF000049102282CD8FFE7019A03980499119196
:104D000012924AF67C23C0F2000305F0CEF8029915
:104D1000039808914A1C09928A1C0A92CA1C0B9299
:104D2000820C1E2363F3DF020A70030B022262F37C
:104D30009F134B70830962F39F138B7062F39F1074
:104D4000C870FFE70298149004980090159028E02E
:104D5000029903980C914A1C0D928A1C0E92020B28
:104D60000E2363F31F120A708309022262F39F135A
:104D70004B7062F39F108870E4E7029903980F91DB
:104D80004A1C10928209062363F35F120A70022202
:104D900062F39F104870D5E7039802991391087049
:104DA000D0E7009B02980122114603F027FCFFE7A1
:104DB0000099029816B080BD80B56F4686B001900C
:104DC00002910392FFF76AFF0490059106B080BD3F
:104DD00080B56F4682B0019000F002F802B080BD4D
:104DE00083B000900290802805D3FFE70098B0F5CB
:104DF000006F08D302E0012001900DE00098B0F5AB
:104E0000803F06D302E00220019005E004200190DB
:104E100002E003200190FFE7019803B0704780B5DE
:104E20006F4686B00191029004900591087DC006FE
:104E3000002806D4FFE70198007D8006002807D5EA
:104E40000DE00199029805F0E8F807F8090C0EE06A
:104E50000199029805F00EFB07F8090C06E001998C
:104E6000029805F010F907F8090CFFE7FFE717F8BB
:104E7000090C00F0010006B080BD80B56F4682B01D
:104E80000090019104F08FFD02B080BD80B56F46A7
:104E900084B0019101460198029103904AF68C2159
:104EA000C0F20001052204F0D1FC04B080BD80B541
:104EB0006F468CB0ADF8100027F8020C37F8020CE2
:104EC0000146029127F81E0C400927F8120C0146F2
:104ED00003910F2810D8FFE70298039A4EF20011B1
:104EE000CEF2000101EB8201009100F01F000146AB
:104EF0000191202808D316E003984AF6F822C0F260
:104F00000002102103F096FE0098019901F01F02A3
:104F10000121914005900691089009910A9003F0B3
:104F20008EFC0CB080BD4AF60830C0F2000005F0DF
:104F30003BF880B56F4682B000900191006800F0A8
:104F40004AF902B080BD80B56F4686B000920191EB
:104F50000290039004910592FFE70099029803F0F4
:104F60003CFBFFE701980299084406B080BDF0B50C
:104F700003AF4DF8048DB8B0009104900A911091E0
:104F80004EF22000C4F201001B902A902B9003F0F7
:104F9000BDFB00991C90069006A8149036909DF8D1
:104FA0001B2002F0070207F8672C07F8D22CA7F1A4
:104FB000D202249217F8D28C07F8C18C1390379044
:104FC000069AC2F3027207F86B2C07F8D12CA7F1EE
:104FD000D102279217F8D16C8DF83060159035907A
:104FE000069AC2F3023207F8692C8DF8202008AA2D
:104FF00026929DF8205007F8BF5C169034909DF8DB
:10500000192002F0070207F8652C07F8CF2CA7F14A
:10501000CF02299217F8CF4C07F8BE4C1790339067
:105020009DF81820C2F3021207F86A2C07F8CE2C5C
:10503000A7F1CE02239217F8CE2C059207F8BD2CCB
:10504000189032909DF8180000F007008DF8880045
:1050500007F8CD0CA7F1CD00259017F8CD0C0190E5
:105060008DF834000F914EF22600C4F201001D901D
:105070002C902D9002F042FC009907F8750C07F86F
:10508000CB0CA7F1CB001290319017F8CB0C00F0AD
:10509000070007F8660C8DF8240009A828909DF8F1
:1050A0002400029007F8BB0C0E914EF23600C4F2B9
:1050B000010019902E902F9002F020FC07F8850C2B
:1050C00007F8CA0CA7F1CA001190309017F8CA0C63
:1050D00000F001008DF8840007F8C90CA7F1C900A1
:1050E0001F90209017F8C90C00F00100039007F8FA
:1050F000BA0C4EF23700C4F2010002F0FFFBDDF8FB
:1051000004C0029B039A0499DDF814E0C0F3C400C4
:1051100007F8B90C81F80280CE700D714C7181F8DE
:1051200006E081F807C00B720A70487038B05DF86D
:10513000048BF0BDF0B503AF4DF8048D9AB0039128
:1051400080460398CDF8548016904AF64433C0F256
:105150000003179308F1020108F1030608F10405A2
:1051600008F1050408F1060E08F1070C08F1080221
:10517000CDF8508004914AF68431C0F200010591C7
:1051800006960791089509910A940B91CDF830E0A5
:105190000D91CDF838C00F911092119114A9129170
:1051A0004AF69431C0F2000113910DF1100CCDF8C4
:1051B00060C0082119916A469160C2F804C011606C
:1051C0004AF6A431C0F20001062204F08FFB1AB0A7
:1051D0005DF8048BF0BD80B56F468CB00891034636
:1051E00008980A930B90591C09914AF6C831C0F2ED
:1051F00000016A46916109A95161052111614AF6D0
:10520000C03CC0F2000CC2F80CC04AF6B03CC0F280
:10521000000CC2F808C0536011604AF61C31C0F29D
:1052200000014AF6AA33C0F20003042204F012FB84
:105230000CB080BD80B56F4690B0029103901346CC
:1052400004930B900C9107F8092C4AF60440C0F225
:1052500000000E904FF0553000EA5100081A4FF050
:10526000333101EA900120F0CC30084400EB1010FB
:1052700020F0F0304FF001314843000E0F900F98AE
:10528000012808D1FFE703980299024601920139EB
:1052900008421AD01DE04AF60440C0F20000059012
:1052A000012006904AF6F810C0F20000016840683C
:1052B00009910A9004200790002008904AF6F041D6
:1052C000C0F2000105A803F06CFC0498C00720B9E7
:1052D00000E003E0019840B900E006E04AF60C4027
:1052E000C0F200006E2103F08EFC10B080BD80B5CE
:1052F0006F4682B000900191FEF73CFF02B080BD86
:1053000080B56F468EB004900990FEF75BFF089061
:10531000089818B9FFE70020069010E00498089953
:105320000B910791079901910C91816802910D9160
:105330008168481C0246039288420CD303E005981A
:1053400006990EB080BD01980299039A049B9A6059
:1053500005910690F3E74AF68050C0F2000004F091
:10536000EAFD0B46014618685A689B688B604A60E4
:105370000860704780B56F4688B001900A46029277
:10538000049007F80A1CFFE701988068072814D8E2
:10539000FFE7019800F0FDF8019800F06DF8014674
:1053A0000298069107F8010C07F8090C17F8090C88
:1053B0000870002007F8120C06E0029807F8110C9C
:1053C000012007F8120CFFE717F8120C17F8111C50
:1053D00008B080BD80B56F4698B004901790806883
:1053E00078B9FFE74AF63461C0F2000105A80390DE
:1053F00003F09EFB03984AF63C61C0F2000103F003
:10540000D0FB0498806809280FD3FFE74AF6206193
:10541000C0F200010BA8029003F08AFB02984AF642
:105420004C61C0F2000103F0BCFB0498C06808287E
:105430000FD3FFE74AF6A451C0F2000111A8019072
:1054400003F076FB01984AF65C61C0F2000103F0BC
:10545000A8FB0498C0680090072805D8FFE70498C7
:105460000099084418B080BD00984AF66C62C0F2FA
:105470000002082103F0DEFB80B56F469CB0079068
:105480001A90806878B9FFE74AF63461C0F20001EB
:1054900008A8069003F04CFB06984AF67C61C0F21F
:1054A000000103F07EFB0798806809280FD3FFE70F
:1054B0004AF62061C0F200010EA8059003F038FB07
:1054C00005984AF68C61C0F2000103F06AFB079868
:1054D000C06808280FD3FFE74AF6A451C0F20001C4
:1054E00014A8049003F024FB04984AF69C61C0F2CF
:1054F000000103F056FB07998868C9680291411EB4
:10550000039158B1FFE703990298082201F030FE99
:10551000014601911B90082806D30AE04AF6AC60C8
:10552000C0F2000004F01AFD0798019908441CB06D
:1055300080BD01984AF6BC62C0F20002082103F067
:1055400079FB80B56F468AB002900990806878B97F
:10555000FFE74AF6D861C0F2000103A8019003F00A
:10556000E7FA01984AF6E061C0F2000103F019FB86
:1055700002988068411E009128B1FFE700980299C7
:1055800088600AB080BD4AF6F060C0F2000004F006
:10559000E5FC80B56F4692B00490119080680928B0
:1055A0000FD3FFE74AF62061C0F2000105A803907F
:1055B00003F0BEFA03984AF60071C0F2000103F04E
:1055C000F0FA0498806808280FD3FFE74AF628719C
:1055D000C0F200010BA8029003F0AAFA02984AF662
:1055E0003071C0F2000103F0DCFA04988168481CB5
:1055F00002460192884205D3FFE70198049988602A
:1056000012B080BD4AF64070C0F2000004F093FC76
:1056100081B000908068B0FA80F0400901B0704716
:1056200080B56F468AB002900990C06808280FD3F1
:10563000FFE74AF6A451C0F2000103A8019003F06D
:1056400077FA01984AF65071C0F2000103F0A9FA06
:105650000298C0680121082201F08AFD0299C86001
:105660000AB080BD80B56F4688B002900490FFE715
:105670000298806820B9FFE7002007F8120C16E0B6
:105680000298FFF7A7FE0146029806910791097854
:10569000019107F8091CFFF754FF0298FFF7C0FFBC
:1056A000019807F8110C012007F8120CFFE717F812
:1056B000120C17F8111C08B080BD87B00190029041
:1056C0004FF40061ADF80E100490ADF81610018093
:1056D000069007B0704787B0019002904FF40061C8
:1056E000ADF80E100490ADF816100180069007B0CA
:1056F000704780B56F469CB00A900E901090159040
:10570000A520019007F8160C15980090189002F04B
:10571000ECFE0821029102F0B8F902F03FF90146CF
:10572000009802F09DF9019815990391179107F8D7
:10573000150C02F0DAFE0146019802F058F90299C0
:1057400002F0A3F90146039802F06AF9159A0D9246
:105750000F920C920120069007F8410C17F8411C9B
:10576000119201F0010107F8261C07F8251C17F813
:10577000251C139201F00101059107F81E1C1399D5
:1057800004911A910021079102F07FF902F006F9C5
:105790000146049802F064F905980699139A089254
:1057A000199207F81D0C02F022F9079902F06DF921
:1057B0000146089802F034F913981B901CB080BD84
:1057C00080B56F4692B00590069109910A910891B3
:1057D000002007F8290C17F8290C0B9107F8160C74
:1057E00007F8150C17F8150C01900D9107F80E0C21
:1057F0000D980090109002F07EFE0821029102F0B8
:1058000061F902F0D1F80146009802F034F90198EC
:105810000D9903910F9107F80D0C02F06CFE0146F3
:10582000019802F0ECF8029902F04CF90146039855
:1058300002F001F90D98119012B080BD80B56F464D
:10584000A0B002460A920F9211920C92012002908F
:1058500007F8510C17F8511C139201F0010107F8D9
:105860002E1C07F82D1C17F82D1C159201F00101B4
:10587000019107F8261C159900911E9107210391AB
:1058800002F06FF802F067F80146009802F0DDF8C8
:1058900001980299159A04921D9207F8250C02F0BE
:1058A0009EF8039902F05DF80146049802F0ADF805
:1058B0001599109112910E91022007F8490C17F8D2
:1058C000490C179107F81E0C07F81D0C17F81D0C52
:1058D0000690199107F8160C199805901C9002F083
:1058E00000FE0421079102F03CF802F034F8014672
:1058F000059802F0AAF80698199908911B9107F8E3
:10590000150C02F0EEFD0146069802F068F80799C2
:1059100002F027F80146089802F077F819981F90CE
:1059200020B080BD87B001900290002103910490C7
:1059300005910160069007B0704780B56F4690B042
:10594000014606910791089109910920029007F8F4
:10595000160C07F8150C0B9107F80E0C0B9801901C
:105960000E9002F0C4FD1821039102F0ABF802F092
:105970001BF80146019802F07EF802980B990491F9
:105980000D9107F80D0C02F0B2FD0146029802F0ED
:1059900036F8039902F096F80146049802F04BF8A5
:1059A0000B980F9010B080BD80B56F4694B00A463A
:1059B000079008920B920C920A920120039007F82C
:1059C000290C17F8291C0D9201F0010107F8161C8B
:1059D00007F8151C17F8151C0F9201F00101029130
:1059E00007F80E1C0F99019112911021049102F0F9
:1059F00069F801F0D9FF0146019802F03CF80298DD
:105A000003990F9A0592119207F80D0C01F0F7FF18
:105A1000049902F057F80146059802F00CF80F9827
:105A2000139014B080BD87B0019002904FF40061D4
:105A3000ADF80E100490ADF816100180069007B076
:105A4000704787B0019002900021ADF80E100490CD
:105A5000ADF816100180069007B0704740F21401AF
:105A6000C2F2000101200870704780B56F468EB009
:105A70000690079008900990A420029007F80E0C59
:105A8000099801900C9002F034FD0021039102F07E
:105A900019F801F089FF0146019801F0ECFF029826
:105AA000099904910B9107F80D0C02F022FD0146B3
:105AB000029801F0A4FF039902F004F8014604984B
:105AC00001F0B9FF09980D900EB080BD80B56F460A
:105AD0008EB00690079008900990A520029007F8D4
:105AE0000E0C099801900C9002F003FD0021039127
:105AF00001F0E8FF01F058FF0146019801F0BBFFFB
:105B00000298099904910B9107F80D0C02F0F1FC31
:105B10000146029801F073FF039901F0D3FF01469B
:105B2000049801F088FF09980D900EB080BD80B5F3
:105B30006F4694B0079008910B910C910A91002048
:105B400007F8290C17F8290C0D9100F0010007F84F
:105B5000160C07F8150C17F8150C0F9100F0010042
:105B6000029007F80E0C0F980190129001200390FC
:105B70001D21049101F0A6FF01F016FF01460198D6
:105B800001F079FF029803990F9A0592119207F894
:105B90000D0C01F034FF049901F094FF01460598C3
:105BA00001F049FF0F98139014B080BD87B00190A9
:105BB000029000218DF80F1004908DF817100170DD
:105BC000069007B0704780B56F4692B00590069179
:105BD00009910A9108910020029007F8290C17F802
:105BE000290C0B9100F0010007F8160C07F8150CB2
:105BF00017F8150C0D9100F00100019007F80E0C3C
:105C00000D980090109002F06EFC029901F0A9FE30
:105C100001F0A1FE0146009801F017FF01980D99CF
:105C200003910F9107F80D0C02F05DFC01460198FD
:105C300001F0D5FE029901F094FE0146039801F0AF
:105C4000E4FE0D98119012B080BD80B56F4692B001
:105C50000246069209920A9208920021039107F8DF
:105C6000291C17F8290C0B9200F0010007F8160CFC
:105C700007F8150C17F8150C0D9200F001000190B3
:105C800007F80E0C0D98009010900120029001F082
:105C900068FE01F060FE0146009801F0D6FE019812
:105CA00002990D9A04920F9207F80D0C01F097FEDD
:105CB000039901F056FE0146049801F0A6FE0D98E6
:105CC000119012B080BD80B56F46BCB001461291F4
:105CD0001C912291169100200B9007F8990C17F84F
:105CE000990C279100F0010007F84E0C07F84D0CB5
:105CF00017F84D0C299100F00100019007F8460CAF
:105D000029980090389001200E900721029101F00F
:105D100028FE01F020FE0146009801F096FE019851
:105D20000E99299A0392379207F8450C01F057FE15
:105D3000029901F016FE0146039801F066FE0B99E8
:105D40000E98299A1E9220921A9207F8891C17F829
:105D5000891C2B9201F0010107F83E1C07F83D1C3D
:105D600017F83D1C2D9201F00101059107F8361C32
:105D70002D99049136910621069101F0F2FD01F072
:105D8000EAFD0146049801F060FE05980E992D9AEF
:105D90000792359207F8350C01F021FE069901F0C3
:105DA000E0FD0146079801F030FE0B980E992D9A00
:105DB0001D921F92189207F8910C17F8910C2F92D0
:105DC00000F0010007F82E0C07F82D0C17F82D0C29
:105DD000319200F00100099007F8260C31980890E4
:105DE0003490084601F0BDFD01F0B5FD014608986C
:105DF00001F02BFE09980E99319A0A92339207F816
:105E0000250C01F0ECFD0E9901F0ABFD01460A985E
:105E100001F0FBFD0B990E98319A1B92219214927E
:105E200007F8A11C17F8A11C239201F0010107F843
:105E30005E1C07F85D1C17F85D1C259201F001013E
:105E40000D9107F8561C25990C913A9102210F915A
:105E500001F087FD01F07FFD01460C9801F0F5FD92
:105E60000D980E99259A1092399207F8550C01F069
:105E7000B6FD0F9901F075FD0146109801F0C5FDC2
:105E800025983B903CB080BD80B56F46D8B00146A8
:105E90001A912B91329126910020139007F8C90C8A
:105EA00017F8C90C479107F83E0C07F83D0C17F896
:105EB0003D0C0190499107F8360C499800904C90A0
:105EC00002F011FB139901F04CFD01F044FD014675
:105ED000009801F0BAFD0198499902914B9107F899
:105EE000350C02F000FB0146019801F078FD139992
:105EF00001F037FD0146029801F087FD139849999A
:105F000028912D911E9107F8E90C17F8E90C3391AF
:105F100000F0010007F88E0C07F88D0C17F88D0CB7
:105F2000359100F00100049007F8860C3598039035
:105F30005690012016900221059101F012FD01F00A
:105F40000AFD0146039801F080FD04981699359AE0
:105F50000692559207F8850C01F041FD059901F074
:105F600000FD0146069801F050FD13991698359AE8
:105F70002C923092249207F8D11C17F8D11C37923A
:105F800001F0010107F87E1C07F87D1C17F87D1C45
:105F9000399201F00101089107F8761C39990791AF
:105FA00054910321099101F0DCFC01F0D4FC01467D
:105FB000079801F04AFD08981699399A0A92539267
:105FC00007F8750C01F00BFD099901F0CAFC0146B8
:105FD0000A9801F01AFD13991698399A29922F926E
:105FE000209207F8E11C17F8E11C3B9201F0010137
:105FF00007F86E1C07F86D1C17F86D1C3D9201F038
:1060000001010C9107F8661C3D990B9152910521F5
:106010000D9101F0A6FC01F09EFC01460B9801F0E9
:1060200014FD0C9816993D9A0E92519207F8650C42
:1060300001F0D5FC0D9901F094FC01460E9801F099
:10604000E4FC139916983D9A2A923192229207F80D
:10605000D91C17F8D91C439201F0010107F84E1C16
:1060600007F84D1C17F84D1C459201F001011091E5
:1060700007F8461C45990F914E910621119101F0A8
:1060800070FC01F068FC01460F9801F0DEFC1098EE
:106090001699459A12924D9207F8450C01F09FFC13
:1060A000119901F05EFC0146129801F0AEFC1399C3
:1060B0001698459A27922E921C9207F8F11C17F811
:1060C000F11C3F9201F0010107F85E1C07F85D1C0E
:1060D00017F85D1C419201F00101159107F8561C5B
:1060E0004199149150910721179101F03AFC01F068
:1060F00032FC0146149801F0A8FC15981699419AB3
:1061000018924F9207F8550C01F069FC179901F0AD
:1061100028FC0146189801F078FC4198579058B037
:1061200080BD80B56F46BCB0024612921E9220928E
:106130001A920021079107F8891C17F8890C2B92F5
:1061400000F0010007F83E0C07F83D0C17F83D0C75
:106150002D9200F00100019007F8360C2D98009068
:10616000369001200E9001F0FCFB01F0F4FB01469B
:10617000009801F06AFC01980E992D9A02923592CE
:1061800007F8350C01F02BFC079901F0EAFB0146FA
:10619000029801F03AFC07990E982D9A1D922192CF
:1061A000189207F8911C17F8911C239201F0010135
:1061B00007F85E1C07F85D1C17F85D1C259201F0BE
:1061C0000101049107F8561C259903913A91022187
:1061D000059101F0C6FB01F0BEFB0146039801F0FA
:1061E00034FC04980E99259A0692399207F8550CBA
:1061F00001F0F5FB059901F0B4FB0146069801F0AA
:1062000004FC07990E98259A1C921F92169207F883
:10621000991C17F8991C2F9201F0010107F82E1C08
:1062200007F82D1C17F82D1C319201F0010109917E
:1062300007F8261C31990891349103210A9101F045
:1062400090FB01F088FB0146089801F0FEFB0998DD
:106250000E99319A0B92339207F8250C01F0BFFB8F
:106260000A9901F07EFB01460B9801F0CEFB0E98D7
:10627000319A1B922292149207F8A10C17F8A11CD4
:10628000279201F0010107F84E1C07F84D1C17F882
:106290004D1C299201F001010D9107F8461C299926
:1062A0000C91389104210F9101F05BFB01F053FB3D
:1062B00001460C9801F0C9FB0D980E99299A10928D
:1062C000379207F8450C01F08AFB0F9901F049FB62
:1062D0000146109801F099FB29983B903CB080BD95
:1062E00087B00190029000218DF80F1004908DF876
:1062F00017100170069007B0704780B56F468EB0DA
:1063000006900790089009900C20029007F80E0C58
:10631000099801900C9002F0E2F80021039101F03D
:1063200020FB01F018FB0146019801F08EFB02985A
:10633000099904910B9107F80D0C02F0D0F8014671
:10634000029801F04CFB039901F00BFB0146049805
:1063500001F05BFB09980D900EB080BD80B56F46D3
:10636000A0B002460A920F9212920C92012106915D
:1063700007F8511C17F8510C139200F0010007F8B0
:106380002E0C07F82D0C17F82D0C159200F00100BB
:10639000029007F8260C159801901E90084601F00F
:1063A000E0FA01F0D8FA0146019801F04EFB02989C
:1063B0000699159A03921D9207F8250C01F00FFB20
:1063C000069901F0CEFA0146039801F01EFB0698EB
:1063D000159A109211920E9207F8490C17F8491C61
:1063E000179201F0010107F81E1C07F81D1C17F891
:1063F0001D1C199201F00101059107F8161C19994D
:1064000004911C910221079101F0ABFA01F0A3FA6B
:106410000146049801F019FB05980699199A08920B
:106420001B9207F8150C01F0DAFA079901F099FAB6
:106430000146089801F0E9FA19981F9020B080BD34
:1064400080B56F4692B00146069109910A91089174
:10645000002007F8290C17F8290C0B9100F0010017
:1064600007F8160C07F8150C17F8150C0D9100F02D
:106470000100019007F80E0C0D980090109001207B
:1064800002900721039101F06CFA01F064FA0146D1
:10649000009801F0DAFA019802990D9A04920F928D
:1064A00007F80D0C01F09BFA039901F05AFA014626
:1064B000049801F0AAFA0D98119012B080BD80B531
:1064C0006F4692B00246069209920A920892012003
:1064D000029007F8290C17F8291C0B9201F0010112
:1064E00007F8161C07F8151C17F8151C0D9201F07B
:1064F0000101019107F80E1C0D99009110910621E0
:10650000039101F02EFA01F026FA0146009801F0FD
:106510009CFA019802990D9A04920F9207F80D0CBB
:1065200001F05DFA039901F01CFA0146049801F0AC
:106530006CFA0D98119012B080BD87B00190029056
:1065400000210391049005910160069007B0704707
:1065500080B56F4690B00146069107910891099168
:106560000420029007F8160C07F8150C0B9107F899
:106570000E0C0B9801900E9001F0B9FF18210391B9
:1065800001F0A0FA01F010FA0146019801F073FA47
:1065900002980B9904910D9107F80D0C01F0A7FFDB
:1065A0000146029801F02BFA039901F08BFA01469B
:1065B000049801F040FA0B980F9010B080BD80B5A0
:1065C0006F4694B00A46079008920B920C920A927A
:1065D0000120039007F8290C17F8291C0D9201F0EF
:1065E000010107F8161C07F8151C17F8151C0F9267
:1065F00001F00101029107F80E1C0F99019112910F
:106600001021049101F05EFA01F0CEF901460198E3
:1066100001F031FA029803990F9A0592119207F846
:106620000D0C01F0ECF9049901F04CFA01460598C3
:1066300001F001FA0F98139014B080BD87B001905B
:10664000029000210391049005910160069007B02B
:10665000704780B56F46A0B002460A920F92119221
:106660000C920120069007F8510C17F8511C179254
:1066700001F0010107F81E1C07F81D1C17F81D1C6E
:10668000199201F00101019107F8161C1999009166
:106690001C910221029101F015FA01F085F90146E1
:1066A000009801F0E8F901980699199A03921B9253
:1066B00007F8150C01F0A3F9029901F003FA01465D
:1066C000039801F0B8F90698199A109212920E9256
:1066D00007F8490C17F8491C139201F0010107F85B
:1066E0002E1C07F82D1C17F82D1C159201F0010126
:1066F000059107F8261C159904911E910021079118
:1067000001F0E0F901F050F90146049801F0B3F905
:1067100005980699159A08921D9207F8250C01F024
:106720006EF9079901F0CEF90146089801F083F956
:1067300015981F9020B080BD80B56F468EB0059033
:1067400006910791089109910420019007F80E0C19
:10675000099800900C9001F0CAFE1821029101F0F6
:10676000B1F901F021F90146009801F084F901988E
:10677000099903910B9107F80D0C01F0B8FE014641
:10678000019801F03CF9029901F09CF90146039847
:1067900001F051F909980D900EB080BD80B56F469B
:1067A00094B00A46079008920B920C920A9201202C
:1067B000039007F8290C17F8291C0D9201F001012C
:1067C00007F8161C07F8151C17F8151C0F9201F096
:1067D0000101029107F80E1C0F99019112911021ED
:1067E000049101F06FF901F0DFF80146019801F022
:1067F00042F9029803990F9A0592119207F80D0C2D
:1068000001F0FDF8049901F05DF90146059801F0E9
:1068100012F90F98139014B080BD80B56F46BEB0CA
:106820000D920E910F90129113921A913491087853
:10683000C00907F8690C07F8B20CA7F1B2001F9065
:10684000219017F8B20CC00798B9FFE70E981B907B
:1068500033900078C0F3800007F86A0C07F8B10C99
:10686000A7F1B1002090229017F8B10CC00720B119
:10687000FFE70D983B901090AFE00F98FEF7C8FE31
:10688000002840F0A680FFE70D9A1C9224921592F2
:1068900001200A9007F8A50C17F8A51C279201F013
:1068A000010107F8561C07F8551C17F8551C2992CA
:1068B00001F00101019107F84E1C299900913A91CC
:1068C0000521029101F04DF801F045F801460098CC
:1068D00001F0BBF801980A99299A0392399207F8B6
:1068E0004D0C01F07CF8029901F03BF80146039849
:1068F00001F08BF80A98299A1D922592179207F8B1
:106900009D0C17F89D1C2B9201F0010107F8461C05
:1069100007F8451C17F8451C2D9201F0010105915F
:1069200007F83E1C2D99049138910721069101F03A
:1069300018F801F010F80146049801F086F805985F
:106940000A992D9A0792379207F83D0C01F047F803
:10695000069901F006F80146079801F056F80A98E2
:106960002D9A1E9226921992002107F8951C17F86D
:10697000951C2F9201F0010107F8361C07F8351C11
:1069800017F8351C319201F00101099107F82E1C0E
:1069900031990891369102210B9100F0E2FF00F04D
:1069A000DAFF0146089801F050F809980A99319ADF
:1069B0000C92359207F82D0C01F011F80B9900F0AC
:1069C000D0FF01460C9801F020F831983D901090CE
:1069D00003E00D983C901090FFE710983EB080BD0A
:1069E00087B0019002904FF40061ADF80E10049052
:1069F000ADF816100180069007B0704780B56F465D
:106A00009AB0049040F20000C2F2000000F03DFC99
:106A10004AF66C71C0F2000100F0F0FC02460498E6
:106A2000079208910168426880680068179118927F
:106A300019904AF67C73C0F20003FEF70CF9FEF7DA
:106A400056FC05900A4605990CA80690FDF786FBB2
:106A5000069909A8FEF785FC09980A990B9A1192E4
:106A600010910F90FFE70FA8FEF74AFC12901391C8
:106A7000139858B9FFE707A8039000F005FDFDF74C
:106A80002CFF039801F06FFD1AB080BD12980190A1
:106A9000159013980290169007A800F0F5FC029943
:106AA0000978FEF767FC00F001008DF850008DF8C2
:106AB000511014A800F0F3FB0028D4D0FFE7019890
:106AC000049989680968084402460092884208D3FC
:106AD000FFE70498009982681160C168002008707F
:106AE000C9E74AF68C70C0F2000003F024FA87B0C0
:106AF000019002900021ADF80E100490ADF8161030
:106B00000180069007B0704787B0019002904FF463
:106B10000061ADF80E100490ADF8161001800690DB
:106B200007B0704787B0019002900021ADF80E10B9
:106B30000490ADF816100180069007B0704780B53C
:106B40006F4694B0079008910B910C910A91002028
:106B500007F8290C17F8290C0D9100F0010007F82F
:106B6000160C07F8150C17F8150C0F9100F0010022
:106B7000029007F80E0C0F980190129001200390DC
:106B80001021049100F09EFF00F00EFF01460198D5
:106B900000F071FF029803990F9A0592119207F87D
:106BA0000D0C00F02CFF049900F08CFF01460598B5
:106BB00000F041FF0F98139014B080BD80B56F4670
:106BC000B2B040F20000C2F2000000F05EFB4AF6F4
:106BD0009C71C0F2000100F011FC0A900B910AA810
:106BE00000F052FCFEF73EFD00F0010007F8950CA6
:106BF00007F8941C17F8950CC007C0B3FFE717F807
:106C0000940C07F8930CFEF729FFA7F1920011905E
:106C10004320C4F2070009901D90A7F1930008904B
:106C20001E900020079000F096FE0146FF2000F025
:106C3000D6FE079900F0BDFE0146089807F84B1CE8
:106C400007F8551CA7F1550100F08FF80146099887
:106C500009782F9007F8051C319001F0DBFD0AA898
:106C600000F00DFCFEF7D4FC002841D13BE0FEF71C
:106C7000F5FE0EA80F904020C4F207001290159068
:106C80001390022014904220C4F207000690169040
:106C900023902590269000F031FE049007F8370CE1
:106CA00007F8360C07F83E0C0020059000F053FE64
:106CB0000146049800F093FE059900F07AFE07F86B
:106CC000350C07F83D0CA7F13E00A7F13D0100F09F
:106CD000D2F8014606980978299007F81D1C2B90D8
:106CE00001F098FDFFE70AA801F03DFC32B080BD3D
:106CF000FEF7B4FEA7F1910010904020C4F2070007
:106D000017901A901890022019904220C4F20700A0
:106D100003901B9020902790289000F0EFFD0190A9
:106D200007F8410C8DF8880007F84A0C0020029003
:106D300000F011FE0146019800F051FE029900F0AA
:106D400038FE07F83F0C07F8490CA7F14A00A7F1F5
:106D5000490100F01CF80146039809782C9007F8C7
:106D6000111C2E9001F056FDBDE788B00091014640
:106D70000098019102900199097803908DF8131001
:106D800005908DF81B100170079008B0704780B512
:106D90006F46A2B00B900C91119113910E910020AF
:106DA00007F8510C17F8510C159100F0010007F885
:106DB0002E0C07F82D0C17F82D0C179100F0010080
:106DC000029007F8260C1798019020900120079058
:106DD0000721039100F0C5FD00F0BDFD01460198BB
:106DE00000F033FE02980799179A04921F9207F851
:106DF000250C00F0F4FD039900F0B3FD0146049862
:106E000000F003FE0798179A12921492109207F856
:106E1000490C17F8491C199201F0010107F81E1CD2
:106E200007F81D1C17F81D1C1B9201F001010691AB
:106E300007F8161C1B9905911E910221089100F07C
:106E400090FD00F088FD0146059800F0FEFD0698D3
:106E500007991B9A09921D9207F8150C00F0BFFDC7
:106E6000089900F07EFD0146099800F0CEFD1B98C0
:106E7000219022B080BD80B56F46A2B00B900C91DE
:106E8000119113910E910020049007F8510C17F8FE
:106E9000510C159100F0010007F82E0C07F82D0C8D
:106EA00017F82D0C179100F00100019007F8260C3F
:106EB000179800902090012007900721029100F080
:106EC00050FD00F048FD0146009800F0BEFD01981D
:106ED0000799179A03921F9207F8250C00F07FFD7F
:106EE000029900F03EFD0146039800F08EFD0499E2
:106EF0000798179A12921492109207F8491C17F8E3
:106F0000491C199201F0010107F81E1C07F81D1C0D
:106F100017F81D1C1B9201F00101069107F8161CC1
:106F20001B9905911E910221089100F01AFD00F0B5
:106F300012FD0146059800F088FD069807991B9AF6
:106F400009921D9207F8150C00F049FD089900F010
:106F500008FD0146099800F058FD1B98219022B0C9
:106F600080BD80B56F4694B0079008910B910C914D
:106F70000A91002007F8290C17F8290C0D9100F050
:106F8000010007F8160C07F8150C17F8150C0F91EF
:106F900000F00100029007F80E0C0F98019012907B
:106FA000012003901021049100F08CFD00F0FCFC06
:106FB0000146019800F05FFD029803990F9A05922F
:106FC000119207F80D0C00F01AFD049900F07AFDFB
:106FD0000146059800F02FFD0F98139014B080BD66
:106FE00080B56F46B0B00F90109119911C91169119
:106FF0000020089007F8690C17F8690C259100F03B
:10700000010007F8260C07F8250C17F8250C279126
:1070100000F00100019007F81E0C279800902A90BC
:1070200001200B900221029100F09BFC00F093FCE8
:107030000146009800F009FD01980B99279A0392E8
:10704000299207F81D0C00F0CAFC029900F089FC97
:107050000146039800F0D9FC08990B98279A1892DA
:107060001B92149207F8711C17F8711C219201F001
:10707000010107F8361C07F8351C17F8351C239258
:1070800001F00101059107F82E1C239904912C9120
:107090000721069100F065FC00F05DFC01460498B4
:1070A00000F0D3FC05980B99239A07922B9207F8CE
:1070B0002D0C00F094FC069900F053FC0146079853
:1070C00000F0A3FC08990B98239A17921A92129237
:1070D00007F8791C17F8791C1D9201F0010107F8D7
:1070E000461C07F8451C17F8451C1F9201F00101CA
:1070F0000A9107F83E1C1F9909912E9105210C91C8
:1071000000F02FFC00F027FC0146099800F09DFCE0
:107110000A980B991F9A0D922D9207F83D0C00F0DA
:107120005EFC0C9900F01DFC01460D9800F06DFC12
:107130001F982F9030B080BD80B56F4684B040F26C
:107140000000C2F2000000F0A0F84AF6AC71C0F2F4
:10715000000100F053F90190029101A8009000F0A5
:1071600093F9FDF7BAFB009801F0FDF904B080BD7A
:1071700080B56F4690B006920791089009900A91E9
:107180000B925AB9FFE74AF6BC70C0F200004BF20E
:107190003402C0F20002172101F022FD089806997E
:1071A00088420BD9FFE74BF24400C0F200004BF2DB
:1071B0005C02C0F20002182101F012FD0798069946
:1071C00088420BD9FFE74BF26C00C0F200004BF293
:1071D0008402C0F20002182101F002FD069808990D
:1071E000079A0E910F9252184FF0000141F10001E1
:1071F000134604930C9207F8091C059168B1FFE748
:1072000006994FF0FF30B0FBF1F04843C143481CF2
:107210000246039288420DD305E04BF29400C0F27F
:10722000000002F0E7FE05980399A0FB011002910F
:1072300070B905E04BF2A400C0F2000002F07BFE42
:1072400004990298084402460192884209D305E055
:107250004BF2B400C0F2000002F093FE069870B149
:1072600005E04BF2C400C0F2000002F064FE069993
:10727000019AB2FBF1F000FB112010B080BD4BF27F
:10728000C400C0F2000002F0B5FE83B0009002908E
:1072900003B0704780B56F4601F043FC80BD81B0FC
:1072A0000090007800F0010001B0704780B56F4693
:1072B00082B007F8060C07F8051C17F8060CC00783
:1072C00020B9FFE700208DF8040009E017F8050C4D
:1072D00007F8010C00F0D4FA01208DF80400FFE754
:1072E0009DF8040000F0010002B080BD80B56F463B
:1072F00082B007F8050C17F8050CC00720B9FFE7A6
:1073000000208DF8040005E000F037F901208DF829
:107310000400FFE79DF8040000F0010002B080BD0A
:1073200080B56F4682B007F8050C17F8050CC0074A
:1073300020B9FFE700208DF8040005E000F03EF9D9
:1073400001208DF80400FFE79DF8040000F0010023
:1073500002B080BD80B56F4682B007F8060C07F812
:10736000051C17F8060CC00720B9FFE700208DF8B0
:10737000040009E017F8050C07F8010C00F085FA85
:1073800001208DF80400FFE79DF8040000F00100E3
:1073900002B080BD80B56F4682B007F8050C17F8C3
:1073A000050CC00720B9FFE700208DF8040005E0B8
:1073B00000F0E6F801208DF80400FFE79DF80400D6
:1073C00000F0010002B080BD80B56F4682B007F8C2
:1073D000050C17F8050CC00720B9FFE700208DF851
:1073E000040005E000F0E7F801208DF80400FFE755
:1073F0009DF8040000F0010002B080BD80B56F462A
:1074000088B00191049000F00EF802900391029868
:1074100030B1FFE7029803990690079108B080BD4C
:10742000019801F0A4FB80B56F468EB002900690E3
:107430004FF0FF31079108910990006870B9FFE79C
:1074400002984FF0FF3101600590059900910A9173
:1074500004300B90014601910C9002E00020039053
:1074600009E00198FCF758FEFFE7009801990D919B
:1074700003910490FFE7039804990EB080BD81B09A
:107480000090006801B0704781B00090006801B0C2
:10749000704780B56F4682B001914AF2D152C0F276
:1074A000000200F00EF802B080BD80B56F4682B0D9
:1074B00001914AF2F302C0F2000200F010F802B0AB
:1074C00080BD85B000910146009803900492019020
:1074D00002920198029A4A60086005B0704785B030
:1074E0000091014600980390049201900292019845
:1074F000029A4A60086005B0704785B00091014665
:10750000009803900492019002920198029A4A60B6
:10751000086005B0704780B56F4682B0019145F2B2
:107520003512C0F20002FFF7E8FF02B080BD80B55F
:107530006F4682B0019000F0AAF802B080BD80B51D
:107540006F4682B0019000F03CF802B080BD80B57B
:107550006F4682B00090019100F060F9FFF71AFFCA
:1075600002B080BD80B56F4682B00090019100F0FE
:1075700023F9FFF7BBFE02B080BD81B001B07047B8
:1075800081B001B0704780B56F4684B00190029120
:10759000039200F09BF9FFF717FF04B080BD80B5A0
:1075A0006F4684B001900291039200F09BF9FFF7BF
:1075B000B7FE04B080BD81B001B0704781B001B0AA
:1075C0007047F0B503AF4DF8048D98B0019102906B
:1075D0000B900C910868039048680490C968059165
:1075E00018B9FFE7059820B108E00498012818D0E1
:1075F00004E00120099000200A9008E04AF6F81003
:10760000C0F200000168406809910A90FFE709A8EC
:107610000E90002007F8310C17F8310CC00760B944
:107620000AE005980028E9D1FFE703980D9001686A
:10763000406809910A90EAE706E009990A980791DB
:107640000890079888B9FFE70298019B12AA114693
:1076500093E8705181E870514BF2D401C0F20001FF
:1076600001F0AEFD07F8550C09E002980799089A59
:1076700010911192FFF787FF07F8550CFFE717F8F5
:10768000550C00F0010018B05DF8048BF0BDF0B5AA
:1076900003AF4DF8048D98B0019102900B900C91BE
:1076A0000868039048680490C968059118B9FFE715
:1076B000059820B108E00498012818D004E00120C2
:1076C000099000200A9008E04AF6F810C0F2000085
:1076D0000168406809910A90FFE709A80E90002010
:1076E00007F8310C17F8310CC00760B90AE00598AB
:1076F0000028E9D1FFE703980D90016840680991DF
:107700000A90EAE706E009990A9807910890079815
:1077100088B9FFE70298019B12AA114693E87051BD
:1077200081E870514BF2EC01C0F2000101F048FD1C
:1077300007F8550C09E002980799089A10911192E0
:10774000FFF72DFF07F8550CFFE717F8550C00F071
:10775000010018B05DF8048BF0BD80B56F4682B0B3
:10776000019000F0A9F802B080BD80B56F4682B0EC
:10777000019000F097F802B080BD80B56F4694B0DC
:10778000019003A8029000F0C0FD019802994422E4
:1077900002F0C9FF14B080BD80B56F46C4B001903F
:1077A00003A8029000F0BDFD019802994FF4827287
:1077B00002F0B9FF44B080BD80B56F468AB0029137
:1077C00001460298039106910790FDF701FB0128FD
:1077D0000BD1FFE70299039800F0B1FD00F0010022
:1077E000FFF7B8FD07F8150C12E00298002105918B
:1077F00005A90422FDF7E0FA0246039801920A4621
:1078000001990891099200F03EFD07F8150CFFE779
:1078100017F8150C00F001000AB080BD80B56F4666
:107820008AB0029101460298039106910790FDF7F4
:10783000CFFA01280BD1FFE70299039800F0A6FDCB
:1078400000F00100FFF732FD07F8150C12E0029876
:107850000021059105A90422FDF7AEFA024603981E
:1078600001920A4601990891099200F0C9FC07F8B3
:10787000150CFFE717F8150C00F001000AB080BDE9
:1078800081B08DF8030001B0704781B08DF803001E
:1078900001B0704780B56F4682B0019000F09EFD48
:1078A00002B080BD80B56F4682B0019000F0C0FD8F
:1078B000FCF7DDFC02B080BD80B56F4682B0019060
:1078C00000F0C4FDFCF7D3FC02B080BD80B56F466C
:1078D00086B00190029103920491059200F0D3FCCE
:1078E00006B080BD80B56F4686B0019002910392CC
:1078F0000491059200F084FC06B080BD80B56F460F
:1079000084B001900290FFE7019801210022FDF769
:1079100091FCFFE70198007807F8010C17F8010CBB
:1079200004B080BD80B56F4684B001900290FFE73F
:10793000019802210022FDF77DFCFFE701980088F5
:1079400027F8020C37F8020C04B080BD82B000901A
:10795000019102B0704781B08DF80300C04301B0BF
:10796000704780B56F4684B00246C8B20B4601939B
:107970001346029307F8022C07F8011C072807D8C2
:10798000FFE70298019901F00701884004B080BD2B
:107990004BF27410C0F2000002F006FB81B0ADF8AB
:1079A0000200C04301B0704781B00090C04301B0F5
:1079B000704781B08DF802008DF80310084301B0C4
:1079C000704781B0ADF80000ADF80210084301B077
:1079D000704782B000900191084302B0704781B0B7
:1079E0008DF802008DF80310084001B0704781B097
:1079F000ADF80000ADF80210084001B0704782B049
:107A000000900191084002B0704782B00A460146DA
:107A100000918DF8072008781043087002B0704775
:107A200082B00A4601460091ADF80620088810434E
:107A3000088002B0704782B00A4601460091019268
:107A400008681043086002B0704782B00A460146D9
:107A500000918DF8072008781040087002B0704738
:107A600082B00A4601460091ADF806200888104011
:107A7000088002B0704782B00A4601460091019228
:107A800008681040086002B0704780B56F4684B047
:107A90000246C8B20B46019313460293ADF80C2080
:107AA00007F8011C0F2807D8FFE70298019901F099
:107AB0000F01884004B080BD4BF27410C0F200008A
:107AC00002F072FA80B56F4684B002460092C8B2E6
:107AD0000B460193029207F8011C1F2807D8FFE705
:107AE0000098019901F01F01884004B080BD4BF25D
:107AF0007410C0F2000002F057FA80B56F4682B0F1
:107B000000F0EEFF07F8010C07F8030CFFF714FB79
:107B1000F81E00F0FAFC02B080BD80B56F4682B05E
:107B2000009000F0DDFF0146009807F8011C07F8FF
:107B3000021CFEF763FFB81E00F0E7FC02B080BD38
:107B400080B56F4682B000F0CBFF07F8010C07F854
:107B5000030CFFF733F8F81E00F0D7FC02B080BD2D
:107B600080B56F4600F000F880B56F46ADF5866DC4
:107B7000FDF774FF0DF177009D902020C4F2040002
:107B8000B190B590B2900220B3902220C4F20400CC
:107B90001C90B490CA9000201B90FFF7FFFE014696
:107BA0001B98FFF724FF1B99FFF70BFFADF82C0381
:107BB000ADF826030DF22630FDF77FFD01461C9837
:107BC0000988F69027F8521CF89000F00EFE4EF649
:107BD0000850CEF2000000F099FD9490B0F5804F6F
:107BE00040F09E81FFE70DF177001790FCF744FB12
:107BF000FFF750FB4BF2BF10C0F200000E21FCF764
:107C0000B3FE1EA81990FFF7C7FD17990DF27F105C
:107C10001890FDF7ACF918996AA8FFF77CFC6A98F0
:107C20006B99699168904BF2D011C0F2000162A883
:107C30001A9068AAFCF705FB19981A99FFF777FCC8
:107C40008DF85A029DF85A02C00798B1FFE74BF22F
:107C5000EC10C0F20000694608604BF29410C0F2CC
:107C600000004BF28413C0F200032B210DF25B22C3
:107C700001F06CF81EA81590FFF777FDFCF774FE75
:107C80001598FFF707FE0DF17700A1904EF2FE3038
:107C9000C4F20100C690E790E890FFF743FEADF80C
:107CA0001C03ADF8B2010DF5D97047F8040CC5906E
:107CB000BDF8B201ADF8B00175A86CA9FFF7F5FBEE
:107CC00075987699749173904BF2FC11C0F2000193
:107CD0006DA8169073AAFCF7B4FA15981699FFF7D9
:107CE00026FC8DF858029DF85802C00798B1FFE7AE
:107CF0004BF20C20C0F20000694608604BF2941071
:107D0000C0F200004BF28413C0F200032B210DF2ED
:107D1000592201F01BF81EA80990FFF726FDFCF779
:107D200023FE0998FFF7B6FD0DF177000F90A090A4
:107D30004EF2FE30C4F201000A90D490002014905C
:107D4000FFF72CFE01461498FFF751FE1499FFF738
:107D500038FEADF8540327F8E20CA7F1E200FDF776
:107D6000C8FC01460A980988ED9027F8761CEF9028
:107D700000F03BFD0F989F904EF22000C4F20100EE
:107D80000C90DD90EB90EC9000F0C0FC0146149854
:107D90000B91DE91DF91DB91FFF706FE01460B9818
:107DA000FFF72DFE1499FFF714FEE090DC90DBA89E
:107DB000DCA9FDF705FD01460C980968FF9047F81E
:107DC000301C47F82C0C00F03AFD0F9914989E9146
:107DD0004EF23E01C4F201010D91D691FFF7BBFDB9
:107DE00001461498FFF7FBFD1499FFF7E2FD07F831
:107DF000D10C07F8D90CA7F1D900FDF71FFD0146FA
:107E00000D98097847F8100C07F8091C47F8080C7A
:107E100000F000FD0F991498999140F60001C4F20A
:107E200004011091AC91B091AD9164211191AE918A
:107E300040F66401C4F204011391AF91D991FFF7A8
:107E4000B3FD01464FF480300E90FFF7D8FD149932
:107E5000FFF7BFFDDA90D890D8A8FDF763FD014683
:107E60001398096847F8280C47F8241C47F8200C99
:107E700000F0E5FCDDF83CC0109B119A13991498B2
:107E8000CDF860C2A793AB93A893A992AA91D19180
:107E9000FFF78AFD01460E98FFF7B1FD1499FFF731
:107EA00098FDD290D090D0A8FDF747FD01461398D9
:107EB000096847F81C0C47F8181C47F8140C00F028
:107EC000BEFC0F9B109A119913989793A292A692B9
:107ED000A392A491A590E390E990EA9000F016FC9B
:107EE000014614981291E491E591E191FFF75CFD50
:107EF00001461298FFF783FD1499FFF76AFDE6909B
:107F0000E290E1A8E2A9FDF74FFD01461398096848
:107F1000FC90FD91FE9000F092FC1498779029E07F
:107F20000DF177009A902021C4F204010891B691D6
:107F3000B991B79100200790B890BA91C891FFF716
:107F40002DFD01460798FFF752FD0799FFF739FD10
:107F5000ADF82403ADF81E030DF21E30FDF7BBFB98
:107F6000014608980988F99027F8461CFB9000F014
:107F70003CFC98E078A80590FFF7FFFB91A877A953
:107F8000FFF787FA9198929990918F904BF2242164
:107F9000C0F2000189A806908FAAFCF752F9059853
:107FA0000699FFF7CCFA8DF856029DF85602C007E5
:107FB00098B1FFE74BF23420C0F200006946086038
:107FC0004BF29410C0F200004BF28413C0F2000395
:107FD0002B210DF2572200F0B9FE78A8FFF7BDFB68
:107FE000FCF7C2FC7799481C02460492884254D69A
:107FF000FFE7049877900DF1770001909C90202185
:10800000C4F204010391C091C391C1910020029078
:10801000C290C491CC91FFF7C1FC01460298FFF7D2
:10802000E6FC0299FFF7CDFCADF83403ADF82E0362
:108030000DF22E30FDF7F7FC014603980988F39006
:1080400027F85E1CF59000F0D0FB019A0298039986
:108050009B92BB91BE91BC91BD90BF91CE91FFF719
:108060009DFC01460298FFF7C2FC0299FFF7A9FCAC
:1080700027F8F20C27F8FA0CA7F1FA00FDF7E1FC5B
:10808000014603980988F09027F86A1CF29000F0E6
:10809000ACFB78A800F04FFA6CE74BF24420C0F23A
:1080A000000001F048FFFCF7D1FDFCE780B56F460A
:1080B00084B000920A460146009801910292039012
:1080C000FCF741FF04B080BD83B0009001904FF4F5
:1080D0008071029103B0704780B56F4684B0019003
:1080E000029040210391016CFCF725F804B080BD9B
:1080F00080B56F4684B0019002904FF48071039177
:10810000D0F80011FCF717F804B080BD80B56F46B9
:1081100086B002900A460392049007F8031C00F010
:1081200077F9C0B9FFE70298039907F8011C07F82F
:10813000021C17F8021C0091026C4021FFF7B6FFE9
:108140000099024602981170016C481C0246019287
:10815000884210D30AE04BF2BC20C0F200004BF280
:10816000E022C0F20002212100F03AFD01980299BC
:10817000086406B080BD4BF2AC20C0F2000001F0F4
:10818000DAFE80B56F4686B002900A4603920490EC
:1081900007F8031C00F02BF9D8B9FFE70298039900
:1081A00007F8011C07F8021C17F8021C0091D0F810
:1081B00000214FF48071FFF779FF00990246029881
:1081C0001170D0F80011481C02460192884211D368
:1081D0000AE04BF2BC20C0F200004BF2E022C0F2F9
:1081E0000002212100F0FCFC01980299C1F8000175
:1081F00006B080BD4BF2AC20C0F2000001F09BFE47
:1082000080B56F468EB001920291039009900A9159
:108210000B92D0F80011881802460492884208D3C5
:10822000FFE7039800F01EF90146049888420DD834
:1082300005E04BF2F020C0F2000001F07CFE019955
:108240000298FBF7ABFF0690079103E0012007F8C7
:10825000210C12E006A8FBF7B5FF0890089820B99A
:10826000FFE7002007F8210C07E0039808990C911C
:108270000D910978FFF785FFECE717F8210C00F066
:1082800001000EB080BD80B56F468EB001920291A4
:10829000039009900A910B92016C8818024604928F
:1082A000884208D3FFE7039800F0E2F801460498FB
:1082B00088420DD805E04BF2F020C0F2000001F03A
:1082C0003AFE01990298FBF769FF0690079103E0D7
:1082D000012007F8210C12E006A8FBF773FF0890B5
:1082E000089820B9FFE7002007F8210C07E0039861
:1082F00008990C910D910978FFF708FFECE717F842
:10830000210C00F001000EB080BD80B56F46002149
:1083100001644BF20031C0F20001402202F038FB50
:1083200080BD80B56F460021C0F800114BF240318E
:10833000C0F200014FF4807202F02AFB80BD80B5CC
:108340006F4686B000900A460192049007F8011C1F
:10835000016C029100F08CF801460298884207D324
:10836000FFE7019807F8090C012007F80A0C07E05D
:1083700001990098FFF7CAFE002007F80A0CFFE7F2
:1083800017F80A0C17F8091C06B080BD80B56F46B7
:1083900086B000900A460192049007F8011CD0F8BC
:1083A0000011029100F05EF801460298884207D35E
:1083B000FFE7019807F8090C012007F80A0C07E00D
:1083C00001990098FFF7DDFE002007F80A0CFFE78F
:1083D00017F80A0C17F8091C06B080BD80B56F4667
:1083E00082B00190002100F048F802B080BD80B555
:1083F0006F4682B00190D0F80011009100F032F881
:1084000001460098401AB0FA80F0400902B080BDE1
:1084100080B56F4682B00190016C009100F028F8A1
:1084200001460098401AB0FA80F0400902B080BDC1
:1084300080B56F4684B0019002904FF48071039133
:10844000D0F8001100F06CFA04B080BD80B56F4622
:1084500084B00190029040210391016C00F060FA19
:1084600004B080BD81B000904FF4807001B07047BF
:1084700081B00090402001B0704780B56F468AB04F
:108480000191029003900491D0F80001814209D833
:10849000FFE701990298D0F80001421A0092884241
:1084A00017D301E00AB080BD029800990591FFF74B
:1084B0000BFE0099019A089009921044FFF746FAC2
:1084C000034601980A46029906930792C1F80001F3
:1084D000E8E74BF24040C0F2000001F03FFDFF2012
:1084E00070470720704703207047FF2070471F2008
:1084F0007047FF2070470720704780B56F4682B0F5
:10850000019000F039F802B080BD80B56F4684B0AC
:1085100001900290007800F0010007F8010C00F0D3
:10852000E4FA04B080BD80B56F4682B0019000F0DF
:1085300033F802B080BD80B56F4682B00190FFF77E
:10854000F2FF02B080BD80B56F4682B0019000F0AE
:108550001BF802B080BD80B56F4682B00190FFF776
:10856000F2FF02B080BD80B56F4682B0019004304A
:10857000FFF7C3FF02B080BD81B0009001680868BA
:108580000130086001B0704780B56F4682B001903D
:10859000FFF7AEFD02B080BD80B56F4682B001909E
:1085A000FFF79AFD02B080BD80B56F4686B001929C
:1085B0000291039004910592814207D2FFE74BF2AA
:1085C0005040C0F20000612100F01DFB02980199AB
:1085D0008842F4D8FFE706B080BD80B56F4682B010
:1085E00000900191884207D3FFE74BF2B140C0F2FF
:1085F0000000652100F007FB02B080BD80B56F462A
:1086000096B003930492059106900E900F911092EC
:108610001193002107F80E1C07F80D1C4BF2405176
:10862000C0F20001139114904FF0553000EA52004F
:10863000101A4FF0333101EA900120F0CC30084499
:1086400000EB101020F0F0304FF001314843000EE5
:1086500015901598012808D1FFE70698049902465D
:108660000292013908421AD01CE04BF24050C0F28D
:1086700000000790012008904AF6F810C0F20000B0
:10868000016840680B910C900420099000200A902A
:108690004BF2E461C0F2000107A800F082FA0298F0
:1086A00010B900E0FFE723E00598B0FA80F149092E
:1086B000019120B9FFE74FF0FF300D9003E00198E2
:1086C000C00760B904E003980D9988420ED90CE008
:1086D00005996FF00040B0FBF1F00D90F3E74BF21D
:1086E000B850C0F2000001F072FC01E016B080BD8D
:1086F0004BF2C850C0F20000A62100F084FAFFE758
:10870000FEE7704781B00090FFE7FEE780B56F4657
:1087100084B001900290FFE701980421002200F04C
:1087200007F8FFE7019800680390039804B080BD44
:1087300080B56F4690B002910390134604930B905E
:108740000C9107F8092C4BF22070C0F200000E903B
:108750004FF0553000EA5100081A4FF0333101EA6A
:10876000900120F0CC30084400EB101020F0F030E5
:108770004FF001314843000E0F900F98012808D1A7
:10878000FFE70398029902460192013908421AD084
:108790001DE04BF22070C0F2000005900120069011
:1087A0004AF6F810C0F200000168406809910A908A
:1087B00004200790002008904BF60C01C0F2000145
:1087C00005A800F0EEF90498C00720B900E003E026
:1087D000019840B900E006E04BF22870C0F20000BA
:1087E0006E2100F010FA10B080BD80B56F4684B0E5
:1087F00000900A460192029027F8021CFFE70098B9
:108800000221002200F02EF8FFE70198009908806D
:1088100004B080BD80B56F4684B000900A460192D6
:10882000029007F8011CFFE700980121002200F0E8
:1088300019F8FFE701980099087004B080BD80B571
:108840006F4684B00091019002900391FFE7019878
:108850000421002200F006F8FFE700980199086063
:1088600004B080BD80B56F4690B001910290134670
:1088700003930A900B9107F80D2C4BF22072C0F273
:1088800000020D920E904FF0553000EA5100081A88
:108890004FF0333101EA900120F0CC30084400EB76
:1088A000101020F0F0304FF001314843000E0F90CF
:1088B0000F98012808D1FFE702980199024600921B
:1088C000013908421AD01DE04BF22070C0F20000BE
:1088D0000490012005904AF6F810C0F200000168EB
:1088E00040680891099004200690002007904BF6FC
:1088F0000C01C0F2000104A800F053F90398C0076E
:1089000020B900E003E0009840B900E006E04BF633
:108910001C00C0F200006F2100F075F910B080BD9E
:1089200080B56F4684B00091019002900391FFE7FB
:10893000009B01980122114600F005F8FFE700991D
:10894000019804B080BD80B56F4696B00393049241
:10895000059106900E900F9110921193002107F847
:108960000E1C07F80D1C4BF22071C0F20001139190
:1089700014904FF0553000EA5200101A4FF0333186
:1089800001EA900120F0CC30084400EB101020F0F8
:10899000F0304FF001314843000E15901598012832
:1089A00008D1FFE70698049902460292013908426D
:1089B0001AD01CE04BF22070C0F20000079001209A
:1089C00008904AF6F810C0F20000016840680B9168
:1089D0000C900420099000200A904BF60C01C0F284
:1089E000000107A800F0DDF8029810B900E0FFE7E9
:1089F00023E00598B0FA80F14909019120B9FFE719
:108A00004FF0FF300D9003E00198C00760B904E01B
:108A100003980D9988420ED90CE005996FF000403B
:108A2000B0FBF1F00D90F3E74BF6FC00C0F2000054
:108A300001F0CDFA01E016B080BD4BF60C10C0F28B
:108A40000000A22100F0DFF880B56F4682B000F090
:108A50002EF800F01EF8009007F8010C00F00FF857
:108A6000009802B080BD80B56F4682B007F8010C57
:108A700010B9FFE702B080BD00F006F8FAE780B554
:108A80006F4600F04CF880BD80B56F4600F049F8A5
:108A900080BD80B56F4682B007F8010C4BF6AE1171
:108AA000C0F20001781E00F029F802B080BD80B548
:108AB0006F4682B000F039F8019000F00100012803
:108AC00004D0FFE7002007F8050C03E0012007F8B9
:108AD000050CFFE717F8050C00F0010002B080BD9F
:108AE00080B56F46FFF7B0FF80BD80B56F4682B09E
:108AF00007F8010CFFF7B7FF02B080BD84B000900B
:108B00000191007800F001000290097801F0010164
:108B10000391401AB0FA80F0400904B0704772B671
:108B2000704762B6704700BF7047EFF31080704720
:108B300082B00091014600980190086001204860D1
:108B40004AF6F810C0F20000026840680A61486105
:108B5000042088600020C86002B07047D1E9070295
:108B60004BF67821D368C0F200010E22184780B579
:108B70006F468AB0014600200590012002904BF616
:108B80009822049007A8039048F65D30C0F20000D8
:108B9000C0F200020890781E079001A8019200F030
:108BA00000F880B56F4684B0CDE9010101A801222B
:108BB000ADF80C20FFF7A6FD80B56F468AB00DF129
:108BC000040C90E870430020634683E870438DF8FE
:108BD000240007A88DF82510CDE907C2FFF792FD04
:108BE00080B56F4688B094460122019206AA002300
:108BF000CDE906010092042268466146049303937E
:108C00000292FFF7CEFF80B56F4688B00022CDE913
:108C10000601049201230392042202924BF6E02201
:108C2000C0F2000268460021019306AB0093FFF7F3
:108C3000C3FFD4D480B56F468CB0CDE900010020CD
:108C4000069002200849029169460390059008A801
:108C500004900648CDE9090111460B9001A808903F
:108C600002A8FFF79EFF00BF04BB0000E3A40000C2
:108C7000FEB506AFCDE90412B968044A0092CDE909
:108C8000013104A905AB00F003F800BF14BB0000DC
:108C900080B56F469AB0CDE90012B968D7F80CE0FC
:108CA000CDE90231C1B219B1012905D1204900E055
:108CB00020490491022202E01C49072204910592F6
:108CC000DEF80020396982B900201F4A189003207D
:108CD0001590149217900CA816901848119002AA9B
:108CE000CDE90F0268460E9019E00DF1180C9EE8D0
:108CF0007501634683E875010020189004200E4A30
:108D00001590149217900CA816900C48139002AA74
:108D1000CDE91102684610900948CDE90EC0094816
:108D20000D9004A80C9014A8FFF73BFF28BB00008F
:108D300026BB000024BB000074BB0000CFA60000CF
:108D4000B7910000DDA6000050BB000080B56F4663
:108D50008EB08DE80F0000204BF69831089002206D
:108D60000590C0F2000107900AA806904AF2CF6071
:108D7000C0F20000D7F808C00D9002A80C904AF28B
:108D8000DD60C0F2000004910B9068460A9004A8D0
:108D90006146FFF706FFF0B503AF2DE9000F8BB07A
:108DA00090460A4601684FF0000B08914FF0000A08
:108DB0004168002680680990501C0290C8F10100AB
:108DC0000190C8F100000690501E07910A9205908C
:108DD000CDF80C8013E00598005D0A38B0FA80F0F9
:108DE0004009079BA4EB0B02099D0A99DB682870D8
:108DF0005944089898470028CB4640F01281F00764
:108E000040F00A815046C24500F2EE80049602E02E
:108E1000404500F2E9800A99A8EB000EBEF1070F69
:108E200001EB000926D8804500F0DD80069900227C
:108E3000014419F802300A2B00F0BA808B185E1C2E
:108E400000F0D18009EB020675780A2D00F09180C0
:108E50009D1C00F0C880B5780A2D00F09080033387
:108E600000F0C180F3780A2B00F0908004328B1858
:108E7000DFD1B8E009F1030121F0030CBCEB0901DB
:108E800022D08D1EA1F1030A4C1E002219F80230D7
:108E90000A2B00F08B8094421AD009EB020393F85E
:108EA0000180B8F10A0F78D0954211D09E780A2E31
:108EB00077D092450CD0DB780A2B76D0043219F8A3
:108EC00002300A2BE7D171E0AEF10802824606E0DB
:108ED000DDF80C80AEF10802824691421AD840F2C9
:108EE0000010042303EB0C06C0F2011056E90153F5
:108EF00083F00A34041B234385F00A34041B254302
:108F00002B4023F07F33B3F1803F03D10831083683
:108F10009142EBD9BEEB010365D0029E01EB0A0240
:108F2000069C504606EB020E019E144402EB060C12
:108F300003220EEB020515F8046C0A2E2FD00CEB61
:108F40000206032E4FD015F8036C0A2E2BD0A6185C
:108F5000012E48D015F8026C0A2E2FD0934242D031
:108F600015F8015C0A2D2AD00432A518032DE0D192
:108F700039E001321118481C414526D348E7023236
:108F80001118481C4145BFF443AF1EE003321118CD
:108F9000481C4145BFF43CAF17E0013206E0033AFC
:108FA0000DE0023202E0023A09E00332DDF80C8003
:108FB0001118481C4145BFF42BAF06E0013A0A44A2
:108FC0001118481C4145BFF423AF824619F802002E
:108FD0000A2850467FF41CAF049E81460446099837
:108FE000007850B913E04046C34515D082460126AB
:108FF000D94644460998007848B107984AF62C317A
:10900000C0F200010422C3680898984748B95C453B
:109010007FF4E1AE0020E4E600200BB0BDE8000FD5
:10902000F0BD01200BB0BDE8000FF0BDF0B503AFFF
:109030004DF8048D8568D0E90046287878B14AF665
:109040002C32F368C0F20002884611462046042202
:109050009847414618B101205DF8048BF0BDA1F19D
:109060000A003269B0FA80F04009287020465DF8A5
:10907000048BBDE8F0401047F0B503AF2DE9000FB9
:109080008FB09846034600794FF0010900284FF051
:10909000010077D1CDF804809A46D3F80080BD68EE
:1090A0005B7998F8140040072ED40C464BF6C0317B
:1090B00093464BF6C332D8E90706C0F20001C0F26E
:1090C0000002002B18BF1146F3684FF0030218BFCF
:1090D00002229847002853D1D8E907015A46CB68A5
:1090E0002146984700284BD1D8E907010222CB68D6
:1090F0004BF69431C0F200019847002840D1EA684D
:109100004146019890473CE073B9D8E907034BF614
:10911000C536DB68C0F200060C463146164603220F
:1091200098472146324658BB01200DF1080C07F83C
:10913000410CA7F14106D8E90703AB468CE849008A
:1091400006A8B8E8580058C098E8780078C04BF6F0
:10915000A830C0F200000E9002A80D90FFF71BFE91
:1091600070B94BF6943102A8C0F200010222FFF759
:1091700012FE28B9DBF80C2006A90198904748B1E7
:10918000012053461871184683F805900FB0BDE8CA
:10919000000FF0BDDDE90D010222CB684BF6C831AE
:1091A000C0F200019847ECE70A464BF6A831C0F23E
:1091B000000100F005B80246D1E9070100F000B84F
:1091C000F0B503AF2DE9000F8DB01669CDE90B01A5
:1091D00003208DF8280000202021002E09900891FE
:1091E0000690049069D05069002800F09180D2F870
:1091F00000A04101D2F808B0013820F078404FF0CB
:1092000000084FF0000901300292039101900AEB2F
:1092100009014A683AB1DDE90B030968DB68984740
:10922000002840F0858006EB0800036906EB890002
:10923000D0E90221057F846908938DF828500994AC
:109240007AB1012A02D15BF831203AB1002256F8F6
:109250000830CDE90421022B0AD10FE00BEBC1014C
:109260004968012256F80830CDE90421022B05D0C7
:109270004168012B07D15BF831200AB1002203E0DD
:109280000BEBC101496801224369079106920BEB80
:10929000C3015BF833004B6804A99847002847D105
:1092A000039808F1200809F108094045AFD1DDE92C
:1092B00001A25068824530D33FE0D06840B3946843
:1092C0000DF11008D2F800B0002604EBC0090138F7
:1092D00020F06040029200F1010A0BEBC6014A68DF
:1092E0002AB1DDE90B030968DB68984700BB04EB92
:1092F000C6054146D5E900029047C8B905F1080006
:1093000001364845E9D1029A5068824505D314E0F8
:109310004FF0000A506882450FD21268DDE90B0158
:10932000CB6852F83A1002EBCA025268984720B153
:1093300001200DB0BDE8000FF0BD00200DB0BDE86C
:10934000000FF0BDF0B503AF2DE9000F87B0D7F8DF
:109350000C901C46154600294ED0D0F814B02B2294
:109360001BF0010108BF4FF4881201EB090A0692B5
:10937000D7F808805FEA4B7149D5102C5AD2002CDF
:1093800064D004F0030CA2084FF0000160D002F09A
:109390000302CDF8108005F10108CDE90249A1EBE7
:1093A000820E6FF00302059508EB0205043295F971
:1093B000033095F9064095F9056013F1410F95F9D1
:1093C0000450C8BF01310EEB020315F1410FC8BFB5
:1093D000013116F1410FC8BF013114F1410FC8BF6F
:1093E00001310433E0D1DDE904850432DDE90249CD
:1093F000BCF1000F30D147E02D21D0F814B009F1B5
:10940000010A0691D7F808805FEA4B71B5D40025B0
:109410000168E9BB2146D0E9074600913146069A2A
:109420002B46204600F0EEF860B1012007B0BDE801
:10943000000FF0BD06462846214600F0CBFA014653
:10944000304621E0F3682046414677E000211BE0EA
:109450000022BCF1000F17D0AB5613F1410FC8BF6B
:109460000131BCF1010F0FD02A4492F9013013F100
:10947000410FC8BF0131BCF1020F05D092F90220A3
:1094800012F1410FC8BF01318A4401680029C1D0DF
:10949000CDE90485D0F80480D04512D95FEA0B717C
:1094A0001FD4017EA8EB0A02A346CA46032908BFBF
:1094B0000121002949D0012949D111464FF0000965
:1094C00049E02146D0E9074600913146DDE9053201
:1094D000204600F097F870B3012007B0BDE8000FF8
:1094E000F0BD3021D0F810B0224601610121057E87
:1094F000D0E9074601763146039000922046DDE927
:10950000053200F07FF80146012000297FF48EAF7C
:109510000695A8EB0A00DDF81080451C013D3AD005
:1095200032692046302190470028F7D0012007B04B
:10953000BDE8000FF0BDF368204604994A4607B025
:10954000BDE8000FBDE8F0401847914603E0510820
:1095500001324FEA520906694D1CD0E90748013D26
:109560000BD0D8F810202046314690470028F6D07E
:10957000012007B0BDE8000FF0BDCDF800B02046D7
:10958000DDE90532414600F03DF878B1012007B031
:10959000BDE8000FF0BDF368204641464A469847B3
:1095A00080B1012007B0BDE8000FF0BDD8F80C3045
:1095B000204604995246984770B1012007B0BDE893
:1095C000000FF0BD039806990176C0F810B0002096
:1095D00007B0BDE8000FF0BD0025A94509D0D8F8B7
:1095E000102020463146904701350028F5D0691EED
:1095F00000E049460020494538BF012007B0BDE8DA
:10960000000FF0BDF0B503AF4DF8048DD7F808801A
:109610001C460E46B2F5881F0AD03369114605462E
:1096200098470146284619B101205DF8048BF0BD2A
:109630003CB1F368214642465DF8048BBDE8F0403A
:10964000184700205DF8048BF0BDF0B503AF2DE99D
:10965000000F81B08846D0F800C081685CEA010341
:1096600002D1D0E90701B3E0C90730D0C66808EBE2
:10967000020E4FF000094146E6B9714527D091F935
:109680000010B1F1FF3FDCBFC9B2E029B9F1000F12
:1096900023D0914520D218F9091011F1400F1CDA9E
:1096A00000211BE0F0292CBF211DE11C0B1B013EFA
:1096B0009944E2D071450AD00C4611F9013BB3F14F
:1096C000FF3FF3DCD9B2E029ECD2A11CEEE79146D2
:1096D000BCF1000F09D178E0E2D1414600290CBF6E
:1096E00091468846BCF1000F6FD0D0F804B0B9F1B4
:1096F000100F35D2B9F1000F3AD009F0030C5FEA30
:1097000099024FF0000135D002F0030208F1010A7E
:10971000A1EB820E6FF003020AEB0204043294F90B
:10972000036094F9063094F9055016F1410F94F94D
:109730000440C8BF013114F1410FC8BF013115F118
:10974000410FC8BF013113F1410F0EEB0203C8BF37
:1097500001310433E0D10432BCF1000F0ED126E018
:1097600006464046494600F035F9014630461EE0BF
:1097700000211CE00022BCF1000F18D018F90230C3
:1097800013F1410FC8BF0131BCF1010F0FD04244AA
:1097900092F9013013F1410FC8BF0131BCF1020F42
:1097A00005D092F9022012F1410FC8BF01318B455B
:1097B0000BD9037EABEB0101DA1E18BF1A4692B13A
:1097C000012A0DD10A4600210DE0D0E907014A46E1
:1097D000CB68414601B0BDE8000FBDE8F040184736
:1097E0004A0801314908D0F810A0561CD0E9074BAF
:1097F0000091013E07D0DBF81020204651469047EB
:109800000028F6D006E0DBF80C30204641464A46F8
:10981000984720B1012001B0BDE8000FF0BD009EC7
:109820000025AE4209D0DBF8102020465146904773
:1098300001350028F5D0691E00E031460020B14214
:1098400038BF012001B0BDE8000FF0BDD0E907032B
:10985000DB681847B0B502AF84B01C460546D0E9B6
:109860000703DB68984707F1080C00218DF80C000E
:1098700002A89CE80C108DF80D1021460295CDF839
:1098800000C0FFF7F9FB07F114052ECD0095FFF797
:10989000F3FB9DF80D209DF80C10012A42EA01000F
:1098A00008BF5FEAC17103D000F0010004B0B0BD91
:1098B0000298017D49070CD4D0E907010222CB6848
:1098C0004BF6CB31C0F20001984700F0010004B024
:1098D000B0BDD0E907010122CB684BF6CA31C0F216
:1098E0000001984700F0010004B0B0BDF0B503AF2F
:1098F0004DF8048D8AB004463869BE688642CDE9C9
:10990000026043D11D46D4E90703DB689847002174
:109910008DF815108DF8140004948EB3FC684BF686
:10992000C448083D04A8C0F2000855F8081F2346A3
:10993000CDF800806A68FFF79FFB0834013EF4D140
:109940009DF814109DF8152042EA0100D20717D0A7
:10995000C90715D10498017D490708D4D0E907014A
:109960000222CB684BF6CB31C0F2000107E0D0E910
:1099700007010122CB684BF6CA31C0F200019847BB
:1099800000F001000AB05DF8048BF0BD002002A9D0
:1099900004904BF6B440C0F2000003AA04AB009060
:1099A0000020FFF765F900780A4638B14AF6203101
:1099B0001046C0F200010422FFF747BE4BF6D44127
:1099C0001046C0F200010522FFF73FBE80B56F468A
:1099D00000F08AFEF0B503AF2DE9000F82B081469A
:1099E000033020F0030AAAEB0908414535D20029CB
:1099F00046D001F0030C8A084FF0000000F03182DD
:109A0000A0EB820E09F101066FF00305731904350E
:109A100093F9031093F9064093F9052011F1410FD2
:109A200093F90430C8BF01300EEB050113F1410F6B
:109A3000C8BF013012F1410FC8BF013014F1410F0E
:109A4000C8BF01300431E1D12A1DBCF1000F40F044
:109A50000D8202B0BDE8000FF0BDA1EB080E5FEA79
:109A60009E0CC4D00EF00302CA4501D100204CE088
:109A7000A9EB0A0010F1040F07D90020002528E007
:109A8000002002B0BDE8000FF0BD09F1010B00207D
:109A90006FF003060BEB060595F9034095F90630C8
:109AA00095F9051014F1410F95F90450C8BF013024
:109AB00015F1410FC8BF013011F1410FC8BF01308E
:109AC00013F1410FC8BF013016F1080506F1040675
:109AD000E0D1CA4519D019F9051011F1410FC8BFDD
