:10400000008000200144000087460000C7480000EF
:104010008746000087460000874600000000000039
:1040200000000000000000000000000087460000C3
:104030008746000000000000874600008746000019
:10404000874600008746000087460000874600003C
:10405000874600008746000087460000874600002C
:10406000874600008746000087460000874600001C
:10407000874600008746000087460000874600000C
:1044000000F043F90E480F490022814201D004C058
:10441000FBE70D480D490E4A814202D008CA08C088
:10442000FAE70C484FF47001026842EA01020260A8
:10443000BFF34F8FBFF36F8F00F067F800DE00000F
:1044400000000020040000200000002000000020E8
:10445000984A000088ED00E080B56F4600F0FCF956
:1044600080BD40F20001C2F20001012008707047D7
:1044700081B0ADF80200C04301B0704781B0ADF823
:104480000000ADF80210084301B0704781B0ADF8EC
:104490000000ADF80210084001B0704787B00190ED
:1044A00002904FF40061ADF80E100490ADF81610B4
:1044B0000180069007B0704787B0019002904FF4DA
:1044C0000061ADF80E100490ADF816100180069052
:1044D00007B0704787B0019002904FF40061ADF8CB
:1044E0000E100490ADF816100180069007B07047CA
:1044F00087B0019002900021ADF80E100490ADF845
:1045000016100180069007B0704780B56F4600F026
:1045100000F880B56F46B8B0FFF7A3FFA7F1BE0063
:104520000E902020C4F204000F90129010900220F0
:1045300011902220C4F204000790139024900020D0
:104540000690FFF795FF01460698FFF79FFF069933
:10455000FFF794FFADF8940027F8520CA7F1520032
:10456000FFF79CFF014607980988359027F8061C3D
:10457000379000F0FEF84EF60850CEF20000099099
:1045800000F088F80A90B0F5804F4FD1FFE7A7F10F
:10459000BE0003900D902021C4F2040105911E91EC
:1045A00021911F9100200490209022912691FFF7E5
:1045B0005FFF01460498FFF769FF0499FFF75EFF6C
:1045C000ADF89C0027F84A0CA7F14A00FFF782FFDC
:1045D000014605980988329027F8121C349000F0A3
:1045E000C8F8039A049805990C9219911C911A9194
:1045F0001B901D912891FFF73BFF01460498FFF7A0
:1046000045FF0499FFF73AFFADF8A40027F8420CE4
:10461000A7F14200FFF76CFF0146059809882F902B
:1046200027F81E1C319000F0A4F8B0E7A7F1BE00F7
:104630000B902021C4F2040102911491179115915D
:1046400000200190169018912A91FFF711FF014662
:104650000198FFF71BFF0199FFF710FF27F8320CB5
:1046600027F83A0CA7F13A00FFF726FF0146029817
:1046700009882C9027F82A1C2E9000F07AF8FFE782
:10468000FFF7EAFEFCE7FFE7FEE7704781B0009026
:10469000FFE7FEE780B56F4684B001900290FFE728
:1046A00001980421002200F007F8FFE70198006854
:1046B0000390039804B080BD80B56F4690B002911E
:1046C0000390134604930B900C9107F8092C44F6C1
:1046D000F800C0F200000E904FF0553000EA510093
:1046E000081A4FF0333101EA900120F0CC30084431
:1046F00000EB101020F0F0304FF001314843000E75
:104700000F900F98012808D1FFE7039802990246FD
:104710000192013908421AD01DE044F6F800C0F2B7
:10472000000005900120069044F67010C0F20000D1
:104730000168406809910A900420079000200890C1
:1047400044F6EC11C0F2000105A800F087F80498C7
:10475000C00720B900E003E0019840B900E006E09E
:1047600044F60010C0F200006E2100F096F810B080
:1047700080BD80B56F4684B000900A4601920290D9
:1047800027F8021CFFE700980221002200F006F83B
:10479000FFE701980099088004B080BD80B56F469E
:1047A00090B001910290134603930A900B9107F881
:1047B0000D2C44F6F802C0F200020D920E904FF05C
:1047C000553000EA5100081A4FF0333101EA9001E8
:1047D00020F0CC30084400EB101020F0F0304FF007
:1047E00001314843000E0F900F98012808D1FFE7D0
:1047F0000298019902460092013908421AD01DE040
:1048000044F6F800C0F2000004900120059044F640
:104810007010C0F2000001684068089109900420FF
:1048200006900020079044F6EC11C0F2000104A8A5
:1048300000F014F80398C00720B900E003E00098E6
:1048400040B900E006E044F6FC10C0F200006F2121
:1048500000F023F810B080BD00BF704780B56F46F0
:1048600084B0CDE9010101A80122ADF80C20FFF7C9
:104870000DFF80B56F468AB00DF1040C90E87043CF
:104880000020634683E870438DF8240007A88DF864
:104890002510CDE907C2FFF7F9FE80B56F4688B055
:1048A0000022CDE906010492012303920422029220
:1048B00044F68822C0F2000268460021019306AB4C
:0C48C0000093FFF7D6FFFFE7FEE7D4D41B
:1048CC0069735F616C69676E65645F746F3A2061D0
:1048DC006C69676E206973206E6F74206120706F35
:1048EC007765722D6F662D74776F0000CC480000D1
:1048FC002A000000756E7361666520707265636FC7
:10490C006E646974696F6E2873292076696F6C61A7
:10491C007465643A207074723A3A726561645F76B9
:10492C006F6C6174696C6520726571756972657301
:10493C0020746861742074686520706F696E74658A
:10494C007220617267756D656E7420697320616C7D
:10495C0069676E656420616E64206E6F6E2D6E7576
:10496C006C6C000000000000000000002F686F6DF0
:10497C00652F646F6D2F2E7275737475702F746F35
:10498C006F6C636861696E732F737461626C652DF3
:10499C007838365F36342D756E6B6E6F776E2D6C86
:1049AC00696E75782D676E752F6C69622F727573D1
:1049BC00746C69622F7372632F727573742F6C69C8
:1049CC0062726172792F636F72652F7372632F70CD
:1049DC0074722F636F6E73745F7074722E727300C7
:1049EC007849000073000000C80500000D000000AD
:1049FC00756E7361666520707265636F6E64697441
:104A0C00696F6E2873292076696F6C617465643ADE
:104A1C00207074723A3A77726974655F766F6C6164
:104A2C0074696C6520726571756972657320746840
:104A3C0061742074686520706F696E746572206192
:104A4C007267756D656E7420697320616C69676E31
:104A5C00656420616E64206E6F6E2D6E756C6C6C6F
:104A6C006962726172792F636F72652F7372632F33
:104A7C0070616E69636B696E672E72736B4A0000AE
:0C4A8C001D000000DA0000000500000022
:0400000300004401B4
:00000001FF
