:1040000000800020C140000047430000AF4C00008A
:104010004743000047430000474300000000000002
:104020000000000000000000000000004743000006
:1040300047430000000000004743000047430000E2
:1040400019410000CB41000051420000C142000074
:104050004743000047430000474300004743000038
:104060004743000047430000474300004743000028
:104070004743000047430000474300004743000018
:104080004743000047430000474300004743000008
:1040900047430000474300004743000047430000F8
:1040A00047430000474300004743000047430000E8
:1040B00047430000474300004743000047430000D8
:1040C00000F042F90E480F490022814201D004C09D
:1040D000FBE70D480D490E4A814202D008CA08C0CC
:1040E000FAE70C484FF47001026842EA01020260EC
:1040F000BFF34F8FBFF36F8F00F0F8F800DE0000C2
:10410000000000209C000020000000200000002093
:10411000904E000088ED00E0B0B502AF40F2980488
:104120000120C2F20004207046F20030C4F2000008
:10413000016821F48031016000F0EEF840F20002E5
:10414000C2F20002116891BB536C40F2420C4FF076
:10415000FF31C4F2070C1160D3B1916C40292CD20D
:104160005518013101F03F014FF0010E2D79013B4F
:1041700084F800E0C2E911318CF80150516C79B932
:1041800084F800E09CF8001001F07B01043105E0A8
:10419000012121709CF8001001F07B018CF80010C7
:1041A000116801311160BDE8B04000F0C0B844F6BC
:1041B0002C50C0F2000000F0D2F844F6105208462D
:1041C000C0F20002402100F0EFF8F0B503AF4DF867
:1041D00004BD40F2980546F20430C2F20005012603
:1041E0002E70C4F2000001684224C4F2070421F4D6
:1041F000803101602E70207800F05B00207000F0AC
:104200008BF840F20001C2F200010A68D2B94FF007
:10421000FF322E700A6022784B6C02F05B06002B96
:10422000134618BF06F1A00312F0840F18BF1346FF
:1042300023700A6801320A605DF804BBBDE8F040F3
:1042400000F075B844F63C50C0F2000000F087F86A
:10425000B0B502AF40F298000121C2F20000017037
:1042600046F20830C4F20000016821F48031016098
:1042700020200021C4F2040001804520C4F2070080
:10428000057800F049F840F24C01C2F200010A68DA
:1042900082B94A6C3F2A07D88B6C541C4C641A4470
:1042A00002F03F020A44157100220A60BDE8B040E6
:1042B00000F03DB844F64C50C0F2000000F04FF85A
:1042C00040F2980046F20C32C2F200000121017067
:1042D000C4F20002136823F48033136001702020BD
:1042E000C4F204004FF400610180704740F298006E
:1042F0000121C2F20000002201702020C4F204005B
:104300004FF40061418001800280018002800180C1
:10431000028001800280F6E7D0B502AF00F010F80D
:10432000012121EA000400F007F82046D0BD002852
:1043300008BF704700F002B872B6704762B67047A7
:10434000EFF310807047FEE77047FEE7D1E9070200
:1043500044F65C51D368C0F200010E22184780B5C4
:104360006F468AB00146002005900120029044F675
:104370007C52049007A8039044F24D30C0F2000034
:10438000C0F200020890781E079001A8019200F088
:1043900000F880B56F4684B0CDE9010101A8012283
:1043A000ADF80C20FFF7D1FF80B56F468CB0CDE99A
:1043B00000010020069002200849029169460390FE
:1043C000059008A804900648CDE9090111460B9014
:1043D00001A8089002A8FFF7DCFF00BFB84D00005D
:1043E000C14B0000F0B503AF2DE9000F87B0D7F83F
:1043F0000C901C46154600294ED0D0F814B02B2244
:104400001BF0010108BF4FF4881201EB090A069264
:10441000D7F808805FEA4B7149D5102C5AD2002C8E
:1044200064D004F0030CA2084FF0000160D002F049
:104430000302CDF8108005F10108CDE90249A1EB96
:10444000820E6FF00302059508EB0205043295F920
:10445000033095F9064095F9056013F1410F95F980
:104460000450C8BF01310EEB020315F1410FC8BF64
:10447000013116F1410FC8BF013114F1410FC8BF1E
:1044800001310433E0D1DDE904850432DDE902497C
:10449000BCF1000F30D147E02D21D0F814B009F164
:1044A000010A0691D7F808805FEA4B71B5D4002560
:1044B0000168E9BB2146D0E9074600913146069ADA
:1044C0002B46204600F0EEF860B1012007B0BDE8B1
:1044D000000FF0BD06462846214600F006F90146C9
:1044E000304621E0F3682046414677E000211BE09A
:1044F0000022BCF1000F17D0AB5613F1410FC8BF1B
:104500000131BCF1010F0FD02A4492F9013013F1AF
:10451000410FC8BF0131BCF1020F05D092F9022052
:1045200012F1410FC8BF01318A4401680029C1D08E
:10453000CDE90485D0F80480D04512D95FEA0B712B
:104540001FD4017EA8EB0A02A346CA46032908BF6E
:104550000121002949D0012949D111464FF0000914
:1045600049E02146D0E9074600913146DDE90532B0
:10457000204600F097F870B3012007B0BDE8000FA7
:10458000F0BD3021D0F810B0224601610121057E36
:10459000D0E9074601763146039000922046DDE9D6
:1045A000053200F07FF80146012000297FF48EAF2C
:1045B0000695A8EB0A00DDF81080451C013D3AD0B5
:1045C00032692046302190470028F7D0012007B0FB
:1045D000BDE8000FF0BDF368204604994A4607B0D5
:1045E000BDE8000FBDE8F0401847914603E05108D0
:1045F00001324FEA520906694D1CD0E90748013DD6
:104600000BD0D8F810202046314690470028F6D02D
:10461000012007B0BDE8000FF0BDCDF800B0204686
:10462000DDE90532414600F03DF878B1012007B0E0
:10463000BDE8000FF0BDF368204641464A46984762
:1046400080B1012007B0BDE8000FF0BDD8F80C30F4
:10465000204604995246984770B1012007B0BDE842
:10466000000FF0BD039806990176C0F810B0002045
:1046700007B0BDE8000FF0BD0025A94509D0D8F866
:10468000102020463146904701350028F5D0691E9C
:1046900000E049460020494538BF012007B0BDE889
:1046A000000FF0BDF0B503AF4DF8048DD7F80880CA
:1046B0001C460E46B2F5881F0AD0336911460546DE
:1046C00098470146284619B101205DF8048BF0BDDA
:1046D0003CB1F368214642465DF8048BBDE8F040EA
:1046E000184700205DF8048BF0BDF0B503AF2DE94D
:1046F000000F82B08146033020F0030AAAEB0908BC
:10470000414535D2002946D001F0030C8A084FF00C
:10471000000000F03182A0EB820E09F101066FF07B
:1047200003057319043593F9031093F9064093F9BF
:10473000052011F1410F93F90430C8BF01300EEB91
:10474000050113F1410FC8BF013012F1410FC8BF7D
:10475000013014F1410FC8BF01300431E1D12A1DED
:10476000BCF1000F40F00D8202B0BDE8000FF0BDBB
:10477000A1EB080E5FEA9E0CC4D00EF00302CA45FE
:1047800001D100204CE0A9EB0A0010F1040F07D979
:104790000020002528E0002002B0BDE8000FF0BD99
:1047A00009F1010B00206FF003060BEB060595F9EC
:1047B000034095F9063095F9051014F1410F95F96C
:1047C0000450C8BF013015F1410FC8BF013011F1CD
:1047D000410FC8BF013013F1410FC8BF013016F1BE
:1047E000080506F10406E0D1CA4519D019F90510EB
:1047F00011F1410FC8BF0130B8F1010F10D009EB22
:10480000050191F9013013F1410FC8BF0130B8F132
:10481000020F05D091F9021011F1410FC8BF01300C
:1048200009EB08040023C2B12EF00301214491F9E1
:10483000006016F1410FC8BF0123012A0DD091F984
:10484000016016F1410FC8BF0133022A05D091F96A
:10485000021011F1410FC8BF0133184412E04FF0AC
:1048600000083FFA88F23FFA98F31A44ACEB0B0CBD
:104870000AEB8B041BF0030102EB024200EB124037
:1048800040F04981BCF1000F3FF46EAFBCF1C00FA6
:10489000E34628BF4FF0C00BA246BCF1040FDED3A5
:1048A0006FF00F01012201EB8B01302902EB111295
:1048B000CDE9002A03D24FF000085446ABE022F0C5
:1048C00003094FF00008544694E80E04B9F10409B6
:1048D000A6696FEA010E4FEADE1545EA91116FEA0B
:1048E000020521F0FE314FEAD51545EA9212414406
:1048F00022F0FE320A446FEA03014FEAD11545EA7D
:10490000931323F0FE3325691A446FEA0A034FEA32
:10491000D313616943EA9A13D4F8388023F0FE3345
:10492000D4F83CE01A446FEA05034FEAD31343EA94
:104930009513E56923F0FE331A446FEA01034FEA49
:10494000D31343EA911121F0FE31236A11446FEA37
:1049500006024FEAD21242EA9612666A22F0FE324C
:1049600011446FEA05024FEAD21242EA9512A56A93
:1049700022F0FE3211446FEA03024FEAD21242EAF9
:104980009312E36A22F0FE3211446FEA06024FEA04
:10499000D21242EA9612266B22F0FE3211446FEADE
:1049A00005024FEAD21242EA9512656B22F0FE32FE
:1049B00004F1400411446FEA03024FEAD21242EAC2
:1049C000931222F0FE3211446FEA06024FEAD2122D
:1049D00042EA961222F0FE3211446FEA05024FEAD3
:1049E000D21242EA951222F0FE3211446FEA080216
:1049F0004FEAD21242EA981222F0FE3211446FEAD4
:104A00000E024FEAD21242EA9E1222F0FE3202EB6E
:104A100001087FF459AF0099DDF804A011F0030EEE
:104A20003FF41FAF94E84C00BEF1010FE5686FEA58
:104A300002014FEAD11141EA92116FEA03024FEAF3
:104A4000D21221F0FE3142EA9312414422F0FE32AA
:104A500011446FEA06024FEAD21242EA961222F09D
:104A6000FE3211446FEA05024FEAD21242EA951271
:104A700022F0FE3202EB01083FF4F3AE04F1100520
:104A8000BEF1020F2ECD6FEA01064FEAD61646EAB6
:104A900091116FEA020621F0FE314FEAD61646EA7E
:104AA0009212414422F0FE3211446FEA03024FEAAF
:104AB000D21242EA931222F0FE3211446FEA05024A
:104AC0004FEAD21242EA951222F0FE3202EB0108BE
:104AD0003FF4C7AE04F120064ECECD43ED0945EAC2
:104AE0009111D54321F0FE31ED0945EA921241447E
:104AF00022F0FE321144DA43D20942EA931222F044
:104B0000FE321144F243D20942EA961222F0FE32FA
:104B100002EB0108A5E60BF0FC0301295AF823205B
:104B20006FEA02064FEAD61646EA921222F0FE32E9
:104B300015D00AEB830302295E686FEA06054FEA87
:104B4000D51545EA961626F0FE36324407D0996808
:104B5000CB43DB0943EA911121F0FE310A443FFACD
:104B600082F13FFA92F2114401EB014100EB114056
:104B700002B0BDE8000FF0BD0022BCF1000F3FF411
:104B8000F3AD19F9021011F1410FC8BF0130BCF1AA
:104B9000010F3FF4E9AD4A4492F9011011F1410FC0
:104BA000C8BF0130BCF1020F3FF4DEAD92F9021034
:104BB00011F1410FC8BF013002B0BDE8000FF0BDD8
:104BC000F0B503AF2DE9000F87B0046844F6C85074
:104BD00042F2107E0D467445C0F200003DD341F212
:104BE00059784EF2FF03A7F1260B0021CDF2B7183A
:104BF00041F27B494FF0640AC0F2F5530395A4FBE0
:104C000008250BEB010C04399C424FEA553202FB9C
:104C10001E451446AEB24FEA960606FB09F64FEA69
:104C2000564606FB1A5530F81660ACF80660ADB271
:104C300030F81550ACF80850E1D8039D01F10A0393
:104C40001446632C0CD821460A291BD330F81100D6
:104C50009A1EA7F1260188521AE00A23632CF2D982
:104C6000A1B241F27B428908023B51436422A7F181
:104C70002606490C01FB124292B230F81220F25281
:104C80000A29E3D241F030005A1EA7F126018854C8
:104C9000C2F10A00114401220023CDE90010284688
:104CA0000121FFF79FFB07B0BDE8000FF0BDFEE755
:104CB0002F686F6D652F646F6D2F2E636172676F44
:104CC0002F72656769737472792F7372632F696EBF
:104CD0006465782E6372617465732E696F2D313946
:104CE00034396366386336623562353537662F632B
:104CF000697263756C61722D6275666665722D31BD
:104D00002E312E302F7372632F6C69622E727300F6
:104D1000B04C00005F000000260300000A00000005
:104D20007372632F756172742E727300204D0000D0
:104D30000B0000006B00000024000000204D00006C
:104D40000B0000009D00000024000000204D00002A
:104D50000B000000B000000024000000426F7272DF
:104D60006F774D75744572726F72616C72656164B4
:104D70007920626F72726F7765643A206A4D000025
:104D800012000000696E646578206F7574206F668C
:104D900020626F756E64733A20746865206C656E6E
:104DA00020697320206275742074686520696E64C0
:104DB0006578206973200000844D00002000000009
:104DC000A44D00001200000030303031303230335A
:104DD00030343035303630373038303931303131A9
:104DE000313231333134313531363137313831398F
:104DF0003230323132323233323432353236323787
:104E0000323832393330333133323333333433356C
:104E10003336333733383339343034313432343352
:104E20003434343534363437343834393530353138
:104E3000353235333534353535363537353835391E
:104E40003630363136323633363436353636363716
:104E500036383639373037313732373337343735FC
:104E600037363737373837393830383138323833E2
:104E700038343835383638373838383939303931C8
:104E800039323933393439353936393739383939AE
:04000003000040C1F8
:00000001FF
