:100000000080002001400000774000008140000097
:1000100077400000774000007740000000000000BB
:100020000000000000000000000000007740000019
:10003000774000000000000077400000774000009B
:1000400077400000774000007740000077400000D4
:1000500077400000774000007740000077400000C4
:1000600077400000774000007740000077400000B4
:1000700077400000774000007740000077400000A4
:1040000000F03BF80E480F490022814201D004C065
:10401000FBE70D480D490E4A814202D008CA08C08C
:10402000FAE70C484FF47001026842EA01020260AC
:10403000BFF34F8FBFF36F8F00F013F800DE000067
:1040400000000020000000200000002000000020F0
:104050008440000088ED00E080B56F4600F00EF867
:1040600080BD80B56F4600F000F880B56F46FFE771
:10407000FFF7F2FFFCE7FFE7FEE7704700BF70477E
:04408000FFE7FEE771
:0400000300004001B8
:00000001FF
