:1040000000800020C1400000654900004F530000BF
:104010006549000065490000654900000000000096
:1040200000000000000000000000000065490000E2
:104030006549000000000000654900006549000076
:1040400065490000654900006549000065490000B8
:10405000BB41000025420000514200009142000097
:104060006549000065490000654900006549000098
:104070006549000065490000654900006549000088
:104080006549000065490000654900006549000078
:104090006549000065490000654900006549000068
:1040A0006549000065490000654900006549000058
:1040B0006549000065490000654900006549000048
:1040C00000F051FC0E480F490022814201D004C08B
:1040D000FBE70D480D490E4A814202D008CA08C0CC
:1040E000FAE70C484FF47001026842EA01020260EC
:1040F000BFF34F8FBFF36F8F00F0E1F800DE0000D9
:10410000000000202400002000000020000000200B
:10411000F453000088ED00E0002A44D0F0B503AF6E
:104120002DE9000F81B00668422492468846C4F209
:104130000704E94601E000F013FC4846009600F051
:10414000AEFB51B920788006F5D4207800F05B00F2
:10415000A030207000F004FCEFE7514528BF514625
:104160000D4641462A4601F0F0F848462946AB463E
:1041700000F0BAFB2078810607D540070AD500F089
:10418000EFFB207810F0240FF9D1207800F05B00CD
:10419000A0302070D844BAEB0B0ACED101B0BDE8F4
:1041A000000FBDE8F04000207047084645F250314E
:1041B000C0F20001052200F009BDD0B502AF82B007
:1041C00040F220000121C2F20000017046F21030DE
:1041D000C4F20000016821F48031016040F2000067
:1041E000C2F20000019001A800F08BFB4224C4F24F
:1041F000070489B100780121607001A800F09BFBE1
:1042000040F20000C2F2000000F006FB40B120784E
:1042100000F07B00043002E0207800F05B002070AA
:1042200002B0D0BD40F220000121C2F200000170B6
:1042300046F21430C4F20000016821F480310160BC
:104240004220C4F20700017801F05B010170704761
:1042500080B56F4682B040F220000121C2F200001A
:10426000017046F21830C4F20000016821F4803178
:1042700001604520C4F20700017840F20000C2F25C
:1042800000001030019001A800F0CDFA02B080BD0E
:1042900040F220000121C2F200001822017046F213
:1042A0001C30C4F20000016821F480310160442018
:1042B000C4F20700017862F3DF010170704780B536
:1042C0006F4600F000F880B56F46A4B0222002AD22
:1042D000C4F204004FF400610180284640214024CC
:1042E00000F0D0FF12AE4021304600F0CBFF4EF27E
:1042F00000104FF0100BCEF200002021046040F2BD
:104300002009C0F800B0C2F20009016080210160FC
:1043100046F210304FF0010AC4F20000A32189F8E0
:1043200000A08160A42140F200040160A521C2F236
:1043300000044160A621C16020462946402200F0C9
:1043400065FA04F110003146402200F05FFA47F2AE
:1043500000080025C4F2040840F6C806D8F800009A
:10436000C022C4F2040620F00050C8F80000422029
:10437000C4F207000570017801F0FC010170F22120
:10438000C57180F80BB000F8025C01710C21457119
:1043900000F8011C0721817640F60351C4F20401A4
:1043A0000D700A704FF0806146F8045C042246F8F4
:1043B000041C56F8041C41F4803146F8041C052105
:1043C00035603160316862F31C613160316841F4FD
:1043D00080313160017841F050010170229400F089
:1043E000B7FAD8F80000822120F40060C8F8000075
:1043F000CC20C4F20900018044F24020C0F20F003A
:1044000000F0A8FA45F2553122A8C0F200011322AB
:10441000FFF782FE002840F0E3814FF0805089F8DA
:1044200000A046F8805C40F6400446F87C5CC4F28C
:10443000050446F8800C46F87C0C0020C1F201000F
:1044400046F8800C46F87C0CD8F8000020F00400F8
:10445000C8F80000208820F4E06000F5807020801B
:104460006088C00509D46088C0055CBF60885FEAC9
:10447000C05002D46088C005F2D540F2001045F269
:104480007331C4F20200C0F2000160601022208883
:1044900020F4E06000F50070208022A8FFF73CFEC9
:1044A000002840F0A28120884FF4124C4FF0010EFA
:1044B0004FF0800920F4E06020802088002640F042
:1044C00020002080002015E00021621808EB011375
:1044D00002F8200C02F8200C43F80C5003F51243AC
:1044E00083F805E09E7101369971102E02F8209C28
:1044F00008BF0026B50414F8201C01F08102802AB0
:1045000002D011F04001DFD014F81F1C01F081022D
:10451000802A03D011F0400100F0268114F81E1CFF
:1045200001F08102802A03D011F0400100F01E81C9
:1045300014F81D1C01F08102802A03D011F0400103
:1045400000F0168114F81C1C01F08102802A03D0AF
:1045500011F0400100F00E8114F81B1C01F08102E3
:10456000802A03D011F0400100F0068114F81A1CD3
:1045700001F08102802A03D011F0400100F0FE809A
:1045800014F8191C01F08102802A03D011F04001B7
:1045900000F0F68014F8181C01F08102802A03D084
:1045A00011F0400100F0EE8014F8171C01F08102B8
:1045B000802A03D011F0400100F0E68014F8161CA8
:1045C00001F08102802A03D011F0400100F0DE806A
:1045D00014F8151C01F08102802A03D011F040016B
:1045E00000F0D68014F8141C01F08102802A03D058
:1045F00011F0400100F0CE8014F8131C01F081028C
:10460000802A03D011F0400100F0C68014F8121C7B
:1046100001F08102802A03D011F0400100F0BE8039
:1046200014F8111C01F08102802A03D011F040011E
:1046300000F0B68014F8101C01F08102802A03D02B
:1046400011F0400100F0AE8014F80F1C01F081025F
:10465000802A03D011F0400100F0A68014F80E1C4F
:1046600001F08102802A03D011F0400100F09E8009
:1046700014F80D1C01F08102802A03D011F04001D2
:1046800000F0968014F80C1C01F08102802A03D0FF
:1046900011F0400100F08E8014F80B1C01F0810233
:1046A000802A03D011F0400100F0868014F80A1C23
:1046B00001F08102802A02D011F040017ED014F86E
:1046C000091C01F08102802A02D011F0400177D04C
:1046D00014F8081C01F08102802A02D011F0400178
:1046E00070D014F8071C01F08102802A02D011F06A
:1046F000400169D014F8061C01F08102802A02D022
:1047000011F0400162D014F8051C01F08102802AEA
:1047100002D011F040015BD014F8041C01F08102BA
:10472000802A02D011F0400154D014F8031C01F08B
:104730008102802A02D011F040014DD014F8021CF1
:1047400001F08102802A02D011F0400146D014F815
:10475000011C01F08102802A3FF4CDAE11F040012E
:104760007FF4C9AE1F21B0E60121AEE60221ACE61E
:104770000321AAE60421A8E60521A6E60621A4E66F
:104780000721A2E60821A0E609219EE60A219CE66F
:104790000B219AE60C2198E60D2196E60E2194E66F
:1047A0000F2192E6102190E611218EE612218CE66F
:1047B00013218AE6142188E6152186E6162184E66F
:1047C000172182E6182180E619217EE61A217CE66F
:1047D0001B217AE61C2178E61D2176E61E2174E66F
:1047E00045F2D030C0F2000003E045F2C030C0F224
:1047F000000045F28433009045F294307A1EC0F2F6
:104800000000C0F200032B2100F0BAF80160002183
:1048100042608160C16070478168C068081AB0FA60
:1048200080F040097047F0B503AF4DF8048D026881
:1048300000244FF0000ED2F80880BFF35F8FD2F84B
:1048400000C05068D5682B1A38BF2B46C61A18BF4F
:104850000126B8EB000038BF4046A8EB050598429A
:1048600088BF0124C01AB5FA85F518BF012034436A
:104870006D0928432040012804BF0CF803104FF0B5
:10488000010ED16853687144B1EB430F28BFA1EB0F
:104890004301BFF35F8FD1605DF8048BF0BDD0B5ED
:1048A00002AF0168D1F808E0BFF35F8F0868D1F864
:1048B00004C0C968BEEB0C0338BF7346B1EB0C02F1
:1048C00038BF0A46AEEB0101B1FA81F19C1A18BF5C
:1048D00001244909214318BF1044934298BF6346FD
:1048E000002918BF991AD0BD0068C26843681144F6
:1048F000B1EB430F28BFA1EB4301BFF35F8FC16052
:1049000070470368DA68BFF35F8F1868D3F804C094
:104910009B68934204BF00217047B2EB0C0138BF83
:104920001146B3EB0C0238BF1A46914298BF61465C
:104930001044891A70470068826843681144B1EBDB
:10494000430F28BFA1EB4301BFF35F8F8160704726
:1049500062B67047012101EB50000138FDD170476C
:1049600030BF7047FEE77047FEE780B56F4684B002
:10497000CDE9010101A80122ADF80C20FFF7F4FFF9
:1049800080B56F468EB08DE80F00002045F2E4310F
:10499000089002200590C0F2000107900AA8069036
:1049A00045F2AB00C0F20000D7F808C00D9002A895
:1049B0000C9045F2B300C0F2000004910B906846E1
:1049C0000A9004A86146FFF7D0FFF0B503AF2DE9C8
:1049D000000F81B08846D0F800C081685CEA01030E
:1049E00002D1D0E90701B3E0C90730D0C66808EBAF
:1049F000020E4FF000094146E6B9714527D091F902
:104A00000010B1F1FF3FDCBFC9B2E029B9F1000FDE
:104A100023D0914520D218F9091011F1400F1CDA6A
:104A200000211BE0F0292CBF211DE11C0B1B013EC6
:104A30009944E2D071450AD00C4611F9013BB3F11B
:104A4000FF3FF3DCD9B2E029ECD2A11CEEE791469E
:104A5000BCF1000F09D178E0E2D1414600290CBF3A
:104A600091468846BCF1000F6FD0D0F804B0B9F180
:104A7000100F35D2B9F1000F3AD009F0030C5FEAFC
:104A800099024FF0000135D002F0030208F1010A4B
:104A9000A1EB820E6FF003020AEB0204043294F9D8
:104AA000036094F9063094F9055016F1410F94F91A
:104AB0000440C8BF013114F1410FC8BF013115F1E5
:104AC000410FC8BF013113F1410F0EEB0203C8BF04
:104AD00001310433E0D10432BCF1000F0ED126E0E5
:104AE00006464046494600F075F8014630461EE04D
:104AF00000211CE00022BCF1000F18D018F9023090
:104B000013F1410FC8BF0131BCF1010F0FD0424476
:104B100092F9013013F1410FC8BF0131BCF1020F0E
:104B200005D092F9022012F1410FC8BF01318B4527
:104B30000BD9037EABEB0101DA1E18BF1A4692B106
:104B4000012A0DD10A4600210DE0D0E907014A46AD
:104B5000CB68414601B0BDE8000FBDE8F040184702
:104B60004A0801314908D0F810A0561CD0E9074B7B
:104B70000091013E07D0DBF81020204651469047B7
:104B80000028F6D006E0DBF80C30204641464A46C5
:104B9000984720B1012001B0BDE8000FF0BD009E94
:104BA0000025AE4209D0DBF8102020465146904740
:104BB00001350028F5D0691E00E031460020B142E1
:104BC00038BF012001B0BDE8000FF0BDD0E90703F8
:104BD000DB681847F0B503AF2DE9000F82B08146BE
:104BE000033020F0030AAAEB0908414535D2002919
:104BF00046D001F0030C8A084FF0000000F031822B
:104C0000A0EB820E09F101066FF00305731904355C
:104C100093F9031093F9064093F9052011F1410F20
:104C200093F90430C8BF01300EEB050113F1410FB9
:104C3000C8BF013012F1410FC8BF013014F1410F5C
:104C4000C8BF01300431E1D12A1DBCF1000F40F092
:104C50000D8202B0BDE8000FF0BDA1EB080E5FEAC7
:104C60009E0CC4D00EF00302CA4501D100204CE0D6
:104C7000A9EB0A0010F1040F07D90020002528E055
:104C8000002002B0BDE8000FF0BD09F1010B0020CB
:104C90006FF003060BEB060595F9034095F9063016
:104CA00095F9051014F1410F95F90450C8BF013072
:104CB00015F1410FC8BF013011F1410FC8BF0130DC
:104CC00013F1410FC8BF013016F1080506F10406C3
:104CD000E0D1CA4519D019F9051011F1410FC8BF2B
:104CE0000130B8F1010F10D009EB050191F9013045
:104CF00013F1410FC8BF0130B8F1020F05D091F98F
:104D0000021011F1410FC8BF013009EB0804002364
:104D1000C2B12EF00301214491F9006016F1410F58
:104D2000C8BF0123012A0DD091F9016016F1410F8E
:104D3000C8BF0133022A05D091F9021011F1410FC9
:104D4000C8BF0133184412E04FF000083FFA88F260
:104D50003FFA98F31A44ACEB0B0C0AEB8B041BF0F4
:104D6000030102EB024200EB124040F04981BCF12A
:104D7000000F3FF46EAFBCF1C00FE34628BF4FF009
:104D8000C00BA246BCF1040FDED36FF00F0101226D
:104D900001EB8B01302902EB1112CDE9002A03D27D
:104DA0004FF000085446ABE022F003094FF0000832
:104DB000544694E80E04B9F10409A6696FEA010E9D
:104DC0004FEADE1545EA91116FEA020521F0FE3146
:104DD0004FEAD51545EA9212414422F0FE320A44C8
:104DE0006FEA03014FEAD11545EA931323F0FE332E
:104DF00025691A446FEA0A034FEAD313616943EA4B
:104E00009A13D4F8388023F0FE33D4F83CE01A44E7
:104E10006FEA05034FEAD31343EA9513E56923F0DC
:104E2000FE331A446FEA01034FEAD31343EA9111A8
:104E300021F0FE31236A11446FEA06024FEAD212D2
:104E400042EA9612666A22F0FE3211446FEA0502C7
:104E50004FEAD21242EA9512A56A22F0FE321144BC
:104E60006FEA03024FEAD21242EA9312E36A22F097
:104E7000FE3211446FEA06024FEAD21242EA96125B
:104E8000266B22F0FE3211446FEA05024FEAD2127D
:104E900042EA9512656B22F0FE3204F1400411449F
:104EA0006FEA03024FEAD21242EA931222F0FE3274
:104EB00011446FEA06024FEAD21242EA961222F039
:104EC000FE3211446FEA05024FEAD21242EA95120D
:104ED00022F0FE3211446FEA08024FEAD21242EA8F
:104EE000981222F0FE3211446FEA0E024FEAD212FB
:104EF00042EA9E1222F0FE3202EB01087FF459AF23
:104F00000099DDF804A011F0030E3FF41FAF94E800
:104F10004C00BEF1010FE5686FEA02014FEAD111C2
:104F200041EA92116FEA03024FEAD21221F0FE31F8
:104F300042EA9312414422F0FE3211446FEA060223
:104F40004FEAD21242EA961222F0FE3211446FEA80
:104F500005024FEAD21242EA951222F0FE3202EB2B
:104F600001083FF4F3AE04F11005BEF1020F2ECD9F
:104F70006FEA01064FEAD61646EA91116FEA020679
:104F800021F0FE314FEAD61646EA9212414422F051
:104F9000FE3211446FEA03024FEAD21242EA931240
:104FA00022F0FE3211446FEA05024FEAD21242EAC1
:104FB000951222F0FE3202EB01083FF4C7AE04F175
:104FC00020064ECECD43ED0945EA9111D54321F09F
:104FD000FE31ED0945EA9212414422F0FE321144BD
:104FE000DA43D20942EA931222F0FE321144F2432C
:104FF000D20942EA961222F0FE3202EB0108A5E63F
:105000000BF0FC0301295AF823206FEA02064FEA4D
:10501000D61646EA921222F0FE3215D00AEB83032E
:1050200002295E686FEA06054FEAD51545EA96162D
:1050300026F0FE36324407D09968CB43DB0943EAB9
:10504000911121F0FE310A443FFA82F13FFA92F2C7
:10505000114401EB014100EB114002B0BDE8000F2B
:10506000F0BD0022BCF1000F3FF4F3AD19F90210BE
:1050700011F1410FC8BF0130BCF1010F3FF4E9ADA0
:105080004A4492F9011011F1410FC8BF0130BCF13F
:10509000020F3FF4DEAD92F9021011F1410FC8BFCB
:1050A000013002B0BDE8000FF0BDD0E90002D268C7
:1050B00010470B46D0E900121846FFF786BCF0B542
:1050C00003AF2DE90007102A1ED3434203F0030863
:1050D00000EB0803834233D9A8F1010CB8F1000FAB
:1050E00006460D461AD00D46064615F801EBB8F1F6
:1050F000010F06F801EB11D04E78B8F1020F46709F
:1051000008D18D1C861C09E084460CEB02039C45EB
:105110003ED36AE08E78CD1C8670C61CBCF1030FAE
:105120000ED3043D043E15F8044F06F8044F6C7886
:105130007470AC78B470EC78F470341D9C42F2D189
:10514000A2EB080E41442EF0030203EB020C8C0785
:1051500058D1634515D20C46256843F8045B634576
:105160000FD2656843F8045B63453EBFA56843F80A
:10517000045B634505D2E568103443F8045B63457E
:10518000EAD311440EF003020CEB02039C452CD22F
:1051900012F00304A2F1010E13D00E46654616F874
:1051A000012B012C05F8012B0DD04A78022C8CF82C
:1051B00001201DD18E1C0CF10205BEF1030F05D29A
:1051C00013E065460E46BEF1030F0ED3311F2A1FB2
:1051D00011F8046F02F8046F4E7856708E7896704E
:1051E000CE78D670161D9E42F2D1BDE80007F0BD04
:1051F000CE1C0CF103058A788CF80220BEF1030F57
:10520000E4D2F2E76345BCD2182421F0030604EA95
:10521000C108CC00C4F10009346806F1080509F0A2
:10522000180955F8046C24FA08FA06FA09F444EA55
:105230000A0443F8044B6345A3D22C6826FA08FA03
:1052400004FA09F646EA0A0643F8046B63453FBFD1
:105250006E6824FA08FA06FA09F444EA0A043CBF24
:1052600043F8044B6345BFF48CAFAC6826FA08FAE8
:10527000103504FA09F646EA0A0643F8046B63455A
:10528000CFD37EE780B56F46042914D3A1F1040C77
:10529000012202EB9C0212F003030ED04FF0000E2D
:1052A000024642F804EB012B0BD110466146BCF1DB
:1052B0000C0F19D222E0024620E0BCF10C0F13D2F1
:1052C0001CE0022BC0F804E006D108390830024681
:1052D000BCF10C0F08D211E000220C3982600C30B6
:1052E0000246BCF10C0F09D3002302461039C2E973
:1052F0000033C2E9023310320329F7D85018824232
:1053000022D211F0030CA1F101010ED04FF0000EDA
:10531000134603F801EBBCF1010F0BD0BCF1020FF7
:1053200082F801E003D1931C04E0134602E000235D
:105330009370D31C032938BF80BD191F002241F888
:10534000042F0B1D8342FAD180BDFFF7B8BEFEE7E4
:105350004572726F720A48656C6C6F2066726F6D71
:10536000205241344D31210A7372632F6D61696E91
:105370002E727343414E20696E697469616C697A5B
:1053800065640A0000000000000000000100000049
:10539000AB41000063616C6C65642060526573759D
:1053A0006C743A3A756E77726170282960206F6E5E
:1053B00020616E2060457272602076616C756500B8
:1053C000685300000B0000003C00000028000000B3
:1053D000685300000B00000037000000360000009A
:1053E0003A2000000100000000000000E05300002F
:0453F00002000000B7
:04000003000040C1F8
:00000001FF
