:1040000000800020C1400000F34E00003963000032
:10401000F34E0000F34E0000F34E000000000000DD
:10402000000000000000000000000000F34E00004F
:10403000F34E000000000000F34E0000F34E0000BD
:10404000F34E0000F34E0000F34E0000F34E00006C
:10405000B7440000214500004D4500008D4500009B
:10406000F34E0000F34E0000F34E0000F34E00004C
:10407000F34E0000F34E0000F34E0000F34E00003C
:10408000F34E0000F34E0000F34E0000F34E00002C
:10409000F34E0000F34E0000F34E0000F34E00001C
:1040A000F34E0000F34E0000F34E0000F34E00000C
:1040B000F34E0000F34E0000F34E0000F34E0000FC
:1040C00000F018FF0E480F490022814201D004C0C1
:1040D000FBE70D480D490E4A814202D008CA08C0CC
:1040E000FAE70C484FF47001026842EA01020260EC
:1040F000BFF34F8FBFF36F8F00F05FFA00DE000059
:10410000000000202400002000000020000000200B
:104110006467000088ED00E0002A44D0F0B503AFEA
:104120002DE9000F81B00668422492468846C4F209
:104130000704E94601E000F0DAFE4846009600F088
:1041400075FE51B920788006F5D4207800F05B0028
:10415000A030207000F0CBFEEFE7514528BF51465C
:104160000D4641462A4602F0E5F848462946AB4648
:1041700000F081FE2078810607D540070AD500F0BF
:10418000B6FE207810F0240FF9D1207800F05B0003
:10419000A0302070D844BAEB0B0ACED101B0BDE8F4
:1041A000000FBDE8F04000207047084646F2543149
:1041B000C0F20001052201F08DBBD0B502AF82B084
:1041C000044600208029019003D201228DF80410BA
:1041D00035E0B1F5006F0BD20222084662F39F1062
:1041E0008DF80500C02040EA91108DF8040026E00B
:1041F00002200A4660F39F12B1F5803F0DD28DF880
:1042000006208A0960F39F12E0208DF8052040EA1D
:1042100011308DF80400032211E08DF807208A097F
:1042200060F39F128DF806200A0B60F39F12F020B6
:104230008DF8052040EA91408DF8040004222068A2
:1042400001A9FFF769FF00281CBF0121217102B0FD
:10425000D0BD0A4646F27C31C0F2000100F0F4BF46
:104260000A460178A1B180B56F4682B00130019055
:1042700046F2643046F27431C0F2000001AB0090A7
:104280001046C0F20001052201F028FB02B080BDFB
:1042900046F259311046C0F20001082201F01ABB63
:1042A000D0B502AF04460068FFF736FF00281CBFF8
:1042B00001212171D0BDF0B503AF2DE9000F9DB0F4
:1042C000834640F2200046F29061C2F200000125D0
:1042D000C0F20001057058460622FFF71DFF0028B6
:1042E00040F0B18046F2A06040F640040222C0F2E5
:1042F000000045F6357101AE12901AA81795C4F268
:1043000005041696C0F2000113924FF0000A1595AD
:104310000DF14809149060881B910FA9ADF83C007D
:1043200003201A9120218DF820000820059146F2E3
:104330003C310790C0F20001CDE903A009A8019229
:104340004A46CDF818A08DF828A0CDF824B000F08A
:104350007BFF002840F0898045F6C961607BC0F290
:10436000000107F84A0C1091A7F14A010F9131465C
:104370003CC948464FF001083CC091E83C0046F279
:104380003C31C0F200013CC0022009AA0A9046F26A
:10439000BC60C0F200000FAC09901AA8CDE90D98DE
:1043A000CDF830800B948DF86CA0CDF868B000F09B
:1043B0004BFF00286ED140F6400045F63571C4F23F
:1043C0000500C0F2000100881091A7F14A0127F80A
:1043D0004A0C48460F912ECE2EC096E82E002EC0D5
:1043E000022046F23C310A9046F2D860C0F200004A
:1043F00009AA099000208DF86C001AA8C0F20001EB
:10440000CDE90D98CDE90B48CDF868B000F01CFF60
:10441000002802BF1DB0BDE8000FF0BD9DF86C0084
:104420008DF8240046F2E860C0F2000046F2B05376
:10443000009046F2485009AAC0F20000C0F2000302
:104440002B2100F064FD46F2187046F23853C0F29A
:104450000000A7F11D02009046F24850C0F2000093
:10446000C0F200032B2100F052FD9DF8280046F217
:10447000B0538DF8480046F20870C0F2000012AA4E
:10448000009046F24850C0F20000C0F200032B2119
:1044900000F03DFD9DF86C008DF8240046F2F860B8
:1044A000C0F20000C2E7084646F22871C0F20001DF
:1044B000052201F00FBAD0B502AF82B040F2200061
:1044C0000121C2F20000017046F21030C4F2000077
:1044D000016821F48031016040F20000C2F2000066
:1044E000019001A800F0D4FC4224C4F2070489B171
:1044F00000780121607001A800F0E4FC40F20000A7
:10450000C2F2000000F04FFC40B1207800F07B00C8
:10451000043002E0207800F05B00207002B0D0BDD3
:1045200040F220000121C2F20000017046F2143076
:10453000C4F20000016821F4803101604220C4F21D
:104540000700017801F05B010170704780B56F468C
:1045500082B040F220000121C2F20000017046F258
:104560001830C4F20000016821F480310160452058
:10457000C4F20700017840F20000C2F200001030DF
:10458000019001A800F016FC02B080BD40F22000AE
:104590000121C2F200001822017046F21C30C4F260
:1045A0000000016821F4803101604420C4F207005A
:1045B000017862F3DF010170704780B56F4600F04B
:1045C00000F880B56F46BEB0222002ADC4F20400F0
:1045D0004FF40061018028464021402401F047FE4D
:1045E00012AE4021304601F042FE4EF200104FF074
:1045F000100BCEF200002021046040F2200AC0F827
:1046000000B0C2F2000A01608021016046F2103061
:104610004FF00109C4F20000A3218AF800908160E4
:10462000A42140F200040160A521C2F2000441600F
:10463000A621C16020462946402200F0AEFB04F1CD
:1046400010003146402200F0A8FB47F200064FF070
:104650000008C4F2040640F6C8053068C022C4F25F
:10466000040520F0005030604220C4F2070080F8BA
:104670000080017801F0FC010170F22180F80780D0
:1046800080F80BB000F8028C01710C2180F80580D5
:1046900000F8011C0721817640F60351C4F20401A1
:1046A00081F800800A704FF0806145F8048C042284
:1046B00045F8041C55F8041C41F4803145F8041CED
:1046C0000521C5F800802960296862F31C61296012
:1046D000296841F480312960017841F0500101706E
:1046E000229400F0FCFB3068822120F400603060EE
:1046F000CC20C4F20900018044F24020C0F20F0037
:1047000000F0EFFB46F2943122A8C0F20001122221
:10471000FFF702FD002840F0A88246F2B0308AF888
:1047200000904FF0020AC0F200000DF18C0B3490A3
:104730003CA8CDF8E490CDF8DC9034ACCDF8E0B0F6
:104740002021CDF8D4A045F635763690C0F200068B
:1047500035F87E0C2246ADF8C80003208DF8A8007D
:104760000820CDE928800DF1C809CDE9258022A8CF
:10477000279146F23C312C902CA8C0F200013D96C6
:10478000CDF8F090CDF88CA08DF8B48000F05CFDF1
:10479000002840F06F8235F87A0C2BA9329121461F
:1047A000ADF8AC00584633964FF001085CC85CC1C8
:1047B00090E85C0046F2C830C0F200005CC146F2EE
:1047C0003C312CAA2C9022A83C903CA8CDE92E98F4
:1047D0004FF00009C0F2000134ACCDE93048CDF80B
:1047E000B4A08DF8F49000F02FFD002840F057821F
:1047F00045F6E7702146C0F2000033902BA83290B6
:10480000A5F188002B9058465CC85CC190E85C001C
:1048100046F2E430C0F200005CC146F23C312CAA02
:104820002C9032A82E9022A83C903CA8C0F2000107
:1048300034ACCDE93048CDF8B4A0CDF8BC808DF8CB
:10484000F49000F001FD002840F0328245F6E77058
:104850002146C0F200004FF0010933902BA832909E
:10486000A5F180002B9058465CC84FF000085CC151
:1048700090E85C0046F20040C0F200005CC146F2E5
:104880003C312CAA2C9032A82E9022A83C903CA817
:10489000C0F2000134ACCDE93049CDF8B4A0CDF878
:1048A000BC908DF8F48000F0CFFC002840F0098225
:1048B00045F6E7702146C0F2000033902BA83290F5
:1048C000A5F17C002B9058465CC85CC190E85C0068
:1048D00046F21C40C0F200005CC146F23C312CAAFA
:1048E0002C9022A83C903CA8C0F2000134AC32AE1F
:1048F000CDE93049CDF8B4A0CDF8BC902E968DF816
:10490000F48000F0A1FC002840F0E4814FF08050DA
:1049100045F8808C45F87C8C45F6357945F8800C57
:10492000C0F2000945F87C0C0020C1F201002BA95F
:1049300045F8800CB44645F87C0C35F87E0C329175
:104940002146ADF8AC005846CDF8CC905CC85CC1AF
:1049500090E85C0046F23840C0F200005CC146F2CC
:104960003C312CAA2C9022A83C903CA80126C0F2F5
:10497000000134ACCDF8B4A0CDE93046E2462F9624
:10498000CDF8B8C08DF8F48000F05EFC002840F04F
:10499000AA8135F87A0C2BA932912146ADF8AC00EA
:1049A0005846CDF8CC903CC83CC190E83C00022071
:1049B0003CC146F23C312CAA2D9046F25440C0F244
:1049C0000000C0F200012C9022A83C903CA834AC1E
:1049D000CDE93046CDE92EA68DF8F48000F034FC08
:1049E000002840F0898147F2000122AEC4F20401A0
:1049F000086820F0040008603046FFF75CFC46F2CF
:104A000064413046C0F200011B22FFF785FB0028FD
:104A100040F07B8140F620050DF18808C4F20505C1
:104A2000288C20F4E06000F5807028844046FFF771
:104A300042FC40F642092BAAC4F20509B9F800006D
:104A4000C0050CD4B9F80000C0055CBFB9F800007F
:104A50005FEAC05003D4B9F80000C005EED54CF6AB
:104A6000FF01D9F80200C0F60041084040F20011F1
:104A7000C4F202010843C9F8020045F6E771D9F80B
:104A80000200C0F20001CDE9322121462B905846A8
:104A90005CC85CC190E85C0001205CC1022134ACC0
:104AA0002D9146F28C41C0F20001CDE93040CDE9B4
:104AB0002EA000202C9146F23C318DF8F4003CA849
:104AC0002CAAC0F20001CDF8F08000F0BDFB002858
:104AD00040F0208122AE3046FFF7EDFB46F29C41CC
:104AE0003046C0F200011A22FFF716FB002840F002
:104AF0001A81288C22AE20F4407000F500702884C2
:104B00003046FFF7D8FB46F2B6413046C0F200010E
:104B10001F22FFF701FB002840F00A813046FFF713
:104B2000CAFB45F6C9612878C0F200018DF8AC00D7
:104B300033912BA932912046A446BBE81E001EC02B
:104B40009BE81E001EC0022101202D9146F2E84183
:104B5000C0F20001CDE930C0CDE92EA000202C919B
:104B600046F23C318DF8F4003CA82CAAC0F20001BA
:104B70003C9600F069FB002840F0DF8022AE304612
:104B8000FFF799FB46F2F8413046C0F200011F22C0
:104B9000FFF7C2FA002840F0E580288C22AE20F40E
:104BA000407028843046FFF786FB46F217513046A6
:104BB000C0F200011322FFF7AFFA002840F0D780BF
:104BC00099F80B0022AC00F07F0089F80B0020461A
:104BD000FFF771FB46F22A512046C0F200010B227A
:104BE000FFF79AFA002840F0C78044F24020C0F254
:104BF0000F0000F076F90DF188084046FFF75BFBE7
:104C00004FF6E6105521CFF6FF704FF6E019295404
:104C10004FF6E410CFF6FF700121CFF6FF794FF089
:104C2000000A80260024295245F809A02E700EE0C3
:104C30002878A00485F800A045F8090040462E70A9
:104C4000FFF739FB0134B4F5006F08BF0024287862
:104C5000C007EDD12878C00704BF28785FEAC0708C
:104C6000E6D12878C007F2D0E2E746F28060C0F2D1
:104C7000000085E09DF8B40046F2B0538DF8D000F6
:104C800046F27060C0F20000C0F20003009046F2ED
:104C90004850C0F2000034AA2B2100F038F99DF8EA
:104CA000F4008DF8B00046F26060C0F200004CE005
:104CB0009DF8F4008DF8B00046F25060C0F200009C
:104CC00043E09DF8F4008DF8B00046F24060C0F279
:104CD00000003AE09DF8F4008DF8B00046F2306034
:104CE000C0F2000031E09DF8F4008DF8B00046F20B
:104CF0002060C0F2000028E09DF8F4008DF8B000BC
:104D000046F21060C0F200001FE046F20060C0F200
:104D1000000035E09DF8F4008DF8B00046F2F05048
:104D2000C0F2000011E046F2E050C0F2000027E0BF
:104D300046F2D050C0F2000022E09DF8F4008DF859
:104D4000B00046F2C050C0F2000046F2B0530090EE
:104D500046F248502CAAC0F20000C0F200032B21FA
:104D600000F0D5F846F2A050C0F2000008E046F28C
:104D70009050C0F2000003E046F28050C0F2000004
:104D800046F23853009046F24850C0F20003C0F299
:104D9000000034AA2B2100F0BAF801600021426023
:104DA0008160C16070478168C068081AB0FA80F0FD
:104DB00040097047F0B503AF4DF8048D0268002438
:104DC0004FF0000ED2F80880BFF35F8FD2F800C01A
:104DD0005068D5682B1A38BF2B46C61A18BF012653
:104DE000B8EB000038BF4046A8EB0505984288BFE5
:104DF0000124C01AB5FA85F518BF012034436D09A6
:104E000028432040012804BF0CF803104FF0010E86
:104E1000D16853687144B1EB430F28BFA1EB430144
:104E2000BFF35F8FD1605DF8048BF0BDD0B502AFEA
:104E30000168D1F808E0BFF35F8F0868D1F804C0BB
:104E4000C968BEEB0C0338BF7346B1EB0C0238BF28
:104E50000A46AEEB0101B1FA81F19C1A18BF012498
:104E60004909214318BF1044934298BF6346002963
:104E700018BF991AD0BD0068C26843681144B1EBED
:104E8000430F28BFA1EB4301BFF35F8FC1607047A1
:104E90000368DA68BFF35F8F1868D3F804C09B68B3
:104EA000934204BF00217047B2EB0C0138BF11469A
:104EB000B3EB0C0238BF1A46914298BF61461044CA
:104EC000891A70470068826843681144B1EB430F48
:104ED00028BFA1EB4301BFF35F8F8160704762B6CB
:104EE0007047012101EB50000138FDD1704730BF00
:104EF0007047FEE77047FEE780B56F4684B0CDE9A6
:104F0000010101A80122ADF80C20FFF7F4FF80B5E4
:104F10006F468EB08DE80F00002046F23471089085
:104F200002200590C0F2000107900AA8069046F200
:104F30009500C0F20000D7F808C00D9002A80C90B0
:104F400046F29D00C0F2000004910B9068460A9062
:104F500004A86146FFF7D0FFF0B503AF2DE9000FBD
:104F60008BB090460A4601684FF0000B08914FF055
:104F7000000A4168002680680990501C0290C8F120
:104F800001000190C8F100000690501E07910A929E
:104F90000590CDF80C8013E00598005D0A38B0FA52
:104FA00080F04009079BA4EB0B02099D0A99DB687E
:104FB00028705944089898470028CB4640F0128141
:104FC000F00740F00A815046C24500F2EE80049698
:104FD00002E0404500F2E9800A99A8EB000EBEF11C
:104FE000070F01EB000926D8804500F0DD80069907
:104FF0000022014419F802300A2B00F0BA808B1805
:105000005E1C00F0D18009EB020675780A2D00F0D5
:1050100091809D1C00F0C880B5780A2D00F090802A
:10502000033300F0C180F3780A2B00F09080043243
:105030008B18DFD1B8E009F1030121F0030CBCEBC0
:10504000090122D08D1EA1F1030A4C1E002219F87D
:1050500002300A2B00F08B8094421AD009EB020335
:1050600093F80180B8F10A0F78D0954211D09E785C
:105070000A2E77D092450CD0DB780A2B76D00432FA
:1050800019F802300A2BE7D171E0AEF1080282462E
:1050900006E0DDF80C80AEF10802824691421AD893
:1050A00040F20010042303EB0C06C0F2011056E995
:1050B000015383F00A34041B234385F00A34041B94
:1050C00025432B4023F07F33B3F1803F03D10831D8
:1050D00008369142EBD9BEEB010365D0029E01EB8D
:1050E0000A02069C504606EB020E019E144402EB97
:1050F000060C03220EEB020515F8046C0A2E2FD0C5
:105100000CEB0206032E4FD015F8036C0A2E2BD0A1
:10511000A618012E48D015F8026C0A2E2FD0934203
:1051200042D015F8015C0A2D2AD00432A518032DAF
:10513000E0D139E001321118481C414526D348E737
:1051400002321118481C4145BFF443AF1EE0033240
:105150001118481C4145BFF43CAF17E0013206E08E
:10516000033A0DE0023202E0023A09E00332DDF8D0
:105170000C801118481C4145BFF42BAF06E0013AE2
:105180000A441118481C4145BFF423AF824619F860
:1051900002000A2850467FF41CAF049E8146044654
:1051A0000998007850B913E04046C34515D08246AF
:1051B0000126D94644460998007848B1079846F236
:1051C0002E71C0F200010422C3680898984748B9BC
:1051D0005C457FF4E1AE0020E4E600200BB0BDE8C2
:1051E000000FF0BD01200BB0BDE8000FF0BDF0B521
:1051F00003AF4DF8048D8568D0E90046287878B172
:1052000046F22E72F368C0F200028846114620462C
:1052100004229847414618B101205DF8048BF0BD87
:10522000A1F10A003269B0FA80F0400928702046E6
:105230005DF8048BBDE8F04010470A4646F2447121
:10524000C0F2000100F000B8F0B503AF2DE9000F87
:105250008DB01669CDE90B0103208DF828000020E0
:105260002021002E099008910690049069D0506981
:10527000002800F09180D2F800A04101D2F808B0D7
:10528000013820F078404FF000084FF0000901305D
:105290000292039101900AEB09014A683AB1DDE9F3
:1052A0000B030968DB689847002840F0858006EB0F
:1052B0000800036906EB8900D0E90221057F8469B3
:1052C00008938DF8285009947AB1012A02D15BF82D
:1052D00031203AB1002256F80830CDE90421022BE2
:1052E0000AD10FE00BEBC1014968012256F80830E2
:1052F000CDE90421022B05D04168012B07D15BF8D1
:1053000031200AB1002203E00BEBC1014968012200
:105310004369079106920BEBC3015BF833004B68BE
:1053200004A99847002847D1039808F1200809F1FB
:1053300008094045AFD1DDE901A25068824530D36C
:105340003FE0D06840B394680DF11008D2F800B087
:10535000002604EBC009013820F06040029200F101
:10536000010A0BEBC6014A682AB1DDE90B030968A3
:10537000DB68984700BB04EBC6054146D5E900024F
:105380009047C8B905F1080001364845E9D1029AAD
:105390005068824505D314E04FF0000A50688245FA
:1053A0000FD21268DDE90B01CB6852F83A1002EB1C
:1053B000CA025268984720B101200DB0BDE8000F25
:1053C000F0BD00200DB0BDE8000FF0BDF0B503AF9B
:1053D0002DE9000F87B0D7F80C901C461546002920
:1053E0004ED0D0F814B02B221BF0010108BF4FF4AF
:1053F000881201EB090A0692D7F808805FEA4B7120
:1054000049D5102C5AD2002C64D004F0030CA20809
:105410004FF0000160D002F00302CDF8108005F1DA
:105420000108CDE90249A1EB820E6FF00302059558
:1054300008EB0205043295F9033095F9064095F919
:10544000056013F1410F95F90450C8BF01310EEB0F
:10545000020315F1410FC8BF013116F1410FC8BF5A
:10546000013114F1410FC8BF01310433E0D1DDE94E
:1054700004850432DDE90249BCF1000F30D147E078
:105480002D21D0F814B009F1010A0691D7F808804F
:105490005FEA4B71B5D400250168E9BB2146D0E92C
:1054A000074600913146069A2B46204600F0EEF85A
:1054B00060B1012007B0BDE8000FF0BD06462846E8
:1054C000214600F096FA0146304621E0F368204676
:1054D000414677E000211BE00022BCF1000F17D00D
:1054E000AB5613F1410FC8BF0131BCF1010F0FD012
:1054F0002A4492F9013013F1410FC8BF0131BCF1C8
:10550000020F05D092F9022012F1410FC8BF0131FC
:105510008A4401680029C1D0CDE90485D0F804800F
:10552000D04512D95FEA0B711FD4017EA8EB0A02A5
:10553000A346CA46032908BF0121002949D00129F1
:1055400049D111464FF0000949E02146D0E907460C
:1055500000913146DDE90532204600F097F870B33E
:10556000012007B0BDE8000FF0BD3021D0F810B029
:10557000224601610121057ED0E9074601763146C8
:10558000039000922046DDE9053200F07FF80146E5
:10559000012000297FF48EAF0695A8EB0A00DDF804
:1055A0001080451C013D3AD0326920463021904799
:1055B0000028F7D0012007B0BDE8000FF0BDF36868
:1055C000204604994A4607B0BDE8000FBDE8F04008
:1055D0001847914603E0510801324FEA5209066923
:1055E0004D1CD0E90748013D0BD0D8F810202046CB
:1055F000314690470028F6D0012007B0BDE8000FE3
:10560000F0BDCDF800B02046DDE90532414600F09E
:105610003DF878B1012007B0BDE8000FF0BDF36898
:10562000204641464A46984780B1012007B0BDE870
:10563000000FF0BDD8F80C30204604995246984728
:1056400070B1012007B0BDE8000FF0BD03980699C6
:105650000176C0F810B0002007B0BDE8000FF0BD23
:105660000025A94509D0D8F810202046314690479A
:1056700001350028F5D0691E00E049460020494563
:1056800038BF012007B0BDE8000FF0BDF0B503AF93
:105690004DF8048DD7F808801C460E46B2F5881FD9
:1056A0000AD033691146054698470146284619B184
:1056B00001205DF8048BF0BD3CB1F3682146424601
:1056C0005DF8048BBDE8F040184700205DF8048BBE
:1056D000F0BDF0B503AF2DE9000F81B08846D0F8DA
:1056E00000C081685CEA010302D1D0E90701B3E0A0
:1056F000C90730D0C66808EB020E4FF000094146DA
:10570000E6B9714527D091F90010B1F1FF3FDCBF38
:10571000C9B2E029B9F1000F23D0914520D218F980
:10572000091011F1400F1CDA00211BE0F0292CBFF9
:10573000211DE11C0B1B013E9944E2D071450AD0AA
:105740000C4611F9013BB3F1FF3FF3DCD9B2E0297C
:10575000ECD2A11CEEE79146BCF1000F09D178E034
:10576000E2D1414600290CBF91468846BCF1000FAA
:105770006FD0D0F804B0B9F1100F35D2B9F1000FE5
:105780003AD009F0030C5FEA99024FF0000135D0DE
:1057900002F0030208F1010AA1EB820E6FF003028E
:1057A0000AEB0204043294F9036094F9063094F988
:1057B000055016F1410F94F90440C8BF013114F1AE
:1057C000410FC8BF013115F1410FC8BF013113F1BD
:1057D000410F0EEB0203C8BF01310433E0D10432A4
:1057E000BCF1000F0ED126E006464046494600F0C7
:1057F00000F9014630461EE000211CE00022BCF109
:10580000000F18D018F9023013F1410FC8BF013151
:10581000BCF1010F0FD0424492F9013013F1410F56
:10582000C8BF0131BCF1020F05D092F9022012F17C
:10583000410FC8BF01318B450BD9037EABEB010192
:10584000DA1E18BF1A4692B1012A0DD10A4600216C
:105850000DE0D0E907014A46CB68414601B0BDE8FA
:10586000000FBDE8F04018474A0801314908D0F858
:1058700010A0561CD0E9074B0091013E07D0DBF881
:1058800010202046514690470028F6D006E0DBF86D
:105890000C30204641464A46984720B1012001B0CD
:1058A000BDE8000FF0BD009E0025AE4209D0DBF838
:1058B000102020465146904701350028F5D0691E3A
:1058C00000E031460020B14238BF012001B0BDE800
:1058D000000FF0BDD0E90703DB681847F0B503AF50
:1058E0002DE9000F8DB0D0E907658346EC68984636
:1058F00092463046A04720B101200DB0BDE8000F10
:10590000F0BD9BF81400D7F80890400716D446F273
:105910005E713046C0F200010122A047014601201D
:105920000029EAD1D9F80C20404659469047002872
:105930003ED001200DB0BDE8000FF0BD46F25F7112
:105940003046C0F200010222A04701460120002992
:10595000D3D1A7F1410107F8410C00965846CDE993
:10596000015104A968C80A4668C290E8780046F266
:105970004470C0F2000078C2D9F80C200C90684640
:105980000B904046904720B101200DB0BDE8000FBC
:10599000F0BDDDE90B010222CB6846F25C71C0F27A
:1059A0000001984720B101200DB0BDE8000FF0BD07
:1059B000BAF1000F10D19BF8140040070CD4DBE9BA
:1059C00007010122CB6846F26171C0F200019847DD
:1059D00001460120002990D1DBE907010122CB68B3
:1059E00046F22D71C0F2000198470DB0BDE8000FDE
:1059F000F0BDF0B503AF2DE9000F82B08146033052
:105A000020F0030AAAEB0908414535D2002946D007
:105A100001F0030C8A084FF0000000F03182A0EB87
:105A2000820E09F101066FF003057319043593F92D
:105A3000031093F9064093F9052011F1410F93F9F2
:105A40000430C8BF01300EEB050113F1410FC8BF90
:105A5000013012F1410FC8BF013014F1410FC8BF2E
:105A600001300431E1D12A1DBCF1000F40F00D825C
:105A700002B0BDE8000FF0BDA1EB080E5FEA9E0C7E
:105A8000C4D00EF00302CA4501D100204CE0A9EBBE
:105A90000A0010F1040F07D90020002528E000209B
:105AA00002B0BDE8000FF0BD09F1010B00206FF05E
:105AB00003060BEB060595F9034095F9063095F9B9
:105AC000051014F1410F95F90450C8BF013015F1CC
:105AD000410FC8BF013011F1410FC8BF013013F1B0
:105AE000410FC8BF013016F1080506F10406E0D1E8
:105AF000CA4519D019F9051011F1410FC8BF01307D
:105B0000B8F1010F10D009EB050191F9013013F143
:105B1000410FC8BF0130B8F1020F05D091F9021052
:105B200011F1410FC8BF013009EB08040023C2B1D5
:105B30002EF00301214491F9006016F1410FC8BF16
:105B40000123012A0DD091F9016016F1410FC8BF60
:105B50000133022A05D091F9021011F1410FC8BF9B
:105B60000133184412E04FF000083FFA88F23FFA80
:105B700098F31A44ACEB0B0C0AEB8B041BF00301FB
:105B800002EB024200EB124040F04981BCF1000FF1
:105B90003FF46EAFBCF1C00FE34628BF4FF0C00B1F
:105BA000A246BCF1040FDED36FF00F01012201EB1E
:105BB0008B01302902EB1112CDE9002A03D24FF0FC
:105BC00000085446ABE022F003094FF000085446A9
:105BD00094E80E04B9F10409A6696FEA010E4FEAD0
:105BE000DE1545EA91116FEA020521F0FE314FEA18
:105BF000D51545EA9212414422F0FE320A446FEA7A
:105C000003014FEAD11545EA931323F0FE332569CA
:105C10001A446FEA0A034FEAD313616943EA9A13FD
:105C2000D4F8388023F0FE33D4F83CE01A446FEA0D
:105C300005034FEAD31343EA9513E56923F0FE33D6
:105C40001A446FEA01034FEAD31343EA911121F09A
:105C5000FE31236A11446FEA06024FEAD21242EA89
:105C60009612666A22F0FE3211446FEA05024FEA8C
:105C7000D21242EA9512A56A22F0FE3211446FEA6E
:105C800003024FEAD21242EA9312E36A22F0FE3292
:105C900011446FEA06024FEAD21242EA9612266BCC
:105CA00022F0FE3211446FEA05024FEAD21242EAB4
:105CB0009512656B22F0FE3204F1400411446FEA44
:105CC00003024FEAD21242EA931222F0FE3211444A
:105CD0006FEA06024FEAD21242EA961222F0FE3230
:105CE00011446FEA05024FEAD21242EA951222F0FD
:105CF000FE3211446FEA08024FEAD21242EA9812C9
:105D000022F0FE3211446FEA0E024FEAD21242EA4A
:105D10009E1222F0FE3202EB01087FF459AF009987
:105D2000DDF804A011F0030E3FF41FAF94E84C001F
:105D3000BEF1010FE5686FEA02014FEAD11141EAB5
:105D400092116FEA03024FEAD21221F0FE3142EAC9
:105D50009312414422F0FE3211446FEA06024FEAE8
:105D6000D21242EA961222F0FE3211446FEA050284
:105D70004FEAD21242EA951222F0FE3202EB0108FB
:105D80003FF4F3AE04F11005BEF1020F2ECD6FEA21
:105D900001064FEAD61646EA91116FEA020621F093
:105DA000FE314FEAD61646EA9212414422F0FE3204
:105DB00011446FEA03024FEAD21242EA931222F030
:105DC000FE3211446FEA05024FEAD21242EA9512FE
:105DD00022F0FE3202EB01083FF4C7AE04F12006C8
:105DE0004ECECD43ED0945EA9111D54321F0FE3168
:105DF000ED0945EA9212414422F0FE321144DA43A1
:105E0000D20942EA931222F0FE321144F243D2093F
:105E100042EA961222F0FE3202EB0108A5E60BF0F0
:105E2000FC0301295AF823206FEA02064FEAD6162E
:105E300046EA921222F0FE3215D00AEB83030229C1
:105E40005E686FEA06054FEAD51545EA961626F014
:105E5000FE36324407D09968CB43DB0943EA9111FF
:105E600021F0FE310A443FFA82F13FFA92F21144E6
:105E700001EB014100EB114002B0BDE8000FF0BDA5
:105E80000022BCF1000F3FF4F3AD19F9021011F13B
:105E9000410FC8BF0130BCF1010F3FF4E9AD4A44E6
:105EA00092F9011011F1410FC8BF0130BCF1020F8E
:105EB0003FF4DEAD92F9021011F1410FC8BF01307D
:105EC00002B0BDE8000FF0BD80B56F46A2B000780B
:105ED0008C469DF8863000F00F0202F137010A2A45
:105EE00038BF02F130018DF887103721020901EB2C
:105EF0001011A02838BF02F13001102838BF194610
:105F00008DF886104FF002014FF07E0238BF01215C
:105F1000102838BF7F2202A8104446F26272CDE9F1
:105F20000001C0F20002604601210223FFF74EFA91
:105F300022B080BDB0B502AFA2B002888C4600236B
:105F400002F00F0000F137010A2838BF00F13001DC
:105F5000C2F303208DF8871000F13704C2F3031158
:105F60000A2838BF00F1300401F137000A2938BF90
:105F700001F13000372101EB1235110B0A2938BF2E
:105F800001F130059DF884E09DF88510B3EB121FF8
:105F900005D0B2F5807F07D27E2302220EE07F2358
:105FA0009DF88600012209E0B2F5805F02D27D23D0
:105FB000032202E07C230422AE4621468DF88600AF
:105FC00002A81844CDE9000246F262728DF88510ED
:105FD000C0F200026046012102238DF884E0FFF741
:105FE000F5F922B0B0BDB0B502AFA2B08C460168E1
:105FF0000DF1080E8023812001F00F0202F1370419
:106000000A2A38BF02F130040EEB000202F8024CFB
:106010000C0929D004F00F0404F137050A2C38BF0D
:1060200004F130050C0A02F8035C1FD004F00F04E1
:10603000043804F137050A2C38BF04F130050C0B85
:1060400002F8045C15D004F00F04043B04F137059A
:106050000A2C38BF04F13005090C02F8055CCBD1DD
:10606000411E0346084605E0023803E0013B0338C1
:1060700000E0023BC3F1810146F262727044C0F25B
:106080000002CDE90001604601210223FFF79EF9DD
:1060900022B0B0BDD0E90002D26810470B46D0E96B
:1060A00000121846FFF715BBF0B503AF2DE9000746
:1060B000102A1ED3434203F0030800EB0803834277
:1060C00033D9A8F1010CB8F1000F06460D461AD0DD
:1060D0000D46064615F801EBB8F1010F06F801EB85
:1060E00011D04E78B8F1020F467008D18D1C861C75
:1060F00009E084460CEB02039C453ED36AE08E78AF
:10610000CD1C8670C61CBCF1030F0ED3043D043EAB
:1061100015F8044F06F8044F6C787470AC78B470BE
:10612000EC78F470341D9C42F2D1A2EB080E41448D
:106130002EF0030203EB020C8C0758D1634515D2F5
:106140000C46256843F8045B63450FD2656843F845
:10615000045B63453EBFA56843F8045B634505D215
:10616000E568103443F8045B6345EAD311440EF04C
:1061700003020CEB02039C452CD212F00304A2F1A3
:10618000010E13D00E46654616F8012B012C05F8BA
:10619000012B0DD04A78022C8CF801201DD18E1CC9
:1061A0000CF10205BEF1030F05D213E065460E4661
:1061B000BEF1030F0ED3311F2A1F11F8046F02F82E
:1061C000046F4E7856708E789670CE78D670161D05
:1061D0009E42F2D1BDE80007F0BDCE1C0CF10305D4
:1061E0008A788CF80220BEF1030FE4D2F2E763450F
:1061F000BCD2182421F0030604EAC108CC00C4F183
:106200000009346806F1080509F0180955F8046C0E
:1062100024FA08FA06FA09F444EA0A0443F8044B9B
:106220006345A3D22C6826FA08FA04FA09F646EA6E
:106230000A0643F8046B63453FBF6E6824FA08FA08
:1062400006FA09F444EA0A043CBF43F8044B6345E8
:10625000BFF48CAFAC6826FA08FA103504FA09F6D8
:1062600046EA0A0643F8046B6345CFD37EE780B560
:106270006F46042914D3A1F1040C012202EB9C0205
:1062800012F003030ED04FF0000E024642F804EB6A
:10629000012B0BD110466146BCF10C0F19D222E044
:1062A000024620E0BCF10C0F13D21CE0022BC0F818
:1062B00004E006D1083908300246BCF10C0F08D2C0
:1062C00011E000220C3982600C300246BCF10C0F48
:1062D00009D3002302461039C2E90033C2E9023370
:1062E00010320329F7D85018824222D211F0030C41
:1062F000A1F101010ED04FF0000E134603F801EB9F
:10630000BCF1010F0BD0BCF1020F82F801E003D108
:10631000931C04E0134602E000239370D31C03296E
:1063200038BF80BD191F002241F8042F0B1D834286
:0C633000FAD180BDFFF7B8BEFEE7D4D460
:10633C00000000000800000004000000A142000062
:10634C00BB410000534200004572726F72466D747F
:10635C004572726F72000000000000000400000023
:10636C0004000000AB4100004F746865720000002F
:10637C00000000000800000004000000A142000022
:10638C00BB410000534200000A496E697469616C9C
:10639C006973696E672043414E0A503130323A209E
:1063AC000A000000A663000006000000AC630000B9
:1063BC0001000000503130333A200000C06300006F
:1063CC0006000000AC6300000100000050313030CA
:1063DC00207074723A200000D86300000A0000009C
:1063EC00AC63000001000000503130322070747238
:1063FC003A200000F46300000A000000AC630000C7
:10640C000100000050313033207074723A200000CB
:10641C00106400000A000000AC63000001000000E2
:10642C00503130322031363A200000002C6400000C
:10643C0009000000AC630000010000005031303353
:10644C002031363A200000004864000009000000AA
:10645C00AC63000001000000456E746572696E67E4
:10646C002043414E207265736574206D6F64652EF8
:10647C002E2E0A43414E30204243523A2000000057
:10648C007F6400000A000000AC6300000100000003
:10649C00456E746572696E672043414E2068616C6D
:1064AC0074206D6F64652E2E2E0A456E61626C69C8
:1064BC006E672054657374206D6F6465206C6F6F0C
:1064CC00706261636B2E2E2E0A43414E30204D4379
:1064DC00544C5F54585B305D3A200000D56400008A
:1064EC0011000000AC63000001000000456E7465F3
:1064FC0072696E672043414E206F706572617469DA
:10650C006F6E206D6F64652E2E2E0A436C65617262
:10651C00696E67204572726F72732E2E2E0A576148
:10652C006974696E672E2E2E0A00000000000000B0
:10653C000000000001000000A744000063616C6CC7
:10654C0065642060526573756C743A3A756E777237
:10655C006170282960206F6E20616E206045727218
:10656C00602076616C75657372632F63616E2E7239
:10657C0073000000736500000A000000A600000014
:10658C002D000000736500000A0000009800000058
:10659C0035000000736500000A0000009100000047
:1065AC000A000000000000000100000001000000D3
:1065BC0061420000736500000A0000008B000000BF
:1065CC0006000000736500000A0000007100000066
:1065DC000A000000736500000A0000006A00000059
:1065EC000A000000736500000A000000640000004F
:1065FC000A000000736500000A000000460000005D
:10660C000A000000736500000A0000003B00000057
:10661C0006000000736500000A0000003500000051
:10662C0006000000736500000A0000002400000052
:10663C000E000000736500000A000000220000003C
:10664C000E000000736500000A0000001B00000033
:10665C000A000000736500000A000000130000002F
:10666C0006000000736500000A0000000D00000029
:10667C0006000000736500000A0000000400000022
:10668C003500000053746174650A43414E30205349
:10669C0054523A20966600000A000000AC630000D9
:1066AC000100000043414E3020454946523A20003B
:1066BC00B06600000B000000AC630000010000009D
:1066CC0043414E302043544C523A2000CC660000DB
:1066DC000B000000AC6300000100000073650000BB
:1066EC000A000000D60000000600000073650000E0
:1066FC000A000000D00000000600000073650000D6
:10670C000A000000CA0000000A00000073650000C7
:10671C000A000000C8000000280000004572726FDB
:10672C007229202020203A200100000000000000E7
:10673C003267000002000000000000000C000000A6
:10674C0004000000594F0000EF5100003B520000C4
:08675C002C0A28280A2C3078D1
:04000003000040C1F8
:00000001FF
