:1040000000800020C1400000CD4B0000436500004F
:10401000CD4B0000CD4B0000CD4B00000000000058
:10402000000000000000000000000000CD4B000078
:10403000CD4B000000000000CD4B0000CD4B000038
:10404000CD4B0000CD4B0000CD4B0000CD4B000010
:10405000F9450000634600008F460000CF4600008F
:10406000CD4B0000CD4B0000CD4B0000CD4B0000F0
:10407000CD4B0000CD4B0000CD4B0000CD4B0000E0
:10408000CD4B0000CD4B0000CD4B0000CD4B0000D0
:10409000CD4B0000CD4B0000CD4B0000CD4B0000C0
:1040A000CD4B0000CD4B0000CD4B0000CD4B0000B0
:1040B000CD4B0000CD4B0000CD4B0000CD4B0000A0
:1040C00000F085FD0E480F490022814201D004C056
:1040D000FBE70D480D490E4A814202D008CA08C0CC
:1040E000FAE70C484FF47001026842EA01020260EC
:1040F000BFF34F8FBFF36F8F00F000FB00DE0000B7
:10410000000000202400002000000020000000200B
:10411000F868000088ED00E0002A08BF7047F0B59D
:1041200003AF2DE9000F81B042249246884606462F
:10413000C4F20704E94601E000F046FD4846009657
:1041400000F0E1FC51B920788006F5D4207800F029
:104150005B00A030207000F037FDEFE7514528BF2D
:1041600051460D4641462A4602F0E9F9484629469D
:10417000AB4600F0EDFC2078810607D540070AD554
:1041800000F022FD207810F0240FF9D1207800F003
:104190005B00A0302070D844BAEB0B0ACED101B03E
:1041A000BDE8000FBDE8F040704701F043BCD0B55A
:1041B00002AF88B0006846F2556346F230640A46A2
:1041C000411C0DF11C0E07910521C0F20003C0F245
:1041D000000446F2406CCDE90010CDE9024346F2FE
:1041E0005063CDE9041E46F2C051C0F2000C1046E7
:1041F000C0F20001C0F200030422CDF818C001F0A3
:10420000E5FA08B0D0BD084646F25C51C0F20001A4
:10421000052201F0D7BA4A690068D30648BF01F009
:1042200087BE920658BF02F000B801F0B7BE006822
:1042300001F0B4BE4A69D30648BF01F079BE9206C8
:1042400058BF01F0F2BF01F0A9BE80B56F4682B041
:1042500000228029019203D201228DF8041031E05E
:1042600002220B4662F39F13B1F5006F07D28DF85F
:104270000530C02343EA91118DF8041022E0B1F516
:10428000803F0DD28DF806308B0962F39F13E02238
:1042900042EA11318DF805308DF80410032211E047
:1042A0008DF807308B0962F39F138DF806300B0BE6
:1042B00062F39F13F02242EA91418DF805308DF8A8
:1042C00004100422006801A90068FFF725FF002000
:1042D00002B080BD0A4646F24451C0F2000100F02F
:1042E0002BBF0A4646F28451C0F2000100F024BF01
:1042F0007047084646F25C51C0F20001052201F009
:1043000061BA80290DD2D0F80021FF2A84BF012094
:1043100070478154D0F800110131C0F8001100201D
:104320007047F0B503AF4DF804BD81B06B469E1CDD
:104330000024B1F5006F009409D203F1010EC025ED
:104340004FF0020C45EA91158DF8005028E0DD1C75
:10435000B1F5803F0FD28B09022464F39F138DF8CF
:104360000130E023B64643EA11338DF800304FF0B8
:10437000030C2E4614E01E1D8B094FF0020CAE46B6
:104380006CF39F138DF802300B0B6CF39F138DF8B9
:104390000130F0234FF0040C43EA91438DF80030D4
:1043A000022363F39F11D0F800318EF8001003EB65
:1043B0000C01B1F5807F11D816F00301EC4612D044
:1043C0009DF800500129C554D0F8003103F10103D4
:1043D000C0F8003109D10CF101011EE0012001B04B
:1043E0005DF804BBF0BD614617E09DF8015002295D
:1043F000C554D0F8003103F10103C0F8003102D1F7
:104400000CF1020109E09DF80210C154D0F800112E
:104410004B1C0CF10301C0F80031ACEB060515F1A3
:10442000040F20D8043911F8045FC554D0F80031C6
:104430004D780133C0F800318C78C554D0F8003184
:10444000CA780133C0F80031C454D0F800310133C8
:10445000C0F80031C254D0F80021531C0A1DB242EA
:10446000C0F80031DFD1002001B05DF804BBF0BD21
:10447000D0F8003103EB020CBCF5807F49D8002A4C
:1044800047D0F0B503AF4DF804BD12F003048E46DB
:1044900016D01EF8015B012CC554D0F8003103F191
:1044A0000103C0F800310BD04D78022CC554D0F870
:1044B000003103F10103C0F8003130D101F1020EE7
:1044C000042A22D38E18AEF1040212F8045FC554F8
:1044D000D0F8003155780133C0F800319478C554D4
:1044E000D0F80031D1780133C0F80031C454D0F88D
:1044F00000310133C0F80031C154D0F800114B1C19
:10450000111DB142C0F80031DFD15DF804BBBDE838
:10451000F0400020BCF5807F88BF012070478D7877
:1045200001F1030EC554D0F800310133C0F8003159
:10453000042AC7D2E9E70A460178A1B180B56F46DF
:1045400082B00130019046F26C5046F27C51C0F2CC
:10455000000001AB00901046C0F20001052201F0FE
:10456000DEF902B080BD46F261511046C0F2000192
:10457000082201F027B980B56F4600680068FFF790
:10458000CBFD002080BD80B56F4694B00A4646F250
:10459000AC51C0F2000100F10803129113A911916E
:1045A00046F29C51C0F200011390CDE90E13C31DD9
:1045B0001091CDE90C13831DCDE90A13431DCDE9FC
:1045C0000813031DCDE90613C31CCDE90413811C98
:1045D000039103A9082046F2E853CDE9000146F211
:1045E000286102901046C0F20001C0F200030622CA
:1045F00001F038F914B080BDD0B502AF82B040F2FE
:1046000020000121C2F20000017046F21030C4F215
:104610000000016821F48031016040F20000C2F224
:104620000000019001A800F0A0FA4224C4F207049F
:1046300089B100780121607001A800F0B0FA40F261
:104640000000C2F2000000F01BFA40B1207800F038
:104650007B00043002E0207800F05B00207002B0A4
:10466000D0BD40F220000121C2F20000017046F2EC
:104670001430C4F20000016821F48031016042204E
:10468000C4F20700017801F05B010170704780B54A
:104690006F4682B040F220000121C2F2000001709A
:1046A00046F21830C4F20000016821F48031016044
:1046B0004520C4F20700017840F20000C2F2000079
:1046C0001030019001A800F0E2F902B080BD40F284
:1046D00020000121C2F200001822017046F21C30B5
:1046E000C4F20000016821F4803101604420C4F26A
:1046F0000700017862F3DF010170704780B56F46F3
:1047000000F000F880B56F46ADF50C7D222002ADBB
:10471000C4F204004FF40061018028464021402487
:1047200001F0AAFE12AE4021304601F0A5FE4EF285
:1047300000104FF0100ACEF20000202104604FF06C
:104740000108C0F800A040F200040160802101606F
:1047500040F22000C2F20000A32180F8008046F25F
:104760001030C4F20000C2F200048160A421016094
:10477000A5214160A621C16020462946402200F0C3
:1047800079F904F110003146402200F073F947F244
:1047900000054223C4F20405C4F2070328684FF061
:1047A0000009C021042220F00050286083F8009006
:1047B000187800F0FC001870F22083F8079083F856
:1047C0000BA003F8029C18710C2083F8059003F8E5
:1047D000010C0720987640F60350C4F2040080F8DC
:1047E0000090017040F6C800C4F204004FF08061F0
:1047F00040F8049C40F8041C50F8041C41F480313B
:1048000040F8041C0521C0F800900160016862F3C3
:104810001C610160016841F480310160187840F04A
:1048200050001870CDE9224400F0C6F928688221B2
:1048300020F400602860CC20C4F20900018044F21A
:104840004020C0F20F0000F0B9F9229D46F25A61F3
:10485000C0F200010E222846FFF75EFC24AE4FF4A2
:104860008271304601F008FE4EF220004FF0020A3D
:10487000C4F2010081AC016801F0070207F8922C34
:10488000827902F0070207F8912CC1F3021207F8AF
:10489000932CC1F3022207F8942CC1F3023207F8DB
:1048A000952CC1F3027207F8962C827DC1F3026148
:1048B000C07D07F8971C02F0010107F8991C46F229
:1048C0008451C00868AA07F8980C46F26C60C0F2E0
:1048D0000000C0F20001689044F28750C0F200006E
:1048E000CDF8B0918290A7F1990081903046CDF833
:1048F000A4A1CDF8AC816A9400F01EFC80B146F210
:10490000F86046F2E863C0F200007A1E009046F2BA
:104910008760C0F20000C0F200032B2100F0D2F942
:10492000649A24A92846FFF7F7FB68AD0DF5F27BE2
:10493000CDF8909101E000F047F92846402101F0C0
:104940009BFD2398103000F09BF80028F3D12398AA
:1049500000F110062046819600F007F911B900F029
:1049600033F9F7E768AE0D4601464020402D28BFD9
:10497000054630462A4601F0E2FD2046294600F071
:104980000EF946F2B86046F24451C0F20000C0F29F
:104990000001799044F22F20C0F200005A46809026
:1049A00078A87F907FA87B9003208DF820020820B4
:1049B000CDE986902020859022A8899089A87896B4
:1049C000CDE97D48CDF8E8A1CDF8F081CDE9839A15
:1049D000CDF804A28DF8289200F0AEFBA8BB013DF3
:1049E00006F10106CDD1229D2046819500F08BF87D
:1049F0004226C4F2070605E000F0E6F8204681955D
:104A000000F081F841B930788006F5D4307800F0B4
:104A10005B00A0303070EFE70A21017020460121D1
:104A200000F096F8307868AD810608D540077FF52C
:104A300084AF00F0C9F8307810F0240FF9D1307845
:104A400000F05B00A030307077E79DF8280246F256
:104A5000C8638DF8E40146F2D860C0F2000079AA7C
:104A6000009046F28760C0F20000C0F200032B21E4
:104A700000F028F90160002142608160C160704748
:104A80008168C068081AB0FA80F040097047F0B534
:104A900003AF4DF8048D026800244FF0000ED2F8E9
:104AA0000880BFF35F8FD2F800C05068D5682B1A1A
:104AB00038BF2B46C61A18BF0126B8EB000038BF16
:104AC0004046A8EB0505984288BF0124C01AB5FAF4
:104AD00085F518BF012034436D0928432040012883
:104AE00004BF0CF803104FF0010ED16853687144F5
:104AF000B1EB430F28BFA1EB4301BFF35F8FD16040
:104B00005DF8048BF0BDD0B502AF0168D1F808E0C4
:104B1000BFF35F8F0868D1F804C0C968BEEB0C030F
:104B200038BF7346B1EB0C0238BF0A46AEEB010149
:104B3000B1FA81F19C1A18BF01244909214318BF19
:104B40001044934298BF6346002918BF991AD0BDFC
:104B50000068C26843681144B1EB430F28BFA1EB62
:104B60004301BFF35F8FC16070470368DA68BFF32A
:104B70005F8F1868D3F804C09B68934204BF00217C
:104B80007047B2EB0C0138BF1146B3EB0C0238BFD3
:104B90001A46914298BF61461044891A70470068CE
:104BA000826843681144B1EB430F28BFA1EB430176
:104BB000BFF35F8F8160704762B67047012101EBE0
:104BC00050000138FDD1704730BF7047FEE7704795
:104BD000FEE780B56F4684B0CDE9010101A801224E
:104BE000ADF80C20FFF7F4FFFEB506AFCDE90412D7
:104BF000B968044A0092CDE9013104A905AB00F07F
:104C000003F800BF2C67000080B56F469AB0CDE96D
:104C10000012B968D7F80CE0CDE90231C1B219B180
:104C2000012905D1204900E020490491022202E037
:104C30001C49072204910592DEF80020396982B9E7
:104C400000201F4A189003201590149217900CA86A
:104C500016901848119002AACDE90F0268460E90EE
:104C600019E00DF1180C9EE87501634683E87501A3
:104C70000020189004200E4A1590149217900CA84A
:104C800016900C48139002AACDE9110268461090C4
:104C90000948CDE90EC009480D9004A80C9014A84D
:104CA000FFF797FF406700003E6700003C67000089
:104CB0008C670000996200002F510000A76200007D
:104CC0006867000080B56F468EB08DE80F00002049
:104CD00046F2B071089002200590C0F200010790E2
:104CE0000AA8069046F29920C0F20000D7F808C042
:104CF0000D9002A80C9046F2A720C0F2000004918B
:104D00000B9068460A9004A86146FFF762FFF0B571
:104D100003AF2DE9000F8BB090460A4601684FF0B3
:104D2000000B08914FF0000A416800268068099046
:104D3000501C0290C8F101000190C8F100000690DB
:104D4000501E07910A920590CDF80C8013E005984B
:104D5000005D0A38B0FA80F04009079BA4EB0B0213
:104D6000099D0A99DB6828705944089898470028DB
:104D7000CB4640F01281F00740F00A815046C24510
:104D800000F2EE80049602E0404500F2E9800A99C4
:104D9000A8EB000EBEF1070F01EB000926D88045F5
:104DA00000F0DD8006990022014419F802300A2B38
:104DB00000F0BA808B185E1C00F0D18009EB02066F
:104DC00075780A2D00F091809D1C00F0C880B578A0
:104DD0000A2D00F09080033300F0C180F3780A2B95
:104DE00000F0908004328B18DFD1B8E009F10301A4
:104DF00021F0030CBCEB090122D08D1EA1F1030AA6
:104E00004C1E002219F802300A2B00F08B809442CD
:104E10001AD009EB020393F80180B8F10A0F78D099
:104E2000954211D09E780A2E77D092450CD0DB782F
:104E30000A2B76D0043219F802300A2BE7D171E040
:104E4000AEF10802824606E0DDF80C80AEF1080201
:104E5000824691421AD840F20010042303EB0C065C
:104E6000C0F2011056E9015383F00A34041B2343B6
:104E700085F00A34041B25432B4023F07F33B3F124
:104E8000803F03D1083108369142EBD9BEEB0103D4
:104E900065D0029E01EB0A02069C504606EB020E0C
:104EA000019E144402EB060C03220EEB020515F8DA
:104EB000046C0A2E2FD00CEB0206032E4FD015F8EF
:104EC000036C0A2E2BD0A618012E48D015F8026CC0
:104ED0000A2E2FD0934242D015F8015C0A2D2AD019
:104EE0000432A518032DE0D139E001321118481C15
:104EF000414526D348E702321118481C4145BFF40A
:104F000043AF1EE003321118481C4145BFF43CAFCB
:104F100017E0013206E0033A0DE0023202E0023A05
:104F200009E00332DDF80C801118481C4145BFF43C
:104F30002BAF06E0013A0A441118481C4145BFF462
:104F400023AF824619F802000A2850467FF41CAFAE
:104F5000049E814604460998007850B913E0404603
:104F6000C34515D082460126D946444609980078A3
:104F700048B1079846F2D051C0F200010422C3683C
:104F80000898984748B95C457FF4E1AE0020E4E614
:104F900000200BB0BDE8000FF0BD01200BB0BDE854
:104FA000000FF0BDF0B503AF4DF8048D8568D0E972
:104FB0000046287878B146F2D052F368C0F2000279
:104FC00088461146204604229847414618B10120E0
:104FD0005DF8048BF0BDA1F10A003269B0FA80F0EF
:104FE0004009287020465DF8048BBDE8F04010476A
:104FF000F0B503AF2DE9000F8FB098460346007956
:105000004FF0010900284FF0010077D1CDF804805E
:105010009A46D3F80080BD685B7998F81400400781
:105020002ED40C4646F2D871934646F2DB72D8E98C
:105030000706C0F20001C0F20002002B18BF1146A3
:10504000F3684FF0030218BF02229847002853D19B
:10505000D8E907015A46CB682146984700284BD12A
:10506000D8E907010222CB6846F2AC71C0F2000118
:105070009847002840D1EA684146019890473CE0B3
:1050800073B9D8E9070346F2DD76DB68C0F20006A3
:105090000C4631461646032298472146324658BBF5
:1050A00001200DF1080C07F8410CA7F14106D8E9E1
:1050B0000703AB468CE8490006A8B8E8580058C07A
:1050C00098E8780078C046F2C070C0F200000E90F8
:1050D00002A80D90FFF71BFE70B946F2AC7102A852
:1050E000C0F200010222FFF712FE28B9DBF80C2003
:1050F00006A90198904748B10120534618711846F7
:1051000083F805900FB0BDE8000FF0BDDDE90D019B
:105110000222CB6846F2E071C0F200019847ECE74A
:105120000A4646F2C071C0F2000100F005B802461E
:10513000D1E9070100F000B8F0B503AF2DE9000F89
:105140008DB01669CDE90B0103208DF828000020F1
:105150002021002E099008910690049069D0506992
:10516000002800F09180D2F800A04101D2F808B0E8
:10517000013820F078404FF000084FF0000901306E
:105180000292039101900AEB09014A683AB1DDE904
:105190000B030968DB689847002840F0858006EB20
:1051A0000800036906EB8900D0E90221057F8469C4
:1051B00008938DF8285009947AB1012A02D15BF83E
:1051C00031203AB1002256F80830CDE90421022BF3
:1051D0000AD10FE00BEBC1014968012256F80830F3
:1051E000CDE90421022B05D04168012B07D15BF8E2
:1051F00031200AB1002203E00BEBC1014968012212
:105200004369079106920BEBC3015BF833004B68CF
:1052100004A99847002847D1039808F1200809F10C
:1052200008094045AFD1DDE901A25068824530D37D
:105230003FE0D06840B394680DF11008D2F800B098
:10524000002604EBC009013820F06040029200F112
:10525000010A0BEBC6014A682AB1DDE90B030968B4
:10526000DB68984700BB04EBC6054146D5E9000260
:105270009047C8B905F1080001364845E9D1029ABE
:105280005068824505D314E04FF0000A506882450B
:105290000FD21268DDE90B01CB6852F83A1002EB2D
:1052A000CA025268984720B101200DB0BDE8000F36
:1052B000F0BD00200DB0BDE8000FF0BDF0B503AFAC
:1052C0002DE9000F87B0D7F80C901C461546002931
:1052D0004ED0D0F814B02B221BF0010108BF4FF4C0
:1052E000881201EB090A0692D7F808805FEA4B7131
:1052F00049D5102C5AD2002C64D004F0030CA2081B
:105300004FF0000160D002F00302CDF8108005F1EB
:105310000108CDE90249A1EB820E6FF00302059569
:1053200008EB0205043295F9033095F9064095F92A
:10533000056013F1410F95F90450C8BF01310EEB20
:10534000020315F1410FC8BF013116F1410FC8BF6B
:10535000013114F1410FC8BF01310433E0D1DDE95F
:1053600004850432DDE90249BCF1000F30D147E089
:105370002D21D0F814B009F1010A0691D7F8088060
:105380005FEA4B71B5D400250168E9BB2146D0E93D
:10539000074600913146069A2B46204600F0EEF86B
:1053A00060B1012007B0BDE8000FF0BD06462846F9
:1053B000214600F052FB0146304621E0F3682046CA
:1053C000414677E000211BE00022BCF1000F17D01E
:1053D000AB5613F1410FC8BF0131BCF1010F0FD023
:1053E0002A4492F9013013F1410FC8BF0131BCF1D9
:1053F000020F05D092F9022012F1410FC8BF01310E
:105400008A4401680029C1D0CDE90485D0F8048020
:10541000D04512D95FEA0B711FD4017EA8EB0A02B6
:10542000A346CA46032908BF0121002949D0012902
:1054300049D111464FF0000949E02146D0E907461D
:1054400000913146DDE90532204600F097F870B34F
:10545000012007B0BDE8000FF0BD3021D0F810B03A
:10546000224601610121057ED0E9074601763146D9
:10547000039000922046DDE9053200F07FF80146F6
:10548000012000297FF48EAF0695A8EB0A00DDF815
:105490001080451C013D3AD03269204630219047AA
:1054A0000028F7D0012007B0BDE8000FF0BDF36879
:1054B000204604994A4607B0BDE8000FBDE8F04019
:1054C0001847914603E0510801324FEA5209066934
:1054D0004D1CD0E90748013D0BD0D8F810202046DC
:1054E000314690470028F6D0012007B0BDE8000FF4
:1054F000F0BDCDF800B02046DDE90532414600F0B0
:105500003DF878B1012007B0BDE8000FF0BDF368A9
:10551000204641464A46984780B1012007B0BDE881
:10552000000FF0BDD8F80C30204604995246984739
:1055300070B1012007B0BDE8000FF0BD03980699D7
:105540000176C0F810B0002007B0BDE8000FF0BD34
:105550000025A94509D0D8F81020204631469047AB
:1055600001350028F5D0691E00E049460020494574
:1055700038BF012007B0BDE8000FF0BDF0B503AFA4
:105580004DF8048DD7F808801C460E46B2F5881FEA
:105590000AD033691146054698470146284619B195
:1055A00001205DF8048BF0BD3CB1F3682146424612
:1055B0005DF8048BBDE8F040184700205DF8048BCF
:1055C000F0BDF0B503AF2DE9000F81B08846D0F8EB
:1055D00000C081685CEA010302D1D0E90701B3E0B1
:1055E000C90730D0C66808EB020E4FF000094146EB
:1055F000E6B9714527D091F90010B1F1FF3FDCBF4A
:10560000C9B2E029B9F1000F23D0914520D218F991
:10561000091011F1400F1CDA00211BE0F0292CBF0A
:10562000211DE11C0B1B013E9944E2D071450AD0BB
:105630000C4611F9013BB3F1FF3FF3DCD9B2E0298D
:10564000ECD2A11CEEE79146BCF1000F09D178E045
:10565000E2D1414600290CBF91468846BCF1000FBB
:105660006FD0D0F804B0B9F1100F35D2B9F1000FF6
:105670003AD009F0030C5FEA99024FF0000135D0EF
:1056800002F0030208F1010AA1EB820E6FF003029F
:105690000AEB0204043294F9036094F9063094F999
:1056A000055016F1410F94F90440C8BF013114F1BF
:1056B000410FC8BF013115F1410FC8BF013113F1CE
:1056C000410F0EEB0203C8BF01310433E0D10432B5
:1056D000BCF1000F0ED126E006464046494600F0D8
:1056E000BCF9014630461EE000211CE00022BCF15E
:1056F000000F18D018F9023013F1410FC8BF013163
:10570000BCF1010F0FD0424492F9013013F1410F67
:10571000C8BF0131BCF1020F05D092F9022012F18D
:10572000410FC8BF01318B450BD9037EABEB0101A3
:10573000DA1E18BF1A4692B1012A0DD10A4600217D
:105740000DE0D0E907014A46CB68414601B0BDE80B
:10575000000FBDE8F04018474A0801314908D0F869
:1057600010A0561CD0E9074B0091013E07D0DBF892
:1057700010202046514690470028F6D006E0DBF87E
:105780000C30204641464A46984720B1012001B0DE
:10579000BDE8000FF0BD009E0025AE4209D0DBF849
:1057A000102020465146904701350028F5D0691E4B
:1057B00000E031460020B14238BF012001B0BDE811
:1057C000000FF0BDD0E90703DB681847B0B502AFA2
:1057D00084B01C460546D0E90703DB68984707F10B
:1057E000080C00218DF80C0002A89CE80C108DF824
:1057F0000D1021460295CDF800C0FFF7F9FB07F127
:1058000014052ECD0095FFF7F3FB9DF80D209DF8B4
:105810000C10012A42EA010008BF5FEAC17103D0FF
:1058200000F0010004B0B0BD0298017D49070CD41E
:10583000D0E907010222CB6846F2E371C0F2000111
:10584000984700F0010004B0B0BDD0E90701012283
:10585000CB6846F2E271C0F20001984700F0010007
:1058600004B0B0BDF0B503AF4DF8048D8AB0044666
:105870003869BE688642CDE9026043D11D46D4E94D
:105880000703DB68984700218DF815108DF8140088
:1058900004948EB3FC6846F6E008083D04A8C0F204
:1058A000000855F8081F2346CDF800806A68FFF706
:1058B0009FFB0834013EF4D19DF814109DF815208B
:1058C00042EA0100D20717D0C90715D10498017D1B
:1058D000490708D4D0E907010222CB6846F2E371F8
:1058E000C0F2000107E0D0E907010122CB6846F2CF
:1058F000E271C0F20001984700F001000AB05DF8C3
:10590000048BF0BD002002A9049046F6D000C0F23E
:10591000000003AA04AB00900020FFF765F9F0B582
:1059200003AF2DE9000F8DB0D0E907658346EC6821
:10593000984692463046A04720B101200DB0BDE800
:10594000000FF0BD9BF81400D7F80890400716D45C
:1059500046F2E5713046C0F200010122A04701463F
:1059600001200029EAD1D9F80C2040465946904739
:1059700000283ED001200DB0BDE8000FF0BD46F27A
:10598000E6713046C0F200010222A0470146012024
:105990000029D3D1A7F1410107F8410C00965846E0
:1059A000CDE9015104A968C80A4668C290E87800A8
:1059B00046F2C070C0F2000078C2D9F80C200C90FA
:1059C00068460B904046904720B101200DB0BDE8DD
:1059D000000FF0BDDDE90B010222CB6846F2E07159
:1059E000C0F20001984720B101200DB0BDE8000FC2
:1059F000F0BDBAF1000F10D19BF8140040070CD491
:105A0000DBE907010122CB6846F2E871C0F2000130
:105A1000984701460120002990D1DBE907010122C6
:105A2000CB6846F20871C0F2000198470DB0BDE89E
:105A3000000FF0BD00780A4638B146F2C451104656
:105A4000C0F200010422FFF7BCBD46F6F00110468B
:105A5000C0F200010522FFF7B4BDF0B503AF2DE998
:105A6000000F82B08146033020F0030AAAEB090838
:105A7000414535D2002946D001F0030C8A084FF089
:105A8000000000F03182A0EB820E09F101066FF0F8
:105A900003057319043593F9031093F9064093F93C
:105AA000052011F1410F93F90430C8BF01300EEB0E
:105AB000050113F1410FC8BF013012F1410FC8BFFA
:105AC000013014F1410FC8BF01300431E1D12A1D6A
:105AD000BCF1000F40F00D8202B0BDE8000FF0BD38
:105AE000A1EB080E5FEA9E0CC4D00EF00302CA457B
:105AF00001D100204CE0A9EB0A0010F1040F07D9F6
:105B00000020002528E0002002B0BDE8000FF0BD15
:105B100009F1010B00206FF003060BEB060595F968
:105B2000034095F9063095F9051014F1410F95F9E8
:105B30000450C8BF013015F1410FC8BF013011F149
:105B4000410FC8BF013013F1410FC8BF013016F13A
:105B5000080506F10406E0D1CA4519D019F9051067
:105B600011F1410FC8BF0130B8F1010F10D009EB9E
:105B7000050191F9013013F1410FC8BF0130B8F1AF
:105B8000020F05D091F9021011F1410FC8BF013089
:105B900009EB08040023C2B12EF00301214491F95E
:105BA000006016F1410FC8BF0123012A0DD091F901
:105BB000016016F1410FC8BF0133022A05D091F9E7
:105BC000021011F1410FC8BF0133184412E04FF029
:105BD00000083FFA88F23FFA98F31A44ACEB0B0C3A
:105BE0000AEB8B041BF0030102EB024200EB1240B4
:105BF00040F04981BCF1000F3FF46EAFBCF1C00F23
:105C0000E34628BF4FF0C00BA246BCF1040FDED321
:105C10006FF00F01012201EB8B01302902EB111211
:105C2000CDE9002A03D24FF000085446ABE022F041
:105C300003094FF00008544694E80E04B9F1040932
:105C4000A6696FEA010E4FEADE1545EA91116FEA87
:105C5000020521F0FE314FEAD51545EA9212414482
:105C600022F0FE320A446FEA03014FEAD11545EAF9
:105C7000931323F0FE3325691A446FEA0A034FEAAF
:105C8000D313616943EA9A13D4F8388023F0FE33C2
:105C9000D4F83CE01A446FEA05034FEAD31343EA11
:105CA0009513E56923F0FE331A446FEA01034FEAC6
:105CB000D31343EA911121F0FE31236A11446FEAB4
:105CC00006024FEAD21242EA9612666A22F0FE32C9
:105CD00011446FEA05024FEAD21242EA9512A56A10
:105CE00022F0FE3211446FEA03024FEAD21242EA76
:105CF0009312E36A22F0FE3211446FEA06024FEA81
:105D0000D21242EA9612266B22F0FE3211446FEA5A
:105D100005024FEAD21242EA9512656B22F0FE327A
:105D200004F1400411446FEA03024FEAD21242EA3E
:105D3000931222F0FE3211446FEA06024FEAD212A9
:105D400042EA961222F0FE3211446FEA05024FEA4F
:105D5000D21242EA951222F0FE3211446FEA080292
:105D60004FEAD21242EA981222F0FE3211446FEA50
:105D70000E024FEAD21242EA9E1222F0FE3202EBEB
:105D800001087FF459AF0099DDF804A011F0030E6B
:105D90003FF41FAF94E84C00BEF1010FE5686FEAD5
:105DA00002014FEAD11141EA92116FEA03024FEA70
:105DB000D21221F0FE3142EA9312414422F0FE3227
:105DC00011446FEA06024FEAD21242EA961222F01A
:105DD000FE3211446FEA05024FEAD21242EA9512EE
:105DE00022F0FE3202EB01083FF4F3AE04F110059D
:105DF000BEF1020F2ECD6FEA01064FEAD61646EA33
:105E000091116FEA020621F0FE314FEAD61646EAFA
:105E10009212414422F0FE3211446FEA03024FEA2B
:105E2000D21242EA931222F0FE3211446FEA0502C6
:105E30004FEAD21242EA951222F0FE3202EB01083A
:105E40003FF4C7AE04F120064ECECD43ED0945EA3E
:105E50009111D54321F0FE31ED0945EA92124144FA
:105E600022F0FE321144DA43D20942EA931222F0C0
:105E7000FE321144F243D20942EA961222F0FE3277
:105E800002EB0108A5E60BF0FC0301295AF82320D8
:105E90006FEA02064FEAD61646EA921222F0FE3266
:105EA00015D00AEB830302295E686FEA06054FEA04
:105EB000D51545EA961626F0FE36324407D0996885
:105EC000CB43DB0943EA911121F0FE310A443FFA4A
:105ED00082F13FFA92F2114401EB014100EB1140D3
:105EE00002B0BDE8000FF0BD0022BCF1000F3FF48E
:105EF000F3AD19F9021011F1410FC8BF0130BCF127
:105F0000010F3FF4E9AD4A4492F9011011F1410F3C
:105F1000C8BF0130BCF1020F3FF4DEAD92F90210B0
:105F200011F1410FC8BF013002B0BDE8000FF0BD54
:105F300080B56F46A2B000788C469DF8863000F0A0
:105F40000F0202F157010A2A38BF02F130018DF821
:105F500087105721020901EB1011A02838BF02F168
:105F60003001102838BF19468DF886104FF0020115
:105F70004FF07E0238BF0121102838BF7F2202A8CF
:105F8000104446F2E972CDE90001C0F20002604619
:105F900001210223FFF792F922B080BD80B56F4640
:105FA000A2B000788C469DF8863000F00F0202F116
:105FB00037010A2A38BF02F130018DF887103721E6
:105FC000020901EB1011A02838BF02F1300110289E
:105FD00038BF19468DF886104FF002014FF07E024F
:105FE00038BF0121102838BF7F2202A8104446F292
:105FF000E972CDE90001C0F20002604601210223EE
:10600000FFF75CF922B080BDF0B503AF2DE9000FBA
:10601000A3B08C464969CA064DD4890600F1858033
:10602000046846F2EB7042F2107EC0F20000744544
:10603000C0F0D08041F259784EF2FF020DF10C0B06
:106040000023CDF2B71841F27B494FF0640AC0F249
:10605000F552CDF808C0A4FB08150BEB030C043B6C
:1060600094424FEA553101FB1E450C46AEB24FEA51
:10607000960606FB09F64FEA564606FB1A5530F817
:106080001660ACF80660ADB230F81550ACF80850A8
:10609000E1D8DDF808C003F10A020C46632C00F2D7
:1060A0009D8021460A29C0F0AB8030F81100023AE9
:1060B00003A98852A9E001680DF10C0E802381200C
:1060C00001F00F0202F157040A2A38BF02F130042E
:1060D0000EEB000202F8024C0C0963D004F00F042E
:1060E00004F157050A2C38BF04F130050C0A02F8F8
:1060F000035C59D004F00F04043804F157050A2C4E
:1061000038BF04F130050C0B02F8045C4FD004F0EA
:106110000F04043B04F157050A2C38BF04F1300585
:10612000090C02F8055CCBD138E001680DF10C0ECA
:106130008023812001F00F0202F137060A2A38BFBE
:1061400002F130060EEB00020C0902F8026C29D0B5
:1061500004F00F0606F137050A2E38BF06F13005A8
:106160000C0A02F8035C1FD004F00F06043806F195
:1061700037050A2E38BF06F130050C0B02F8045C17
:1061800015D004F00F06043B06F137050A2E38BF80
:1061900006F13005090C02F8055CCBD1411E03461F
:1061A000084605E0023803E0013B033800E0023B0B
:1061B000C3F1810146F2E9727044C0F20002CDE9F8
:1061C0000001604601210223FFF778F823B0BDE803
:1061D000000FF0BD0A22632C7FF663AFA1B241F23B
:1061E0007B438908023A5943642303AE490C01FBFF
:1061F00013439BB230F81330B3520A29BFF455AFA2
:10620000013A41F0300003A9885403A9C2F10A0001
:1062100011440122CDE90010604601210023FFF75F
:106220004DF823B0BDE8000FF0BD80B56F4684B0D7
:106230000278642A10D329205043030B642003FB07
:10624000102046F2EB72C0F20002C0B232F8100029
:1062500027F8020C002003E00A2A06D20220134687
:1062600043F03002FB1E1A5408E046F2EB70C0F215
:10627000000030F8120027F8020C012080F0030221
:10628000FB1E18440023CDE900020846012101222B
:10629000FFF714F804B080BDD0E90002D2681047BF
:1062A0000068FFF7B1BE0B46D0E900121846FFF7B1
:1062B00088B9F0B503AF2DE90007102A1ED3434279
:1062C00003F0030800EB0803834233D9A8F1010C63
:1062D000B8F1000F06460D461AD00D46064615F8D1
:1062E00001EBB8F1010F06F801EB11D04E78B8F1CF
:1062F000020F467008D18D1C861C09E084460CEB09
:1063000002039C453ED36AE08E78CD1C8670C61C85
:10631000BCF1030F0ED3043D043E15F8044F06F8FC
:10632000044F6C787470AC78B470EC78F470341DF1
:106330009C42F2D1A2EB080E41442EF0030203EB83
:10634000020C8C0758D1634515D20C46256843F8DA
:10635000045B63450FD2656843F8045B63453EBF49
:10636000A56843F8045B634505D2E568103443F83B
:10637000045B6345EAD311440EF003020CEB020305
:106380009C452CD212F00304A2F1010E13D00E464C
:10639000654616F8012B012C05F8012B0DD04A7823
:1063A000022C8CF801201DD18E1C0CF10205BEF1CF
:1063B000030F05D213E065460E46BEF1030F0ED360
:1063C000311F2A1F11F8046F02F8046F4E785670BF
:1063D0008E789670CE78D670161D9E42F2D1BDE8AA
:1063E0000007F0BDCE1C0CF103058A788CF8022062
:1063F000BEF1030FE4D2F2E76345BCD2182421F0CA
:10640000030604EAC108CC00C4F10009346806F1AF
:10641000080509F0180955F8046C24FA08FA06FA78
:1064200009F444EA0A0443F8044B6345A3D22C68F8
:1064300026FA08FA04FA09F646EA0A0643F8046B53
:1064400063453FBF6E6824FA08FA06FA09F444EA85
:106450000A043CBF43F8044B6345BFF48CAFAC68FF
:1064600026FA08FA103504FA09F646EA0A0643F84D
:10647000046B6345CFD37EE780B56F46042914D300
:10648000A1F1040C012202EB9C0212F003030ED0D6
:106490004FF0000E024642F804EB012B0BD11046E0
:1064A0006146BCF10C0F19D222E0024620E0BCF19B
:1064B0000C0F13D21CE0022BC0F804E006D10839FF
:1064C00008300246BCF10C0F08D211E000220C3952
:1064D00082600C300246BCF10C0F09D30023024647
:1064E0001039C2E90033C2E9023310320329F7D868
:1064F0005018824222D211F0030CA1F101010ED0FA
:106500004FF0000E134603F801EBBCF1010F0BD066
:10651000BCF1020F82F801E003D1931C04E01346A2
:1065200002E000239370D31C032938BF80BD191FDC
:10653000002241F8042F0B1D8342FAD180BDFFF7E2
:04654000B8BEFEE7FC
:10654400000000000800000004000000774500007F
:106554004B420000D54200004572726F72466D7462
:106564004572726F72000000000000000400000019
:1065740004000000074200004F74686572000000C8
:10658400F142000004010000040000007144000016
:1065940003430000E342000000000000010000008B
:1065A400010000003542000000000000040000006B
:1065B40004000000AF41000070636B61486F636FBB
:1065C4007472756569636C6B70636B632020202043
:1065D40070636B62686F636F70636B6466636B6335
:1065E4006B73656CC865000004000000E065000082
:1065F40003000000BC65000004000000D465000036
:1066040004000000CC65000004000000DC6500000C
:1066140004000000E365000005000000D8650000E8
:1066240004000000436F6E6669670000000000000C
:106634000100000001000000AB4100000000000068
:106644000400000004000000174200006863737433
:1066540070686366727148656C6C6F2C20524134AB
:106664004D31210A0A000000010000000000000072
:1066740068660000010000007372632F6D61696E2B
:106684002E727363616C6C65642060526573756C03
:10669400743A3A756E77726170282960206F6E20A3
:1066A400616E2060457272602076616C7565307829
:1066B40020000000B266000002000000B466000082
:1066C40001000000000000000100000001000000C3
:1066D400374500007C6600000B0000004500000008
:1066E4003E00000000000000000000000100000067
:1066F400F34200007C6600000B000000390000003B
:106704002600000029000000617373657274696FCC
:106714006E20606C656674202072696768746020FE
:106724006661696C65643A200000000004000000A2
:1067340004000000A16200003D3D213D6D617463D1
:1067440068657320726967687460206661696C6546
:10675400640A20206C6566743A200A2072696768AE
:10676400743A20000C670000100000004767000026
:10677400170000005E670000090000000A20206C7A
:106784006566743A200000000C67000010000000E9
:106794001C67000010000000806700000900000072
:1067A4005E670000090000003A20000001000000BC
:1067B40000000000AC6700000200000000000000C0
:1067C4000C000000040000000F4D0000A54F000065
:1067D40021510000207B202C20207B0A2C0A7D20C4
:1067E4007D28280A2C307830303031303230333044
:1067F400343035303630373038303931303131316A
:10680400323133313431353136313731383139324F
:106814003032313232323332343235323632373248
:10682400383239333033313332333333343335332D
:106834003633373338333934303431343234333413
:1068440034343534363437343834393530353135F9
:1068540032353335343535353635373538353936DF
:1068640030363136323633363436353636363736D8
:1068740038363937303731373237333734373537BD
:1068840036373737383739383038313832383338A3
:106894003438353836383738383839393039313989
:1068A4003239333934393539363937393839396C3D
:1068B4006962726172792F636F72652F7372632FCD
:1068C400666D742F6D6F642E72730000B3680000E0
:1068D4001B00000027090000090000000000000060
:1068E40008000000040000009962000066616C73F7
:0468F400650000003B
:04000003000040C1F8
:00000001FF
