:1040000000800020C14000002D600000ED6B00002A
:104010002D6000002D6000002D60000000000000F9
:104020000000000000000000000000002D60000003
:104030002D600000000000002D6000002D600000D9
:10404000BB5B0000ED5C00002D6000002D600000F7
:104050002D6000002D6000002D6000002D6000002C
:104060002D6000002D6000002D6000002D6000001C
:104070002D6000002D6000002D6000002D6000000C
:104080002D6000002D6000002D6000002D600000FC
:104090002D6000002D6000002D6000002D600000EC
:1040A0002D6000002D6000002D6000002D600000DC
:1040B0002D6000002D6000002D6000002D600000CC
:1040C00001F0B6FF0E480F490022814201D004C022
:1040D000FBE70D480D490E4A814202D008CA08C0CC
:1040E000FAE70C484FF47001026842EA01020260EC
:1040F000BFF34F8FBFF36F8F01F00AF900DE0000AE
:10410000000000200400002000000020000000202B
:104110007471000088ED00E087B0019002904FF4C8
:104120000061ADF80E100490ADF8161001800690F5
:1041300007B0704787B0019002904FF40061ADF86E
:104140000E100490ADF816100180069007B070476D
:1041500080B56F468EB00690079008900990A42015
:10416000029007F80E0C099801900C9001F0A8FE3F
:104170000021039101F035FF01F0D8FE01460198BE
:1041800001F025FF0298099904910B9107F80D0C95
:1041900001F096FE0146029801F0F3FE039901F04A
:1041A00020FF0146049801F0FDFE09980D900EB025
:1041B00080BD80B56F468EB006900790089009903C
:1041C000A520029007F80E0C099801900C9001F0C0
:1041D00077FE0021039101F004FF01F0A7FE0146E4
:1041E000019801F0F4FE0298099904910B9107F8E7
:1041F0000D0C01F065FE0146029801F0C2FE039924
:1042000001F0EFFE0146049801F0CCFE09980D90F4
:104210000EB080BD80B56F4694B0079008910B91A9
:104220000C910A91002007F8290C17F8290C0D9120
:1042300000F0010007F8160C07F8150C17F8150C1C
:104240000F9100F00100029007F80E0C0F980190FA
:104250001290012003901D21049101F0C2FE01F093
:1042600065FE0146019801F0B2FE029803990F9A8B
:104270000592119207F80D0C01F083FE049901F0EC
:10428000B0FE0146059801F08DFE0F98139014B012
:1042900080BD87B00190029000218DF80F1004902E
:1042A0008DF817100170069007B0704780B56F4603
:1042B00092B00590069109910A9108910020029010
:1042C00007F8290C17F8290C0B9100F0010007F8EA
:1042D000160C07F8150C17F8150C0D9100F00100DD
:1042E000019007F80E0C0D980090109001F0E6FD7B
:1042F000029901F0F8FD01F0F0FD0146009801F08F
:104300005BFE01980D9903910F9107F80D0C01F0D8
:10431000D5FD0146019801F024FE029901F0E3FD6C
:104320000146039801F033FE0D98119012B080BD44
:1043300080B56F4692B00246069209920A920892A0
:104340000021039107F8291C17F8290C0B9200F0A3
:10435000010007F8160C07F8150C17F8150C0D924C
:1043600000F00100019007F80E0C0D9800901090DD
:104370000120029001F0B7FD01F0AFFD0146009869
:1043800001F01AFE019802990D9A04920F9207F813
:104390000D0C01F0E6FD039901F0A5FD014604981E
:1043A00001F0F5FD0D98119012B080BD80B56F46FB
:1043B000BCB0014612911C912191169100200B90E6
:1043C00007F8990C17F8990C279100F0010007F8ED
:1043D0004E0C07F84D0C17F84D0C299100F0010018
:1043E000019007F8460C29980090389001200E9013
:1043F0000721029101F077FD01F06FFD0146009861
:1044000001F0DAFD01980E99299A0392379207F884
:10441000450C01F0A6FD029901F065FD01460398E7
:1044200001F0B5FD0B990E98299A1E9220921A92CE
:1044300007F8891C17F8891C239201F0010107F87D
:104440005E1C07F85D1C17F85D1C259201F0010148
:10445000059107F8561C259904913A910621069179
:1044600001F041FD01F039FD0146049801F0A4FD81
:1044700005980E99259A0792399207F8550C01F084
:1044800070FD069901F02FFD0146079801F07FFDB0
:104490000B980E99259A1D922292189207F8910C6A
:1044A00017F8910C2F9200F0010007F82E0C07F876
:1044B0002D0C17F82D0C319200F00100099007F82F
:1044C000260C319808903490084601F00CFD01F05C
:1044D00004FD0146089801F06FFD09980E99319A84
:1044E0000A92339207F8250C01F03BFD0E9901F07A
:1044F000FAFC01460A9801F04AFD0B990E98319A90
:104500001B921F92149207F8A11C17F8A11C2B9262
:1045100001F0010107F83E1C07F83D1C17F83D1C8F
:104520002D9201F001010D9107F8361C2D990C9187
:10453000369102210F9101F0D6FC01F0CEFC01462C
:104540000C9801F039FD0D980E992D9A1092359224
:1045500007F8350C01F005FD0F9901F0C4FC014688
:10456000109801F014FD2D983B903CB080BD80B5B3
:104570006F46D8B001461A912B91329126910020B6
:10458000139007F8C90C17F8C90C479107F83E0CAF
:1045900007F83D0C17F83D0C0190499107F8360CCF
:1045A000499800904C9001F089FC139901F09BFC14
:1045B00001F093FC0146009801F0FEFC0198499936
:1045C00002914B9107F8350C01F078FC01460198F7
:1045D00001F0C7FC139901F086FC0146029801F036
:1045E000D6FC13984999289130911E9107F8E90C4F
:1045F00017F8E90C3B9100F0010007F86E0C07F882
:104600006D0C17F86D0C3D9100F00100049007F857
:10461000660C3D980390529001201690022105915E
:1046200001F061FC01F059FC0146039801F0C4FC63
:10463000049816993D9A0692519207F8650C01F07C
:1046400090FC059901F04FFC0146069801F09FFC93
:10465000139916983D9A2C922F92249207F8D11C08
:1046600017F8D11C379201F0010107F87E1C07F8FA
:104670007D1C17F87D1C399201F00101089107F8A3
:10468000761C3999079154910321099101F02BFC73
:1046900001F023FC0146079801F08EFC089816995A
:1046A000399A0A92539207F8750C01F05AFC09994D
:1046B00001F019FC01460A9801F069FC139916985B
:1046C000399A29922E92209207F8E11C17F8E11CE2
:1046D0003F9201F0010107F85E1C07F85D1C17F816
:1046E0005D1C419201F001010C9107F8561C4199A3
:1046F0000B91509105210D9101F0F5FB01F0EDFBBF
:1047000001460B9801F058FC0C981699419A0E92AC
:104710004F9207F8550C01F024FC0D9901F0E3FBD2
:1047200001460E9801F033FC13991698419A2A928B
:104730002D92229207F8D91C17F8D91C439201F048
:10474000010107F84E1C07F84D1C17F84D1C459247
:1047500001F00101109107F8461C45990F914E9107
:104760000621119101F0BFFB01F0B7FB01460F9844
:1047700001F022FC10981699459A12924D9207F872
:10478000450C01F0EEFB119901F0ADFB01461298CA
:1047900001F0FDFB13991698459A279231921C92CD
:1047A00007F8F11C17F8F11C339201F0010107F82A
:1047B0008E1C07F88D1C17F88D1C359201F0010135
:1047C000159107F8861C3599149156910721179178
:1047D00001F089FB01F081FB0146149801F0ECFB2C
:1047E00015981699359A1892559207F8850C01F08C
:1047F000B8FB179901F077FB0146189801F0C7FB49
:104800003598579058B080BD80B56F46BCB0024611
:1048100012921E9220921A920021079107F8891C89
:1048200017F8890C2F9200F0010007F82E0C07F8FA
:104830002D0C17F82D0C319200F00100019007F8B3
:10484000260C31980090349001200E9001F04BFB23
:1048500001F043FB0146009801F0AEFB01980E9970
:10486000319A0292339207F8250C01F07AFB0799EE
:1048700001F039FB0146029801F089FB07990E9877
:10488000319A1D922192189207F8911C17F8911CE9
:104890002B9201F0010107F83E1C07F83D1C17F8A8
:1048A0003D1C2D9201F00101049107F8361C2D9951
:1048B000039136910221059101F015FB01F00DFBEA
:1048C0000146039801F078FB04980E992D9A069200
:1048D000359207F8350C01F044FB059901F003FB14
:1048E0000146069801F053FB07990E982D9A1C92E9
:1048F0002292169207F8991C17F8991C239201F03E
:10490000010107F85E1C07F85D1C17F85D1C259275
:1049100001F00101099107F8561C259908913A9177
:1049200003210A9101F0DFFA01F0D7FA0146089855
:1049300001F042FB09980E99259A0B92399207F8DB
:10494000550C01F00EFB0A9901F0CDFA01460B98C7
:1049500001F01DFB0E98259A1B921F92149207F8E6
:10496000A10C17F8A11C279201F0010107F84E1CB9
:1049700007F84D1C17F84D1C299201F001010D910B
:1049800007F8461C29990C91389104210F9101F0E8
:10499000AAFA01F0A2FA01460C9801F00DFB0D985D
:1049A0000E99299A1092379207F8450C01F0D9FA1E
:1049B0000F9901F098FA0146109801F0E8FA299849
:1049C0003B903CB080BD80B56F46A0B002460A92D5
:1049D0000F9212920C920121069107F8511C17F8C0
:1049E000510C179200F0010007F81E0C07F81D0C7F
:1049F00017F81D0C199200F00100029007F8160C30
:104A0000199801901C90084601F06DFA01F065FAC2
:104A10000146019801F0D0FA02980699199A03927A
:104A20001B9207F8150C01F09CFA069901F05BFA4D
:104A30000146039801F0ABFA0698199A1092119268
:104A40000E9207F8490C17F8491C139201F0010166
:104A500007F82E1C07F82D1C17F82D1C159201F0D5
:104A60000101059107F8261C159904911E91022158
:104A7000079101F038FA01F030FA0146049801F08C
:104A80009BFA05980699159A08921D9207F8250C2D
:104A900001F067FA079901F026FA0146089801F03B
:104AA00076FA15981F9020B080BD80B56F4692B001
:104AB0000146069109910A910891002007F8290CF6
:104AC00017F8290C0B9100F0010007F8160C07F8F5
:104AD000150C17F8150C0D9100F00100019007F866
:104AE0000E0C0D9800901090012002900721039168
:104AF00001F0F9F901F0F1F90146009801F05CFAD2
:104B0000019802990D9A04920F9207F80D0C01F08A
:104B100028FA039901F0E7F90146049801F037FA01
:104B20000D98119012B080BD80B56F4692B00246CC
:104B3000069209920A9208920120029007F8290C25
:104B400017F8291C0B9201F0010107F8161C07F851
:104B5000151C17F8151C0D9201F00101019107F8C1
:104B60000E1C0D99009110910621039101F0BBF9E3
:104B700001F0B3F90146009801F01EFA019802997C
:104B80000D9A04920F9207F80D0C01F0EAF90399BF
:104B900001F0A9F90146049801F0F9F90D98119076
:104BA00012B080BD87B00190029000210391049063
:104BB00005910160069007B0704780B56F4692B0CE
:104BC0000246069209920A9208920120029007F882
:104BD000290C17F8291C0B9201F0010107F8161C8B
:104BE00007F8151C17F8151C0D9201F00101019131
:104BF00007F80E1C0D99009110910221039101F00C
:104C0000F0F901F093F90146009801F0E0F90198FC
:104C100002990D9A04920F9207F80D0C01F0B1F968
:104C2000039901F0DEF90146049801F0BBF90D98F3
:104C3000119012B080BD87B00190029000210391C5
:104C4000049005910160069007B0704780B56F46EB
:104C500090B00146069107910891099104200290B5
:104C600007F8160C07F8150C0B9107F80E0C0B98AB
:104C700001900E9001F026F91821039101F0B1F98D
:104C800001F054F90146019801F0A1F902980B993D
:104C900004910D9107F80D0C01F014F901460298EA
:104CA00001F06FF9039901F09CF90146049801F0B5
:104CB00079F90B980F9010B080BD80B56F4694B015
:104CC0000A46079008920B920C920A9201200390D8
:104CD00007F8290C17F8291C0D9201F0010107F8BB
:104CE000161C07F8151C17F8151C0F9201F001018E
:104CF000029107F80E1C0F99019112911021049155
:104D000001F06FF901F012F90146019801F05FF925
:104D1000029803990F9A0592119207F80D0C01F071
:104D200030F9049901F05DF90146059801F03AF96E
:104D30000F98139014B080BD80B56F46B0B00A468E
:104D40000F90109217921B92129201200B9007F86D
:104D5000790C17F8791C1D9201F0010107F8461C27
:104D600007F8451C17F8451C1F9201F0010102913C
:104D700007F83E1C1F9901912E910521039101F026
:104D8000B2F801F0AAF80146019801F015F902986D
:104D90000B991F9A04922D9207F83D0C01F0E1F84F
:104DA000039901F0A0F80146049801F0F0F80B987F
:104DB0001F9A18921A92149207F8710C17F8711C26
:104DC000219201F0010107F8361C07F8351C17F88D
:104DD000351C239201F00101069107F82E1C23993E
:104DE00005912C910721079101F07DF801F075F8EC
:104DF0000146059801F0E0F806980B99239A08926D
:104E00002B9207F82D0C01F0ACF8079901F06BF824
:104E10000146089801F0BBF80B98239A19921C924E
:104E2000169207F8690C17F8691C259201F0010128
:104E300007F8261C07F8251C17F8251C279201F0F7
:104E400001010A9107F81E1C279909912A91022154
:104E50000C9101F048F801F040F80146099801F082
:104E6000ABF80A980B99279A0D92299207F81D0C16
:104E700001F077F80C9901F036F801460D9801F031
:104E800086F827982F9030B080BD80B56F468EB0E1
:104E9000059006910791089109910420019007F867
:104EA0000E0C099800900C9001F00CF8182102915A
:104EB00001F097F801F03AF80146009801F087F800
:104EC0000198099903910B9107F80D0C00F0FAFF76
:104ED0000146019801F055F8029901F082F8014667
:104EE000039801F05FF809980D900EB080BD80B571
:104EF0006F4694B00A46079008920B920C920A9261
:104F00000120039007F8290C17F8291C0D9201F0D5
:104F1000010107F8161C07F8151C17F8151C0F924D
:104F200001F00101029107F80E1C0F9901911291F5
:104F30001021049101F055F800F0F8FF01460198A6
:104F400001F045F8029803990F9A0592119207F81B
:104F50000D0C01F016F8049901F043F8014605988C
:104F600001F020F80F98139014B080BD80B56F4603
:104F700092B00146069109910A910891002007F824
:104F8000290C17F8290C0B9100F0010007F8160CFA
:104F900007F8150C17F8150C0D9100F001000190A1
:104FA00007F80E0C0D980090109001200290062139
:104FB000039100F098FF00F090FF0146009800F088
:104FC000FBFF019802990D9A04920F9207F80D0CBD
:104FD00000F0C7FF039900F086FF0146049800F037
:104FE000D6FF0D98119012B080BD80B56F4692B07B
:104FF0000246069209920A9208920120029007F84E
:10500000290C17F8291C0B9201F0010107F8161C56
:1050100007F8151C17F8151C0D9201F001010191FC
:1050200007F80E1C0D99009110910721039100F0D3
:105030005AFF00F052FF0146009800F0BDFF0198B2
:1050400002990D9A04920F9207F80D0C00F089FF57
:10505000039900F048FF0146049800F098FF0D986E
:10506000119012B080BD87B001900290A4218DF8FC
:105070000F1004908DF817100170069007B070475C
:1050800087B0019002904FF40061ADF80E100490CB
:10509000ADF816100180069007B0704787B00190F8
:1050A00002900021ADF80E100490ADF816100180AA
:1050B000069007B0704780B56F4694B0079008918E
:1050C0000B910C910A91002007F8290C17F8290C74
:1050D0000D9100F0010007F8160C07F8150C17F8F1
:1050E000150C0F9100F00100029007F80E0C0F98BC
:1050F00001901290012003901021049100F071FFA3
:1051000000F014FF0146019800F061FF0298039936
:105110000F9A0592119207F80D0C00F032FF0499D6
:1051200000F05FFF0146059800F03CFF0F981390D8
:1051300014B080BD88B000910146009801910290A2
:105140000199097803908DF8131005908DF81B10C4
:105150000170079008B0704780B56F4694B0079013
:1051600008910B910C910A91002007F8290C17F86F
:10517000290C0D9100F0010007F8160C07F8150C2A
:1051800017F8150C0F9100F00100029007F80E0CB3
:105190000F9801901290012003901021049100F0CB
:1051A00020FF00F0C3FE0146019800F010FF0298B6
:1051B00003990F9A0592119207F80D0C00F0E1FE89
:1051C000049900F00EFF0146059800F0EBFE0F98E1
:1051D000139014B080BD87B0019002900021ADF80B
:1051E0000E100490ADF816100180069007B07047BD
:1051F00080B56F4690B002910390134604930B90D4
:105200000C9107F8092C46F61C40C0F200000E90E5
:105210004FF0553000EA5100081A4FF0333101EADF
:10522000900120F0CC30084400EB101020F0F0305A
:105230004FF001314843000E0F900F98012808D11C
:10524000FFE70398029902460192013908421AD0F9
:105250001DE046F61C40C0F20000059001200690BB
:1052600046F69440C0F200000168406809910A9037
:10527000042007900020089046F61051C0F200016B
:1052800005A800F0E8FF0498C00720B900E003E09B
:10529000019840B900E006E046F62440C0F2000064
:1052A0006E2100F0F7FF10B080BD80B56F468AB068
:1052B0000A460346049305920692991801209942E2
:1052C00078BF00200B46019307910021002A48BFB8
:1052D0000121484007F8050C40B9FFE70198039009
:1052E00001200290039809900AB080BD46F69440D0
:1052F000C0F20000016840680291039000F0E4FDF4
:10530000FEDE40F20101C2F2000101200870704788
:1053100080B56F4600F000F880B56F46ADF5996D29
:10532000FFF7EFFF0DF1830041902020C4F204004D
:1053300079907D907A9002207B902220C4F2040024
:105340001F907C90B39000201E9000F0E9FD014674
:105350001E9800F00EFE1E9900F0F5FDADF8D0028B
:10536000ADF8CA020DF2CA20FEF7D6FE01461F981C
:105370000988E790ADF8A213E99000F0F5FE4EF62B
:105380000850CEF2000000F058FE2790B0F5804F94
:1053900040F0A983FFE700201C90ADF88400BDF821
:1053A000840000F035FD0120ADF88600BDF88600D0
:1053B00000F02EFD00F030FE1C980DF183011B91D2
:1053C000299146F20031C4F200010491B09100F03D
:1053D000ADFD01461C9800F0D4FD1C9900F0BBFD0A
:1053E000B190AF90AFA8FEF7B3FE014604980968EC
:1053F00047F83C0C47F8381C47F8340C00F08CFE9A
:105400001B991C98289146F20431C4F200010591C1
:105410008C9100F08BFD01461C9800F0B2FD1C99A8
:1054200000F099FD8D908B908BA8FEF7C2FE01468F
:105430000598096847F80C0C47F8081C47F8040C55
:1054400000F06AFE1B98319047F20000C4F204009D
:105450000790D490DC90DD9000F0EFFD01461C98A1
:105460000691D591D691D29100F060FD0146069843
:1054700000F087FD1C9900F06EFDD790D390D2A864
:10548000D3A9FEF7C7FE01460798096847F8780CCC
:1054900047F8741C47F8700C00F03EFE1B991C98EE
:1054A0003A914021C4F2070110916F91729170916D
:1054B0000221119171914221C4F20701139173915C
:1054C000AD9100F00AFD01461C9800F04AFD1C99C0
:1054D00000F031FD8DF8BB028DF8B3020DF2B32060
:1054E000FEF7D7FE014613980978F39007F8F51CEC
:1054F000F59000F024FE109A119913981B9B399394
:105500006A926D926B926C916E90D090D890D99077
:1055100000F0C0FC01461C9808918DF845138DF8E9
:1055200046138DF83E1300F0D8FC0146089800F0B1
:1055300018FD1C9900F0FFFC8DF847038DF83F0320
:105540000DF23E300DF23F31FEF7B0FE01461398EA
:105550000978ED908DF8BB13EF9000F0F0FD1B99EA
:105560001C9838914921C4F207010991959100F0E6
:10557000B4FC01461C9800F0F4FC1C9900F0DBFC24
:105580008DF85A028DF853020DF25320FEF7D0FE2B
:1055900001460998097847F8A80C07F8A11C47F8B4
:1055A000A00C00F0CCFD1B991C9837914D21C4F242
:1055B00007010A919B9100F090FC01461C9800F0B5
:1055C000D0FC102100F0B7FC8DF873028DF86B024F
:1055D0000DF26B20FEF7EAFE01460A980978FF906B
:1055E00007F8C51C47F8C40C00F0A9FD10991B9AD8
:1055F0001C983692749178917591769077918991F3
:1056000000F06BFC01461C9800F0ABFC1C9900F00C
:1056100092FC8DF82B028DF823020DF22320FEF769
:10562000A6FF01461098097847F8840C07F87D1CFE
:1056300047F87C0C00F083FD1B991C98359146219E
:10564000C4F207010B91AB9100F047FC0146F22038
:1056500000F087FC1C9900F06EFC8DF8B2028DF80A
:10566000AB020DF2AB20FFF7CFF801460B9809789B
:10567000F69007F8E91CF89000F061FD1B991C9862
:1056800034915C21C4F207010C91919100F025FC4A
:105690000146032000F065FC1C9900F04CFC8DF8DD
:1056A00049028DF843020DF24320FFF78CF90146C1
:1056B0000C98097847F89C0C07F8951C47F8940C4F
:1056C00000F03DFD1B991C983E9140F60351C4F239
:1056D00004011A91A79100F000FC01468020199066
:1056E00000F03FFC1C9900F026FC8DF8A2028DF81A
:1056F0009B020DF29B20FFF7D8F901461A98097812
:10570000FC9007F8D11CFE9000F019FD1A991B9A25
:105710001C983D92979100F0E0FB0146199800F02B
:1057200020FC1C9900F007FC8DF862028DF85B02EA
:105730000DF25B20FFF7F8F901461A98097847F84F
:10574000B40C07F8AD1C47F8AC0C00F0F8FC1B9942
:105750001C98309140F60001C4F20401159160914B
:1057600064916191C8211691629140F6C801C4F21A
:10577000040118916391A19100F0D8FB01461C9897
:1057800000F0FFFB1C9900F0E6FBA290A090A0A8FF
:10579000FFF708FA01461898096847F8240C47F8FB
:1057A000201C47F81C0C00F0B7FC159B169A1899A2
:1057B000DDF86CC01C98CDF8BCC05B935F935C9324
:1057C0005D925E91B89100F0B1FB01461C9800F02B
:1057D000D8FB1C9900F0BFFBB990B790B7A8FFF7B2
:1057E000ECF901461898096847F8480C47F8441C3A
:1057F00047F8400C00F090FC15991B9A1C982E92CB
:105800004C9150914D91C4210D914E9140F6C4019F
:10581000C4F204010F914F919E9100F087FB014665
:105820001C9800F0AEFB1C9900F095FB9F909D909A
:105830009DA8FFF700FA01460F98096847F8180C71
:1058400047F8141C47F8100C00F066FC0D9A0F99ED
:10585000159BDDF86CC01C98CDF8B4C047934B93F2
:10586000489349924A91A49100F060FB01461C982C
:1058700000F087FB1C9900F06EFBA590A390A3A8F5
:10588000FFF7E4F901460F98096847F8300C47F82C
:105890002C1C47F8280C00F03FFC0D990F98159A26
:1058A0001B9B2C9342924692439244914590CB90FD
:1058B000DE90DF9000F0C1FB01461C980E91CC9168
:1058C000CD91C99100F032FB01460E9800F059FBD2
:1058D0001C9900F040FBCE90CA90C9A8CAA9FFF756
:1058E000ECF901460F98096847F86C0C47F8681CFA
:1058F00047F8640C00F010FC109A119913981B9B48
:10590000339365926892669267916990BB90DA9042
:10591000DB9000F0BFFA01461C9812918DF8F1124D
:105920008DF8F2128DF8EA1200F0D7FA01461298BB
:1059300000F017FB1C9900F0FEFA8DF8F3028DF8C9
:10594000EB020DF2EA200DF2EB21FFF7F5F901462B
:1059500013980978F0908DF8C713F29000F0EFFBE0
:10596000159A169918981B9B2B9356925A925792F8
:1059700058915990C590E090E19000F05EFB01468F
:105980001C981491C691C791C39100F0CFFA0146BB
:10599000149800F0F6FA1C9900F0DDFAC890C49053
:1059A000C3A8C4A9FFF771FA01461898096847F817
:1059B000600C47F85C1C47F8580C00F0ADFB159ADA
:1059C000169918981B9B2A93519255925292539173
:1059D0005490BF90E290E39000F02FFB01461C989A
:1059E0001791C091C191BD9100F0A0FA014617989E
:1059F00000F0C7FA1C9900F0AEFAC290BE90BDA8A4
:105A0000BEA9FFF774FA01461898096847F8540CC4
:105A100047F8501C47F84C0C00F07EFB1A991B9A73
:105A20001C983C92999100F058FA0146199800F0A0
:105A300098FA1C9900F07FFA8DF86A028DF86302DB
:105A40000DF26320FFF792FA01461A98097847F899
:105A5000C00C07F8B91C47F8B80C00F070FB1A9995
:105A60001B9A1C983B92A99100F037FA01461998AD
:105A700000F077FA1C9900F05EFA8DF8AA028DF812
:105A8000A3020DF2A320FFF7B0FA01461A98097895
:105A9000F99007F8DD1CFB9000F051FB1B991C9856
:105AA00032914321C4F207011D918F9100F015FA44
:105AB0000146FF2000F055FA1C9900F03CFA8DF8E1
:105AC00042028DF83B020DF23B20FFF7CCFA014673
:105AD0001D98097847F8900C07F8891C47F8880C3E
:105AE00000F02DFB29E00DF183003F902021C4F24E
:105AF000040103917E9182917F9100200290809019
:105B00008191939100F00CFA0146029800F031FA6D
:105B1000029900F018FAADF85002ADF84A020DF201
:105B20004A20FEF707FB014603980988EA90ADF882
:105B3000AE13EC9000F018FB3CE00DF183004090B8
:105B40002021C4F204010091839187918491002067
:105B5000019085908691B59100F0E2F90146019897
:105B600000F007FA019900F0EEF9ADF8DA02ADF8AD
:105B7000D2020DF2D220FFF783FA0146009809887D
:105B8000E490ADF89613E69000F0EEFA019842F238
:105B9000107100F013F922902391FFE722A800F082
:105BA00005F92490259124980028C6D0FFE700F03D
:105BB00038FAF3E700F035FAFCE780B56F4640F2BB
:105BC0000000C2F2000000F001F880BD80B56F4611
:105BD000A8B0014604910791087807F87E0C0122CD
:105BE00007F87D2C01300870FFF78BFBA7F18700C9
:105BF0000B902021C4F2040100910C9110910D91A1
:105C0000002003900E900F91159100F089F9014644
:105C1000039800F0AEF9039900F095F927F8460CC7
:105C200027F84E0CA7F14E00FFF738FA014600980E
:105C300009881F9027F81E1C219000F095FAFFF7A5
:105C400060FBA7F18600099046F20030C4F2000024
:105C5000029019901D901E9000F0EFF901460398F4
:105C600001911A911B91179100F060F9014601987A
:105C700000F087F9039900F06EF91C90189017A8AE
:105C800018A9FFF718FA014602980968259026918D
:105C9000279000F041FAFFF734FB03980499A7F12D
:105CA00085020A924322C4F20702059212921391CE
:105CB00000F013F90146FF2000F053F9039900F0BA
:105CC0003AF90146049807F84F1C07F8591CA7F148
:105CD0005901FFF72FFA014605980978229007F835
:105CE000111C249000F02BFA28B080BD80B56F46BF
:105CF00000F001F880BD80B56F469EB0FFF701FB54
:105D0000A7F16200069046F20430C4F2000002904F
:105D100012901690179000F090F901901390149043
:105D200010900020039000F001F90146019800F066
:105D300028F9039900F00FF91590119010A811A9F6
:105D4000FFF70AFA0146029809681B901C911D9002
:105D500000F0E2F9FFF7D5FA0398A7F16101079186
:105D60002021C4F20401049108910C9109910A9038
:105D70000B910E9100F0D4F80146039800F0F9F869
:105D8000039900F0E0F827F83A0C27F8420CA7F145
:105D90004200FFF720FA014604980988189027F876
:105DA000121C1A9000F0E0F91EB080BD80B56F465D
:105DB00082B0019000F007F802B080BD82B0009080
:105DC000019102B0704780B56F468AB001460391D9
:105DD0000691081D0891099008684968884203DB0C
:105DE000FFE7002004900FE00398006801900790FF
:105DF00001210291FFF759FA039B0199024602988B
:105E00001A6005910490FFE7049805990AB080BDD7
:105E100080B56F468CB0ADF8100027F8020C37F84B
:105E2000020C0146029127F81E0C400927F8120CBB
:105E3000014603910F2810D8FFE70298039A4EF20B
:105E40000011CEF2000101EB8201009100F01F0071
:105E500001460191202808D316E0039846F68452A3
:105E6000C0F20002102100F02BFA0098019901F015
:105E70001F020121914005900691089009910A9016
:105E800000F04AF90CB080BD46F69450C0F2000014
:105E900000F022FE80B56F4684B001900290FFE7CB
:105EA000019801210022FFF7A3F9FFE7019800788C
:105EB00007F8010C17F8010C04B080BD03207047EF
:105EC000FF2070471F20704780B56F4646F6A450EC
:105ED000C0F20000522100F0DDF981B08DF803001E
:105EE000C04301B0704780B56F4684B00246C8B267
:105EF0000B4601931346029307F8022C07F8011C86
:105F0000072807D8FFE70298019901F007018840A8
:105F100004B080BD46F66460C0F2000000F0DCFD15
:105F200081B0ADF80200C04301B0704781B000906D
:105F3000C04301B0704781B08DF802008DF80310A6
:105F4000084301B0704781B0ADF80000ADF8021011
:105F5000084301B0704782B000900191084302B03D
:105F6000704781B08DF802008DF80310084001B031
:105F7000704781B0ADF80000ADF80210084001B0E4
:105F8000704782B000900191084002B0704782B023
:105F90000A46014600918DF80720087810430870E2
:105FA00002B0704782B00A4601460091019208682B
:105FB0001043086002B0704782B00A460146009163
:105FC0008DF8072008781040087002B0704782B042
:105FD0000A4601460091019208681040086002B02C
:105FE000704780B56F4684B002460092C8B20B4637
:105FF0000193029207F8011C1F2807D8FFE70098B9
:10600000019901F01F01884004B080BD46F664602C
:10601000C0F2000000F060FD80B56F4600F017F997
:1060200080BD80B56F4600F014F980BDFFE7FEE744
:10603000704781B00090FFE7FEE780B56F4684B0FF
:1060400001900290FFE701980421002200F007F878
:10605000FFE7019800680390039804B080BD80B505
:106060006F4690B002910390134604930B900C91ED
:1060700007F8092C46F6A060C0F200000E904FF021
:10608000553000EA5100081A4FF0333101EA90010F
:1060900020F0CC30084400EB101020F0F0304FF02E
:1060A00001314843000E0F900F98012808D1FFE7F7
:1060B0000398029902460192013908421AD01DE064
:1060C00046F6A060C0F2000005900120069046F65A
:1060D0009440C0F200000168406809910A900420D1
:1060E00007900020089046F68C71C0F2000105A8C8
:1060F00000F0B1F80498C00720B900E003E001986F
:1061000040B900E006E046F6A860C0F200006E214B
:1061100000F0C0F810B080BD80B56F4684B000912B
:10612000019002900391FFE701980421002200F002
:1061300030F8FFE700980199086004B080BD80B591
:106140006F4684B000900A460192029007F8011C45
:10615000FFE700980121002200F01BF8FFE70198FB
:106160000099087004B080BD80B56F4684B000907F
:106170000A460192029027F8021CFFE700980221CC
:10618000002200F006F8FFE701980099088004B0AB
:1061900080BD80B56F4690B0019102901346039385
:1061A0000A900B9107F80D2C46F6A062C0F200028F
:1061B0000D920E904FF0553000EA5100081A4FF042
:1061C000333101EA900120F0CC30084400EB10108C
:1061D00020F0F0304FF001314843000E0F900F983F
:1061E000012808D1FFE7029801990246009201397F
:1061F00008421AD01DE046F6A060C0F200000490EC
:106200000120059046F69440C0F200000168406805
:1062100008910990042006900020079046F68C71A2
:10622000C0F2000104A800F016F80398C00720B9D6
:1062300000E003E0009840B900E006E046F69C70FC
:10624000C0F200006F2100F025F810B080BD62B6EA
:10625000704700BF704780B56F4684B0CDE901013B
:1062600001A80122ADF80C20FFF7E3FE80B56F46D0
:106270008AB00DF1040C90E870430020634683E877
:1062800070438DF8240007A88DF82510CDE907C2CA
:10629000FFF7CFFE80B56F4688B00022CDE906013A
:1062A0000492012303920422029247F27802C0F280
:1062B000000268460021019306AB0093FFF7D6FF6A
:1062C00080B56F468CB0CDE9000100200690022019
:1062D0000849029169460390059008A80490064871
:1062E000CDE9090111460B9001A8089002A8FFF71B
:1062F000B2FF00BF9C700000FF6A0000F0B503AF62
:106300002DE9000F87B0D7F80C901C4615460029E0
:106310004ED0D0F814B02B221BF0010108BF4FF46F
:10632000881201EB090A0692D7F808805FEA4B71E0
:1063300049D5102C5AD2002C64D004F0030CA208CA
:106340004FF0000160D002F00302CDF8108005F19B
:106350000108CDE90249A1EB820E6FF00302059519
:1063600008EB0205043295F9033095F9064095F9DA
:10637000056013F1410F95F90450C8BF01310EEBD0
:10638000020315F1410FC8BF013116F1410FC8BF1B
:10639000013114F1410FC8BF01310433E0D1DDE90F
:1063A00004850432DDE90249BCF1000F30D147E039
:1063B0002D21D0F814B009F1010A0691D7F8088010
:1063C0005FEA4B71B5D400250168E9BB2146D0E9ED
:1063D000074600913146069A2B46204600F0EEF81B
:1063E00060B1012007B0BDE8000FF0BD06462846A9
:1063F000214600F006F90146304621E0F3682046C8
:10640000414677E000211BE00022BCF1000F17D0CD
:10641000AB5613F1410FC8BF0131BCF1010F0FD0D2
:106420002A4492F9013013F1410FC8BF0131BCF188
:10643000020F05D092F9022012F1410FC8BF0131BD
:106440008A4401680029C1D0CDE90485D0F80480D0
:10645000D04512D95FEA0B711FD4017EA8EB0A0266
:10646000A346CA46032908BF0121002949D00129B2
:1064700049D111464FF0000949E02146D0E90746CD
:1064800000913146DDE90532204600F097F870B3FF
:10649000012007B0BDE8000FF0BD3021D0F810B0EA
:1064A000224601610121057ED0E907460176314689
:1064B000039000922046DDE9053200F07FF80146A6
:1064C000012000297FF48EAF0695A8EB0A00DDF8C5
:1064D0001080451C013D3AD032692046302190475A
:1064E0000028F7D0012007B0BDE8000FF0BDF36829
:1064F000204604994A4607B0BDE8000FBDE8F040C9
:106500001847914603E0510801324FEA52090669E3
:106510004D1CD0E90748013D0BD0D8F8102020468B
:10652000314690470028F6D0012007B0BDE8000FA3
:10653000F0BDCDF800B02046DDE90532414600F05F
:106540003DF878B1012007B0BDE8000FF0BDF36859
:10655000204641464A46984780B1012007B0BDE831
:10656000000FF0BDD8F80C302046049952469847E9
:1065700070B1012007B0BDE8000FF0BD0398069987
:106580000176C0F810B0002007B0BDE8000FF0BDE4
:106590000025A94509D0D8F810202046314690475B
:1065A00001350028F5D0691E00E049460020494524
:1065B00038BF012007B0BDE8000FF0BDF0B503AF54
:1065C0004DF8048DD7F808801C460E46B2F5881F9A
:1065D0000AD033691146054698470146284619B145
:1065E00001205DF8048BF0BD3CB1F36821464246C2
:1065F0005DF8048BBDE8F040184700205DF8048B7F
:10660000F0BDF0B503AF2DE9000F82B08146033035
:1066100020F0030AAAEB0908414535D2002946D0EB
:1066200001F0030C8A084FF0000000F03182A0EB6B
:10663000820E09F101066FF003057319043593F911
:10664000031093F9064093F9052011F1410F93F9D6
:106650000430C8BF01300EEB050113F1410FC8BF74
:10666000013012F1410FC8BF013014F1410FC8BF12
:1066700001300431E1D12A1DBCF1000F40F00D8240
:1066800002B0BDE8000FF0BDA1EB080E5FEA9E0C62
:10669000C4D00EF00302CA4501D100204CE0A9EBA2
:1066A0000A0010F1040F07D90020002528E000207F
:1066B00002B0BDE8000FF0BD09F1010B00206FF042
:1066C00003060BEB060595F9034095F9063095F99D
:1066D000051014F1410F95F90450C8BF013015F1B0
:1066E000410FC8BF013011F1410FC8BF013013F194
:1066F000410FC8BF013016F1080506F10406E0D1CC
:10670000CA4519D019F9051011F1410FC8BF013060
:10671000B8F1010F10D009EB050191F9013013F127
:10672000410FC8BF0130B8F1020F05D091F9021036
:1067300011F1410FC8BF013009EB08040023C2B1B9
:106740002EF00301214491F9006016F1410FC8BFFA
:106750000123012A0DD091F9016016F1410FC8BF44
:106760000133022A05D091F9021011F1410FC8BF7F
:106770000133184412E04FF000083FFA88F23FFA64
:1067800098F31A44ACEB0B0C0AEB8B041BF00301DF
:1067900002EB024200EB124040F04981BCF1000FD5
:1067A0003FF46EAFBCF1C00FE34628BF4FF0C00B03
:1067B000A246BCF1040FDED36FF00F01012201EB02
:1067C0008B01302902EB1112CDE9002A03D24FF0E0
:1067D00000085446ABE022F003094FF0000854468D
:1067E00094E80E04B9F10409A6696FEA010E4FEAB4
:1067F000DE1545EA91116FEA020521F0FE314FEAFC
:10680000D51545EA9212414422F0FE320A446FEA5D
:1068100003014FEAD11545EA931323F0FE332569AE
:106820001A446FEA0A034FEAD313616943EA9A13E1
:10683000D4F8388023F0FE33D4F83CE01A446FEAF1
:1068400005034FEAD31343EA9513E56923F0FE33BA
:106850001A446FEA01034FEAD31343EA911121F07E
:10686000FE31236A11446FEA06024FEAD21242EA6D
:106870009612666A22F0FE3211446FEA05024FEA70
:10688000D21242EA9512A56A22F0FE3211446FEA52
:1068900003024FEAD21242EA9312E36A22F0FE3276
:1068A00011446FEA06024FEAD21242EA9612266BB0
:1068B00022F0FE3211446FEA05024FEAD21242EA98
:1068C0009512656B22F0FE3204F1400411446FEA28
:1068D00003024FEAD21242EA931222F0FE3211442E
:1068E0006FEA06024FEAD21242EA961222F0FE3214
:1068F00011446FEA05024FEAD21242EA951222F0E1
:10690000FE3211446FEA08024FEAD21242EA9812AC
:1069100022F0FE3211446FEA0E024FEAD21242EA2E
:106920009E1222F0FE3202EB01087FF459AF00996B
:10693000DDF804A011F0030E3FF41FAF94E84C0003
:10694000BEF1010FE5686FEA02014FEAD11141EA99
:1069500092116FEA03024FEAD21221F0FE3142EAAD
:106960009312414422F0FE3211446FEA06024FEACC
:10697000D21242EA961222F0FE3211446FEA050268
:106980004FEAD21242EA951222F0FE3202EB0108DF
:106990003FF4F3AE04F11005BEF1020F2ECD6FEA05
:1069A00001064FEAD61646EA91116FEA020621F077
:1069B000FE314FEAD61646EA9212414422F0FE32E8
:1069C00011446FEA03024FEAD21242EA931222F014
:1069D000FE3211446FEA05024FEAD21242EA9512E2
:1069E00022F0FE3202EB01083FF4C7AE04F12006AC
:1069F0004ECECD43ED0945EA9111D54321F0FE314C
:106A0000ED0945EA9212414422F0FE321144DA4384
:106A1000D20942EA931222F0FE321144F243D20923
:106A200042EA961222F0FE3202EB0108A5E60BF0D4
:106A3000FC0301295AF823206FEA02064FEAD61612
:106A400046EA921222F0FE3215D00AEB83030229A5
:106A50005E686FEA06054FEAD51545EA961626F0F8
:106A6000FE36324407D09968CB43DB0943EA9111E3
:106A700021F0FE310A443FFA82F13FFA92F21144CA
:106A800001EB014100EB114002B0BDE8000FF0BD89
:106A90000022BCF1000F3FF4F3AD19F9021011F11F
:106AA000410FC8BF0130BCF1010F3FF4E9AD4A44CA
:106AB00092F9011011F1410FC8BF0130BCF1020F72
:106AC0003FF4DEAD92F9021011F1410FC8BF013061
:106AD00002B0BDE8000FF0BD80B56F4686B001463C
:106AE000002001220490019247F23002039004201A
:106AF000C0F20002029068460092FFF7ACFBF0B5CE
:106B000003AF2DE9000F87B0046847F2AC0042F2F2
:106B1000107E0D467445C0F200003DD341F2597815
:106B20004EF2FF03A7F1260B0021CDF2B71841F278
:106B30007B494FF0640AC0F2F5530395A4FB082586
:106B40000BEB010C04399C424FEA553202FB1E4507
:106B50001446AEB24FEA960606FB09F64FEA5646D1
:106B600006FB1A5530F81660ACF80660ADB230F886
:106B70001550ACF80850E1D8039D01F10A03144602
:106B8000632C0CD821460A291BD330F811009A1E19
:106B9000A7F1260188521AE00A23632CF2D9A1B288
:106BA00041F27B428908023B51436422A7F1260649
:106BB000490C01FB124292B230F81220F2520A291B
:106BC000E3D241F030005A1EA7F126018854C2F1E9
:106BD0000A00114401220023CDE9001028460121BA
:106BE000FFF78CFB07B0BDE8000FF0BDFFE7FEE745
:106BF00069735F616C69676E65645F746F3A206189
:106C00006C69676E206973206E6F74206120706FED
:106C10007765722D6F662D74776F0000F06B000042
:106C20002A000000756E7361666520707265636F7F
:106C30006E646974696F6E2873292076696F6C6160
:106C40007465643A207074723A3A726561645F7672
:106C50006F6C6174696C65207265717569726573BA
:106C600020746861742074686520706F696E746543
:106C70007220617267756D656E7420697320616C36
:106C800069676E656420616E64206E6F6E2D6E752F
:106C90006C6C000000000000000000002F686F6DA9
:106CA000652F646F6D2F2E7275737475702F746FEE
:106CB0006F6C636861696E732F737461626C652DAC
:106CC0007838365F36342D756E6B6E6F776E2D6C3F
:106CD000696E75782D676E752F6C69622F7275738A
:106CE000746C69622F7372632F727573742F6C6981
:106CF00062726172792F636F72652F7372632F7086
:106D000074722F636F6E73745F7074722E7273007F
:106D10009C6C000073000000C80500000D0000001E
:106D20002F686F6D652F646F6D2F2E636172676FB3
:106D30002F72656769737472792F7372632F696E2E
:106D40006465782E6372617465732E696F2D3139B5
:106D500034396366386336623562353537662F639A
:106D60006F727465782D6D2D302E372E372F73721C
:106D7000632F7065726970686572616C2F6E7669D9
:106D8000632E7273206D0000640000007900000023
:106D900009000000206D0000640000007900000080
:106DA00037000000756E7361666520707265636FF1
:106DB0006E646974696F6E2873292076696F6C61DF
:106DC0007465643A2068696E743A3A756E726561EA
:106DD000636861626C655F756E636865636B65644B
:106DE000206D757374206E65766572206265207201
:106DF0006561636865642F686F6D652F646F6D2FC3
:106E00002E7275737475702F746F6F6C636861691F
:106E10006E732F737461626C652D7838365F36340B
:106E20002D756E6B6E6F776E2D6C696E75782D6734
:106E30006E752F6C69622F727573746C69622F7333
:106E400072632F727573742F6C6962726172792F1D
:106E5000636F72652F7372632F6F70732F62697423
:106E60002E727300F66D00006D000000F00100004E
:106E70000100000069735F616C69676E65645F742F
:106E80006F3A20616C69676E206973206E6F7420A1
:106E90006120706F7765722D6F662D74776F0000BB
:106EA000746E00002A000000756E736166652070C4
:106EB0007265636F6E646974696F6E2873292076DA
:106EC000696F6C617465643A207074723A3A7265E5
:106ED00061645F766F6C6174696C65207265717551
:106EE0006972657320746861742074686520706FBE
:106EF000696E74657220617267756D656E74206964
:106F00007320616C69676E656420616E64206E6FCA
:106F10006E2D6E756C6C2F686F6D652F646F6D2FA5
:106F20002E7275737475702F746F6F6C63686169FE
:106F30006E732F737461626C652D7838365F3634EA
:106F40002D756E6B6E6F776E2D6C696E75782D6713
:106F50006E752F6C69622F727573746C69622F7312
:106F600072632F727573742F6C6962726172792FFC
:106F7000636F72652F7372632F7074722F636F6EFD
:106F800073745F7074722E7273000000166F0000CD
:106F900073000000C80500000D000000756E7361ED
:106FA000666520707265636F6E646974696F6E28C0
:106FB00073292076696F6C617465643A207074720D
:106FC0003A3A77726974655F766F6C6174696C6563
:106FD00020726571756972657320746861742074BC
:106FE000686520706F696E74657220617267756D77
:106FF000656E7420697320616C69676E65642061D9
:107000006E64206E6F6E2D6E756C6C617474656D40
:10701000707420746F207368696674206C65667480
:107020002077697468206F766572666C6F770000F0
:107030000B70000023000000696E646578206F7596
:1070400074206F6620626F756E64733A2074686591
:10705000206C656E206973206C6962726172792F91
:10706000636F72652F7372632F70616E69636B69F2
:107070006E672E7273000000587000001D00000043
:10708000DA00000005000000206275742074686555
:1070900020696E64657820697320000038700000F4
:1070A00020000000887000001200000030303031F5
:1070B00030323033303430353036303730383039A4
:1070C000313031313132313331343135313631379C
:1070D0003138313932303231323232333234323582
:1070E0003236323732383239333033313332333368
:1070F000333433353336333733383339343034314E
:107100003432343334343435343634373438343933
:10711000353035313532353335343535353635372B
:107120003538353936303631363236333634363511
:1071300036363637363836393730373137323733F7
:1071400037343735373637373738373938303831DD
:1071500038323833383438353836383738383839C3
:1071600039303931393239333934393539363937BB
:047170003938393938
:04000003000040C1F8
:00000001FF
