:104000000080002001440000D74600004F47000018
:10401000D7460000D7460000D74600000000000049
:10402000000000000000000000000000D746000073
:10403000D746000000000000D7460000D746000029
:10404000D7460000D7460000D7460000D7460000FC
:10405000D7460000D7460000D7460000D7460000EC
:10406000D7460000D7460000D7460000D7460000DC
:10407000D7460000D7460000D7460000D7460000CC
:1044000000F06BF90E480F490022814201D004C030
:10441000FBE70D480D490E4A814202D008CA08C088
:10442000FAE70C484FF47001026842EA01020260A8
:10443000BFF34F8FBFF36F8F00F054F800DE000022
:1044400000000020040000200000002000000020E8
:10445000B048000088ED00E040F20001C2F2000127
:1044600001200870704781B0ADF80200C04301B070
:10447000704781B0ADF80000ADF80210084301B0FC
:10448000704781B0ADF80000ADF80210084001B0EF
:10449000704787B0019002904FF40061ADF80E10A4
:1044A0000490ADF816100180069007B0704787B0F1
:1044B000019002904FF40061ADF80E100490ADF839
:1044C00016100180069007B0704787B001900290E7
:1044D0000021ADF80E100490ADF816100180069082
:1044E00007B0704780B56F4600F000F880B56F46A2
:1044F000A8B0FFF7B1FFA7F18A0008902020C4F20E
:10450000040009900C900A9002200B902220C4F223
:10451000040004900D90199000200390FFF7A3FF72
:1045200001460398FFF7ADFF0399FFF7A2FFADF82F
:10453000680027F83E0CA7F13E00FFF7AAFF0146EE
:1045400004980988259027F8061C279000F050F859
:10455000FFE7A7F18A00009007902021C4F2040130
:1045600002911391169114910020019015901791CA
:104570001D91FFF778FF01460198FFF782FF01992F
:10458000FFF777FF27F8260C27F82E0CA7F12E004F
:10459000FFF78DFF0146029809881F9027F81E1C1F
:1045A000219000F025F8009A0198029906920E9148
:1045B00011910F91109012911B91FFF754FF01463A
:1045C0000198FFF75EFF0199FFF753FFADF8700008
:1045D00027F8360CA7F13600FFF777FF014602985F
:1045E0000988229027F8121C249000F001F8B0E707
:1045F00080B56F4684B000900A460192029027F879
:10460000021CFFE700980221002200F006F8FFE7F5
:1046100001980099088004B080BD80B56F4690B0C5
:1046200001910290134603930A900B9107F80D2C09
:1046300044F28072C0F200020D920E904FF055309D
:1046400000EA5100081A4FF0333101EA900120F0DE
:10465000CC30084400EB101020F0F0304FF0013166
:104660004843000E0F900F98012808D1FFE70298E9
:10467000019902460092013908421AD01DE044F225
:104680008070C0F2000004900120059044F2887010
:10469000C0F200000168406808910990042006906B
:1046A0000020079044F60401C0F2000104A800F0C5
:1046B00019F80398C00720B900E003E0009840B95A
:1046C00000E006E044F61400C0F200006F2100F0A4
:1046D00028F810B080BDFFE7FEE7704781B000907A
:1046E000FFE7FEE780B56F4684B0CDE9010101A880
:1046F0000122ADF80C20FFF7F1FF80B56F468AB0BC
:104700000DF1040C90E870430020634683E8704389
:104710008DF8240007A88DF82510CDE907C2FFF712
:10472000DDFF80B56F4688B00022CDE90601049216
:10473000012303920422029244F6A002C0F2000276
:1047400068460021019306AB0093FFF7D6FFFFE711
:04475000FEE7D4D4D8
:1047540069735F616C69676E65645F746F3A206149
:104764006C69676E206973206E6F74206120706FAE
:104774007765722D6F662D74776F000054470000C3
:104784002A00000000000000000000002F686F6D88
:10479400652F646F6D2F2E7275737475702F746F1F
:1047A4006F6C636861696E732F737461626C652DDD
:1047B4007838365F36342D756E6B6E6F776E2D6C70
:1047C400696E75782D676E752F6C69622F727573BB
:1047D400746C69622F7372632F727573742F6C69B2
:1047E40062726172792F636F72652F7372632F70B7
:1047F40074722F636F6E73745F7074722E727300B1
:104804009047000073000000C80500000D00000080
:10481400756E7361666520707265636F6E6469742A
:10482400696F6E2873292076696F6C617465643AC8
:10483400207074723A3A77726974655F766F6C614E
:1048440074696C652072657175697265732074682A
:1048540061742074686520706F696E74657220617C
:104864007267756D656E7420697320616C69676E1B
:10487400656420616E64206E6F6E2D6E756C6C6C59
:104884006962726172792F636F72652F7372632F1D
:1048940070616E69636B696E672E72738348000082
:0C48A4001D000000DA000000050000000C
:0400000300004401B4
:00000001FF
